:100000000C9478190C94A2190C94A2190C94A219AE
:100010000C94A2190C94A2190C94A2190C94A21974
:100020000C94A2190C94A2190C94A2190C94A21964
:100030000C94A2190C943A410C94A2190C94A21994
:100040000C94A2190C9473710C940DCD0C94A219FC
:100050000C94329B0C94A2190C94A2190C94A21922
:100060000C94A2190C94A2190C94A2190C94A21924
:100070000C94A2190C94A2190C94A2190C94A21914
:100080000C94E5480C94A2190C94A2194E414E49C7
:100090004E495459494E46CDCCCC3D0AD7233C1746
:1000A000B7D13877CC2B329595E6241FB14F0A0093
:1000B0000020410000C84200401C4620BCBE4CCA83
:1000C0001B0E5AAEC59D7400407A10F35A00A07200
:1000D0004E18090010A5D4E80000E8764817000083
:1000E000E40B54020000CA9A3B000000E1F5050051
:1000F0000080969800000040420F000000A086019A
:10010000000000102700000000E803000000006469
:1001100000000000000A00000000000100000000D4
:10012000002C76D888DC674F0823DFC1DFAE59E1A9
:10013000B1B796E5E3E453C63AE651997696E8E618
:10014000C28426EB898C9B62ED407C6FFCEFBC9CEB
:100150009F40F2BAA56FA5F490055A2AF75C936BFD
:100160006CF9676DC11BFCE0E40D47FEF520E6B5B8
:1001700000D0ED902E0300943577050080841E0892
:100180000000204E0A000000C80C333333330F98B0
:100190006E12831141EF8D2114893BE65516CFFE77
:1001A000E6DB18D1844B381BF77C1D901DA4BBE403
:1001B00024203284725E228100C9F124ECA1E53D45
:1001C00027F4010000F401000064000000E80300CF
:1001D0000000009643000096430000A0400000C8C5
:1001E000410000A0420000A0420000C8430000BA45
:1001F0004220204D383531205A005A2D50726F62FE
:1002000065204F666673657420286D6D293A0A0073
:1002100020440020490020204D3330312050005030
:1002200049442073657474696E67733A0A00204606
:100230000020420020480020204D3134352053005A
:100240004D6174657269616C2068656174757020B8
:10025000706172616D65746572733A0A00205A00AC
:1002600020204D3432302053004175746F20426598
:1002700064204C6576656C696E673A0A002045001B
:10028000205A00205900205800204200205400200D
:10029000204D323035205300416476616E636564D1
:1002A0003A20533C6D696E5F666565647261746582
:1002B0003E20543C6D696E5F74726176656C5F665A
:1002C000656564726174653E20423C6D696E5F7362
:1002D00065676D656E745F74696D655F6D733E20F3
:1002E000583C6D61785F78795F6A65726B3E205A21
:1002F0003C6D61785F7A5F6A65726B3E20453C6D4C
:1003000061785F655F6A65726B3E0A002054002069
:10031000520020204D323034205000416363656C20
:1003200065726174696F6E2028756E6974732F73BE
:1003300032293A20503C7072696E745F6163636564
:100340006C3E20523C726574726163745F616363DA
:10035000656C3E20543C74726176656C5F616363CA
:10036000656C3E0A00204500205A002059002020DC
:100370004D3230312058004D6178696D756D2041E6
:100380006363656C65726174696F6E2028756E6950
:1003900074732F7332293A0A00204500205A002036
:1003A000590020204D3230332058004D6178696D5E
:1003B000756D206665656472617465732028756E5D
:1003C0006974732F73293A0A00204500205A0020CF
:1003D000590020204D393220580053746570732025
:1003E00070657220756E69743A0A0020204D3230B3
:1003F000302044300A0020204D323030204400208C
:1004000044697361626C65640A0046696C616D657C
:100410006E742073657474696E67733A0020204DA2
:100420003134392043203B20556E69747320696E46
:100430002043656C736975730A00202047323120B0
:100440002020203B20556E69747320696E206D6DED
:100450000A0020636F6C6420657874727573696F2D
:100460006E2070726576656E7465640A0024F4D43B
:100470003050C38E20C2A24017828B7011127A9125
:100480000D816CD90AA861E108C75866076151431C
:10049000061E4B5D05C145A7041A411104093D988C
:1004A00003713931034036DB0265339102D4305495
:1004B00002802E1D02632CEE01752AC501B028A012
:1004C00001102781018F2564012B244B01E0223488
:1004D00001AC211F018D200D01801FFC00841EED49
:1004E00000971DDF00B81CD200E61BC600201BBC15
:1004F00000641AB200B219A8000A19A0006A18997B
:1005000000D117910040178B00B516840031167E7C
:1005100000B31579003A157300C7146F0058146AB8
:1005200000EE1366008813630025135E00C7125B9C
:10053000006C12570015125400C111510070114F78
:100540000021114B00D61049008D10470046104481
:100550000002104200C00F4000800F3E00420F3CDE
:1005600000060F3B00CB0E3800930E37005C0E35B3
:1005700000270E3400F30D3200C10D3100900D3014
:1005800000600D2E00320D2D00050D2C00D90C2B16
:1005900000AE0C2900850C29005C0C2700350C27C7
:1005A000000E0C2600E80B2400C40B2400A00B2333
:1005B000007D0B23005A0B2100390B2100180B2062
:1005C00000F80A1F00D90A1E00BB0A1E009D0A1D62
:1005D00000800A1D00630A1C00470A1B002C0A1B2E
:1005E00000110A1A00F7091A00DD091900C40919D7
:1005F00000AB091900920917007B0918006309175D
:10060000004C09160036091600200916000A0915C3
:1006100000F5081500E0081400CC081400B8081410
:1006200000A4081400900813007D0812006B081342
:10063000005808120046081200340811002308115F
:10064000001208110001081100F0071000E0071067
:1006500000D0071000C0071000B0070F00A107105E
:100660000091070E0083070F0074070F0065070E47
:100670000057070E0049070E003B070D002E070E1E
:100680000020070D0013070D0006070D00F9060CEA
:1006900000ED060D00E0060C00D4060C00C8060CA8
:1006A00000BC060C00B0060C00A4060B0099060C5A
:1006B000008D060B0082060B0077060B006C060B04
:1006C0000061060A0057060B004C060A0042060AA3
:1006D0000038060A002E060A0024060A001A060A36
:1006E000001006090007060A00FD050900F40509C7
:1006F00000EB050900E2050900D9050900D005094C
:1007000000C7050900BE050900B5050800AD0508CC
:1007100000A50509009C050800940508008C050843
:1007200000840508007C050800740508006C0507B6
:1007300000650508005D050700560508004E050721
:100740000047050700400508003805070031050788
:10075000002A050700230507001C050600160507EB
:10076000000F0507000805060002050700FB040648
:1007700000F5040700EE040600E8040600E20407A2
:1007800000DB040600D5040600CF040600C90406F9
:1007900000C3040600BD040600B7040600B104054A
:1007A00000AC040600A6040600A00405009B040695
:1007B0000095040500900406008A040500850405E0
:1007C00000800406007A0405007504050070040525
:1007D000006B04050066040500610405005C040567
:1007E0000057040500520405004D040500480405A7
:1007F00000430405003E0404003A040500350405E6
:1008000000300404002C0405002704040023040520
:10081000001E0404001A0404001604050011040458
:10082000000D04040009040500040404000004048D
:1008300000FC030400F8030400F4030400F00304C4
:1008400000EC030400E8030400E4030400E00304F4
:1008500000DC030400D8030400D4030400D0030424
:1008600000CC030400C8030300C503030024F40400
:10087000D9201BC40C5C0E9804C4095F0265077183
:1008800001F405F900FB04B30048048700C10369C3
:10089000005803550003034500BE023A00840231AC
:1008A0000053022A002902250004022000E4011C52
:1008B00000C8011900AF011700980114008401134A
:1008C00000710110006101100051010E0043010D83
:1008D0000036010B002B010B0020010B0015010954
:1008E000000C01090003010800FB000800F30008E8
:1008F00000EB000700E4000600DE000600D800065A
:1009000000D2000600CC000500C7000500C20005AB
:1009100000BD000400B9000400B5000400B10004EB
:1009200000AD000400A9000400A5000300A200031C
:10093000009F0004009B0003009800030095000244
:100940000093000300900003008D0002008B000361
:10095000008800020086000200840003008100027B
:10096000007F0002007D0002007B0002007900028F
:10097000007700010076000200740002007200019E
:1009800000710002006F0002006D0001006C0002A7
:10099000006A0001006900020067000100660001B2
:1009A00000650001006400020062000100610001B6
:1009B00000600001005F0002005D0001005C0001BA
:1009C000005B0001005A00010059000100580001BD
:1009D00000570001005600010055000100540001BD
:1009E00000530000005300010052000100510001BB
:1009F00000500001004F0001004E0000004E0001B9
:100A0000004D0001004C0001004B0000004B0001B4
:100A1000004A0001004900010048000000480001B0
:100A200000470001004600000046000100450000AC
:100A300000450001004400010043000000430001A4
:100A4000004200000042000100410000004100019E
:100A500000400001003F0000003F0001003E000098
:100A6000003E0001003D0000003D0001003C000090
:100A7000003C0000003C0001003B0000003B000186
:100A8000003A0000003A000100390000003900017E
:100A90000038000000380000003800010037000076
:100AA000003700010036000000360000003600016B
:100AB0000035000000350000003500010034000062
:100AC0000034000000340001003300000033000057
:100AD000003300010032000000320000003200014B
:100AE0000031000000310000003100010030000042
:100AF0000030000000300001002F0000002F000037
:100B0000002F0000002F0001002E0000002E00002A
:100B1000002E0001002D0000002D0000002D00001F
:100B2000002D0001002C0000002C0000002C000013
:100B3000002C0001002B0000002B0000002B000007
:100B4000002B0001002A0000002A0000002A0000FB
:100B5000002A0001002900000029000000290000EF
:100B600000290000002900010028000000280000E2
:100B700000280000002800000028000100270000D5
:100B800000270000002700000027000000270001C8
:100B900000260000002600000026000000260000BD
:100BA00000260001002500000025000000250000AF
:100BB00000250000002500000025000100240000A1
:100BC0000024000000240000002400000024000194
:100BD0000023000000230000002300000023000089
:100BE0000023000000230000002300010022000079
:100BF000002200000022000000220000002200006D
:100C0000002200010021000000210000002100005E
:100C1000002100000021000000210000002100014F
:100C20000020000000200000002000000020000044
:100C30000020000000200000002000000020000133
:100C4000001F0000001F0000001F0000001F000028
:100C5000001F0000001F0000001F0001001E000018
:100C6000001E0000001E0000001E0000004D383471
:100C700020582059205A2045006265640A002C2023
:100C800073797374656D2073746F7070656421205F
:100C90004865617465725F49443A20004865617433
:100CA000696E67206661696C656400486561746996
:100CB0006E67206661696C65640048656174696E81
:100CC00067206661696C65640048656174696E6778
:100CD000206661696C65640070012C019001270138
:100CE000B0012201C0011D01F00118011002130121
:100CF00030020E016002090190020401C002FF00EF
:100D00000003FA004003F5008003F000D003EB007D
:100D10002004E6007004E100E004DC004005D70098
:100D2000C005D2004006CD00D006C8008007C30031
:100D30003008BE00F008B900C009B400B00AAF0026
:100D4000B00BAA00D00CA500000EA000500F9B0015
:100D5000C01096005012910000148C00C01587003E
:100D6000B0178200B0197D00D01B7800001E730000
:100D700040206E0090226900F024640040275F004C
:100D800090295A00E02B5500102E500020304B00C7
:100D900010324600E033410090353C0010373700F8
:100DA00070383200A0392D00B03A2800A03B230053
:100DB000603C1E00103D1900903D1400103E0F00D5
:100DC000703E0A00C03E0500003F0000403FFBFFB0
:100DD000803FF6FFC03FF1FF544845524D414C2043
:100DE00052554E4157415900546865726D616C20EF
:100DF00052756E61776179004572723A204D494EA5
:100E000054454D5020424544004572723A204D49A8
:100E10004E54454D50004D494E54454D502074722E
:100E200069676765726564004572723A204D415882
:100E300054454D5020424544004572723A204D4180
:100E40005854454D50004D415854454D50207472F2
:100E5000696767657265640025753A2530327500EB
:100E6000253032753A2530327500257564202530DD
:100E700032753A25303275005A0059005800092061
:100E800000000000000000000000000000003FFF24
:100E9000F00000000000000000000000000038002A
:100EA000700000000000000000000000000030FCA6
:100EB000300000000000000000000000000020FCE6
:100EC000100000000000000000000000000020787A
:100ED00010000000000000000000000000002030B2
:100EE00010F80080003C00000000000000002C0012
:100EF000D048008000201FE00000104100002E318B
:100F0000D043C399A0383FF00000082080002F7B19
:100F1000D07124A4CF843FF00000082080002F7BF4
:100F2000D04124BC80043FF00000104100002E316D
:100F3000D04924A080241FE00000208200002C0063
:100F4000D0FBB39DC0181FE000004104000020301A
:100F50001000000000003FF0000041040000207875
:100F60001000000000003FF000002082000020FC84
:100F70001000000000003FF000001041000030FCB5
:100F80003000000000000FC000000000000038002A
:100F900070000000000007800000FFFFC0003FFF5E
:100FA000F0000000000003000000FFFFC000000090
:100FB00000000000000000000000000000003FFFF3
:100FC000F0000000000000000000000000003800F9
:100FD00070000000000000000000000000003387E7
:100FE0003000000000000000000000000000278723
:100FF00090000000000000000000000000002F87AB
:10100000D0000000000000000000000000002F875A
:10101000D0F80080003C00000000000000002F031A
:10102000D048008000201FE0000008208000203011
:101030001043C399A0383FF000000410400020780E
:10104000107124A4CF843FF00000041040002078E9
:10105000104124BC80043FF00000082080002030B4
:10106000104924A080241FE00000104100002F033D
:10107000D0FBB39DC0181FE00000208200002F8726
:10108000D000000000003FF00000208200002F8709
:10109000D000000000003FF0000010410000278752
:1010A0009000000000003FF000000820800033871F
:1010B0003000000000000FC00000000000003800F9
:1010C00070000000000007800000FFFFC0003FFF2D
:1010D000F0000000000003000000FFFFC00000005F
:1010E000005072696E7420706175736564004730DA
:1010F00020463132303020583020593000004730FF
:10110000205A2573004D31303920532569004D3167
:10111000343020532569004D313036205332353577
:10112000004D31303920532569004D31393020537D
:101130002569005072696E742061626F7274656413
:101140000053746F70207072696E7400526573750D
:101150006D65207072696E7400506F7765722D4CEA
:101160006F7373205265636F76657279203F005309
:10117000746F7720424C546F756368004D3238307D
:1011800020503020533930004465706C6F79204214
:101190004C546F756368004D323830205030205306
:1011A000313000424C546F7563682053656C662D76
:1011B00054657374004D3238302050302053313232
:1011C0003000526573657420424C546F756368003B
:1011D0004D3238302050302053313630004D616967
:1011E0006E00496E69742E2054462063617264005B
:1011F0004D3231004E6F20544620636172640043CB
:1012000068616E67652054462063617264004D32E8
:1012100031005072696E742066726F6D2054460002
:1012200053746F70207072696E7400526573756DBF
:1012300065207072696E74005061757365207072FC
:10124000696E740053746F70207072696E7400520E
:101250006573756D65207072696E740041626F759B
:1012600074205072696E74657200506175736520E8
:101270007072696E7400436F6E74726F6C0050729E
:1012800065706172650054756E6500496E666F2009
:1012900073637265656E00466C6F7700466C6F779E
:1012A0000046616E2073706565640046616E207350
:1012B000706565640042656400426564004E6F7A43
:1012C0007A6C65004E6F7A7A6C6500537065656460
:1012D000005370656564004D61696E005072656809
:1012E00065617420504C412042656400507265680D
:1012F00065617420504C4120456E640050726568F1
:1013000065617420504C41005072657061726500D7
:1013100050726568656174204142532042656400E3
:10132000507265686561742041425320456E6400C7
:101330005072656865617420414253005072657057
:1013400061726500473238005072656865617420CB
:10135000504C4100436F6F6C646F776E0050726544
:1013600068656174204142530044697361626C6531
:10137000207374657070657273004D383400426577
:1013800064204C6576656C696E67004732380A47A1
:101390003239004175746F20686F6D65004D6F764E
:1013A000652061786973004D61696E004D6F7665E7
:1013B0002058004D6F76652059004D6F7665205A94
:1013C000004578747275646572004D6F76652030E3
:1013D0002E316D6D004D6F766520316D6D004D6F56
:1013E00076652031306D6D004D6F766520617869CE
:1013F00073004578747275646572004D6F76652070
:101400005A004D6F76652059004D6F766520580063
:101410004578747275646572004D6F7665205A0068
:101420004D6F76652059004D6F76652058005072DB
:101430006570617265004C6F6164207365747469D6
:101440006E677300496E697469616C697A652045DD
:101450004550524F4D0053746F726520736574741C
:10146000696E677300424C546F7563680046696C1F
:10147000616D656E74004D6F74696F6E0054656DBB
:101480007065726174757265004D61696E005072AD
:1014900065686561742041425320636F6E66005039
:1014A00072656865617420504C4120636F6E660000
:1014B00046616E2073706565640046616E207370CE
:1014C0006565640042656400426564004E6F7A7A27
:1014D0006C65004E6F7A7A6C6500436F6E74726F44
:1014E0006C0053746F72652073657474696E6773F2
:1014F0000042656400426564004E6F7A7A6C650054
:101500004E6F7A7A6C650046616E20737065656413
:101510000046616E2073706565640054656D70658A
:10152000726174757265005654726176206D696ED1
:10153000005654726176206D696E00566D696E00BA
:10154000566D696E00566D6178204500566D617864
:10155000204500566D6178205A00566D6178205AFA
:1015600000566D6178205900566D617820590056FB
:101570006D6178205800566D61782058004D6F7469
:10158000696F6E00416D6178204500416D61782082
:101590004500416D6178205A00416D6178205A0004
:1015A000416D6178205900416D6178205900416D8D
:1015B0006178205800416D6178205800412D747287
:1015C0006176656C00412D74726176656C00412D09
:1015D0007265747261637400412D72657472616327
:1015E0007400416363656C00416363656C004D6F1B
:1015F00074696F6E0056652D6A65726B0056652DB5
:101600006A65726B00567A2D6A65726B00567A2D88
:101610006A65726B0056792D6A65726B0056792D7A
:101620006A65726B0056782D6A65726B0056782D6C
:101630006A65726B004D6F74696F6E0045737465F7
:1016400070732F6D6D004573746570732F6D6D0031
:101650005A73746570732F6D6D005A73746570736F
:101660002F6D6D005973746570732F6D6D00597314
:10167000746570732F6D6D005873746570732F6D82
:101680006D005873746570732F6D6D004D6F7469C4
:101690006F6E0053746570732F6D6D004A65726BC9
:1016A00000416363656C65726174696F6E005665B5
:1016B0006C6F63697479005A204F666673657400B5
:1016C0005A204F666673657400436F6E74726F6C58
:1016D0000046696C2E204469612E0046696C2E20FC
:1016E0004469612E004F6666004F6E2000452069F8
:1016F0006E206D6D3300436F6E74726F6C004361CA
:101700006E6E6F7420656E746572207375626469A5
:10171000723A2000022E2E000152656672657368CF
:10172000004D61696E004D61782054656D703A20FE
:10173000313235004D696E2054656D703A203500A8
:10174000544265643A4550434F53203130304B008A
:101750004D61782054656D703A20323735004D69FF
:101760006E2054656D703A20350054303A20455053
:10177000434F53203130304B005053553A204154A1
:10178000580050726F746F636F6C3A20312E3000C6
:10179000426175643A20313135323030004D656C2C
:1017A0007A692028437265616C69747929004269FD
:1017B0006C696E656172204C6576656C696E670058
:1017C0004578747275646572733A20310077777763
:1017D0002E637265616C69747933642E636E0045A3
:1017E0006E6465722D354800323031392D30342D1C
:1017F000313200312E312E36424C5F5633004D616E
:10180000726C696E00434F4D4D554E4943415449EA
:101810004F4E0044525952554E004552524F52536A
:1018200000494E464F004543484F004B494C4C45FC
:10183000442E200053544F505045442E20005072E7
:10184000696E7465722073746F707065642064755E
:101850006520746F206572726F72732E20466978EE
:1018600020746865206572726F7220616E642075E5
:101870007365204D39393920746F20726573746136
:1018800072742E202854656D70657261747572656E
:101890002069732072657365742E20536574206906
:1018A0007420616674657220726573746172746904
:1018B0006E67290A004E6F204C696E65204E756D6B
:1018C000626572207769746820636865636B7375FD
:1018D0006D2C204C617374204C696E653A20004E6B
:1018E0006F20436865636B73756D2077697468203A
:1018F0006C696E65206E756D6265722C204C61732B
:1019000074204C696E653A2000636865636B73757B
:101910006D206D69736D617463682C204C61737404
:10192000204C696E653A20004C696E65204E756DDD
:10193000626572206973206E6F74204C617374202D
:101940004C696E65204E756D6265722B312C204C92
:10195000617374204C696E653A20004D313130005E
:101960004D3331004D383420582059205A2045003D
:1019700054462072656164206572726F720A004479
:101980006F6E65207072696E74696E672066696C2F
:10199000650A0020496E76616C696420657874720E
:1019A00075646572200053544F505045442E2000FA
:1019B0005072696E7465722073746F707065642004
:1019C00064756520746F206572726F72732E204685
:1019D000697820746865206572726F7220616E6428
:1019E00020757365204D39393920746F2072657305
:1019F000746172742E202854656D706572617475FF
:101A000072652069732072657365742E2053657446
:101A100020697420616674657220726573746172E6
:101A200074696E67290A0053544F502063616C6CCF
:101A300065642062656361757365206F6620424C42
:101A4000546F756368206572726F72202D20726505
:101A500073746172742077697468204D3939390A5A
:101A60000047302046333630302058313135205948
:101A70003131320042696C696E656172204C657665
:101A8000656C696E6720477269643A0A0020706F5E
:101A9000736974696F6E206F7574206F6620726150
:101AA0006E67652E0A003F50726F62652000486FB6
:101AB0006D65202573257325732066697273740024
:101AC0002066697273740A005A0059005800486F02
:101AD0006D65200052756E6E696E6720696E2044D8
:101AE00052592D52554E206D6F64650A00473239A8
:101AF000204175746F20426564204C6576656C6981
:101B00006E670A0028422961636B00284629726FBC
:101B10006E74002852296967687400284C2965662C
:101B200074003F2856296572626F7365206C657674
:101B3000656C20697320696D706C61757369626C86
:101B4000652028302D34292E0A00426164205A2055
:101B500076616C75650A004E6F2062696C696E650E
:101B6000617220677269640A0044656C6574696F0C
:101B70006E206661696C65642C2046696C653A204C
:101B80000046696C652064656C657465643A006F35
:101B900070656E206661696C65642C2046696C65B1
:101BA0003A2000202F002042403A0020403A0048CE
:101BB000656174696E6720646F6E652E0020573A08
:101BC00000457874727564657220257300426564FF
:101BD00020646F6E652E0020573A004265642048ED
:101BE000656174696E672E00205A3A0020593A00E8
:101BF00020436F756E7420583A0020453A00205AF1
:101C00003A0020593A00583A0023646566696E65C7
:101C1000202044454641554C545F4B6420002364CA
:101C20006566696E65202044454641554C545F4BBE
:101C300069200023646566696E652020444546413D
:101C4000554C545F4B702000504944204175746FCF
:101C500074756E652066696E6973686564212050CD
:101C6000757420746865206C617374204B702C202F
:101C70004B6920616E64204B6420636F6E737461E6
:101C80006E74732066726F6D2062656C6F77206969
:101C90006E746F20436F6E66696775726174696FE9
:101CA0006E2E680A00504944204175746F74756E39
:101CB00065206661696C6564212074696D656F7566
:101CC000740A00504944204175746F74756E652024
:101CD0006661696C6564212054656D70657261741C
:101CE00075726520746F6F20686967680A00204B01
:101CF000643A2000204B693A2000204B703A2000C3
:101D00000A20436C617373696320504944200A00C0
:101D10002054753A2000204B753A2000206D6178E0
:101D20003A2000206D696E3A200020643A2000209D
:101D3000626961733A2000536C6565702E2E2E0027
:101D4000473238205A20466F7262696464656E0AB1
:101D500000473238205A20466F7262696464656EAB
:101D600000205A3A200020593A2000426564205849
:101D70003A20004D65736820706F696E742063614E
:101D80006E6E6F74206265207265736F6C76656429
:101D90000A00456E6465722D35482072656164796C
:101DA0002E00526573756D696E67207072696E746E
:101DB00000436C69636B20746F20726573756D6589
:101DC0002E2E2E004E6F206D6F76652E00456E64B0
:101DD0002066696C65206C6973740A0042656769E6
:101DE0006E2066696C65206C6973740A0054462025
:101DF0007072696E74696E67206279746520004E36
:101E00006F74205446207072696E74696E670A00A0
:101E10002569730025696D2025697300256968208F
:101E200025696D202569730025696420256968206E
:101E300025696D202569730025697920256964204D
:101E40002569682025696D20256973005072696EC7
:101E5000742074696D653A200050726F7465637404
:101E600065642050696E0A00457874727564657205
:101E7000202573006F666600261821181A1813189B
:101E8000051844454255473A004B494C4C45442EB1
:101E900020004D3131332053006F6B00456E646577
:101EA000722D3548204F66662E004361703A454DCD
:101EB000455247454E43595F5041525345523A307F
:101EC0000A004361703A434153455F4C49474854C7
:101ED0005F4252494748544E4553533A300A0043F3
:101EE00061703A544F47474C455F4C4947485453FB
:101EF0003A300A004361703A534F465457415245B5
:101F00005F504F5745523A300A004361703A4C4592
:101F100056454C494E475F444154413A310A0043CB
:101F200061703A5A5F50524F42453A310A0043615C
:101F3000703A4155544F4C4556454C3A310A00438E
:101F400061703A5052494E545F4A4F423A310A004A
:101F50004361703A50524F47524553533A300A004A
:101F60004361703A4155544F5245504F52545F545B
:101F7000454D503A310A004361703A454550524F41
:101F80004D3A310A004649524D574152455F4E4144
:101F90004D453A4D61726C696E20437265616C69A2
:101FA000747920334420534F555243455F434F4487
:101FB000455F55524C3A68747470733A2F2F6769B5
:101FC000746875622E636F6D2F4D61726C696E4619
:101FD00069726D776172652F4D61726C696E205008
:101FE000524F544F434F4C5F56455253494F4E3A10
:101FF000312E30204D414348494E455F545950459C
:102000003A456E6465722D35482045585452554402
:1020100045525F434F554E543A3120555549443A45
:1020200031326135633632662D343330332D3439F5
:1020300035622D623133632D38393934653036627B
:10204000393734330A002F2F20007A5F6D696E3ADA
:102050002000795F6D696E3A2000785F6D696E3A95
:1020600020005265706F7274696E6720656E6473CC
:10207000746F70207374617475730A004D31343558
:1020800020533C696E6465783E206F7574206F66DE
:102090002072616E67652028302D31290A00536552
:1020A0007474696E672054726176656C2041636355
:1020B000656C65726174696F6E3A20005365747463
:1020C000696E672052657472616374204163636551
:1020D0006C65726174696F6E3A200053657474693F
:1020E0006E67205072696E7420416363656C65721F
:1020F0006174696F6E3A200053657474696E67206D
:102100005072696E7420616E642054726176656CE1
:1021100020416363656C65726174696F6E3A20007B
:10212000205A00205900580020204D61783A2000A4
:10213000205A00205900580020204D696E3A200096
:102140004F6E20004F666600536F667420656E64A4
:1021500073746F70733A200000010F150E12FF1692
:10216000170E13FF03021A14FFFFFF0C04FFFFFFFB
:1021700001000EFFFF0C190DFF18FFFFFFFFFFFF0F
:102180003A200020536572766F2000206F7574200E
:102190006F662072616E67650A00536572766F2004
:1021A0000020643A0020693A0020703A0043290A6E
:1021B0000061626C656420286D696E2074656D70C5
:1021C0002000436F6C6420657874727564657320B9
:1021D00061726520004F66660A00466164652048AA
:1021E00065696768742000426564204C6576656C9B
:1021F000696E6720004661696C656420746F2065B4
:102200006E61626C6520426564204C6576656C6920
:102210006E670A004D65736820706F696E74206385
:10222000616E6E6F74206265207265736F6C766587
:10223000640A004D34323120696E636F72726563D7
:102240007420706172616D65746572207573616769
:10225000650A003A20007A5F6D696E3A20202D32BF
:1022600030207A5F6D61783A20203230005A204F5A
:10227000666673657420004E6F2063617365206C21
:10228000696768740A0041637469766520457874EB
:1022900072756465723A2000556E6B6E6F776E20B2
:1022A000636F6D6D616E643A202200526573656ED6
:1022B000643A20006F6B0020636F6C642065787453
:1022C000727573696F6E2070726576656E74656481
:1022D0000A00627573793A207061757365642066CF
:1022E0006F7220696E7075740A00627573793A2096
:1022F00070617573656420666F7220757365720A0C
:1023000000627573793A2070726F63657373696EDA
:10231000670A004B494C4C45442E20004B494C4C1D
:102320002063617573656420627920746F6F206D1E
:1023300075636820696E6163746976652074696D80
:1023400065202D2063757272656E7420636F6D6DEC
:10235000616E643A2000506C65617365207265732C
:102360006574005052494E5445522048414C5445E2
:1023700044005072696E7465722068616C746564A3
:102380002E206B696C6C28292063616C6C6564215C
:102390000A0062696E004D31313720494E56414C7A
:1023A000494420444154412E004D31313720507270
:1023B000696E74696E672E2E2E004730205A257381
:1023C00000473238205830205930004730205A25F5
:1023D0007300473932205A257320452573006269FE
:1023E0006E00000000000000000000000000ABAA2A
:1023F0002642ABAA26420000804000000000576140
:10240000726E696E673A20486F6D696E672042751B
:102410006D702044697669736F72203C20310A0028
:102420000202040000A0400000A0400000004000A4
:102430000061430000614300809843FFFFFF7C3C44
:102440003E5E2B3D3F2F5B5D3B2C2A225C0045729C
:10245000726F722077726974696E6720746F20459D
:102460004550524F4D210A00546865726D6973746E
:102470006F727300426F61726420496E666F005024
:1024800072696E74657220496E666F004D61696E87
:102490000000002100240027002A0000002200255F
:1024A0000028002B00000020002300260029000245
:1024B00002020202020202040404040404040403EB
:1024C00003030303030303010101010101010101EE
:1024D00002040810204080010204081020408001FE
:1024E00002040810204080804020100804020100EF
:1024F0000000010200090A000000000403080700B0
:1025000000000000000000000000000000000020AB
:1025100020506C616E6E65724275666665724279B6
:102520007465733A20002046726565204D656D6FB5
:1025300072793A2000436F6D70696C65643A204D82
:10254000617920313720323032300A00207C20413E
:102550007574686F723A2028486172746669656C98
:1025600064290A00323031392D30342D31320020C7
:102570004C61737420557064617465643A20003155
:102580002E312E36424C5F56330A004D61726C6913
:102590006E0020536F6674776172652052657365B3
:1025A000740A00205761746368646F672052657312
:1025B00065740A002042726F776E206F7574205226
:1025C000657365740A002045787465726E616C20CD
:1025D00052657365740A00506F77657255700A0012
:1025E00073746172740A006572726F722077726917
:1025F00074696E6720746F2066696C650A00456EA9
:102600006473746F70732025632025632025632015
:10261000256300205A3A0020593A0020583A0065B4
:102620006E6473746F7073206869743A2000446F2D
:102630006E6520736176696E672066696C652E0A27
:10264000004D32390050726F62696E6720666169B1
:102650006C65640A0050726F62696E67206661691A
:102660006C656400205A3A200020593A20004265E7
:102670006420583A20002E0A0044656C6574696F26
:102680006E2862696E29206661696C65640046691E
:102690006C652862696E292064656C6574656400E8
:1026A00057726974696E6720746F2066696C653A49
:1026B00020006F70656E206661696C65642C204631
:1026C000696C653A20006F70656E206661696C65A3
:1026D000642C2046696C653A200046696C6520735D
:1026E000656C65637465640A002053697A653A20F5
:1026F0000046696C65206F70656E65643A20006FF6
:1027000070656E206661696C65642C2046696C6535
:102710003A20002066696C653A20004E6F772000F1
:102720002220706F73002220706172656E743A22ED
:1027300000535542524F5554494E452043414C4C4D
:10274000207461726765743A22004B494C4C4544D1
:102750002E2000747279696E6720746F2063616C3B
:102760006C207375622D67636F64652066696C65A4
:1027700073207769746820746F6F206D616E7920A3
:102780006C6576656C732E204D4158206C657665BE
:102790006C2069733A0043616E6E6F74206F7065D0
:1027A0006E20737562646972200054462063617202
:1027B00064206F6B0A006F70656E526F6F742066D5
:1027C00061696C65640A00766F6C756D652E696E63
:1027D0006974206661696C65640A004572726F7283
:1027E0003A00544620696E6974206661696C0A007B
:1027F0006175746F25692E67004D3234004D323398
:1028000020257300656E7175657565696E67202298
:10281000006563686F3A002E0A006F70656E20666F
:1028200061696C65642C2046696C653A20005772BA
:102830006974696E6720746F2066696C653A200060
:1028400000060900FE070192032120FFFF08FF0791
:10285000FF000000060000010707060200808080DC
:1028600080800080030202060105A0A0050707067C
:1028700000005050F850F85050050707060000209F
:1028800078A07028F020050707060000C0C81020B7
:102890004098180507070600006090A040A89068BF
:1028A000020303060104C04080030707060100205D
:1028B00040808080402003070706010080402020E0
:1028C00020408005050506000120A870A820050508
:1028D000050600012020F820200203030602FFC0A5
:1028E0004080050101060003F8020202060200C052
:1028F000C0050505060001081020408005070706F1
:1029000000007088888888887003070706010040E7
:10291000C040404040E0050707060000708808708E
:102920008080F8050707060000F81020100808F05E
:1029300005070706000010305090F8101005070733
:10294000060000F880F008088870050707060000F8
:10295000708080F0888870050707060000F808106E
:1029600020202020050707060000708888708888CE
:10297000700507070600007088887808087002054F
:1029800005060200C0C000C0C00206060602FFC065
:10299000C000C040800407070600001020408040AF
:1029A0002010050303060002F800F80407070601DB
:1029B0000080402010204080050707060000708836
:1029C000081020002005070706000070880868A886
:1029D000A870050707060000708888F888888805B1
:1029E0000707060000F08888F08888F005070706CA
:1029F000000070888080808870050707060000F05E
:102A00008888888888F0050707060000F88080F02D
:102A10008080F8050707060000F88080F08080803D
:102A2000050707060000708880B8888870050707CA
:102A3000060000888888F888888801070706020051
:102A40008080808080808005070706000038101095
:102A5000101090600507070600008890A0C0A090A5
:102A600088050707060000808080808080F80507C1
:102A70000706000088D8A888888888050707060008
:102A8000008888C8A898888805070706000070880D
:102A90008888888870050707060000F08888F0801D
:102AA000808005070706000070888888A890680560
:102AB0000707060000F08888F0A090880507070641
:102AC0000000788080700808F0050707060000F80D
:102AD00020202020202005070706000088888888FD
:102AE0008888700507070600008888888888502035
:102AF0000507070600008888888888A8500507070A
:102B000006000088885020508888050707060000C6
:102B100088888850202020050707060000F8081044
:102B2000204080F8030707060100E0808080808055
:102B3000E005050506000180402010080307070690
:102B40000100E02020202020E005030306000420EF
:102B50005088050101060000F80202020602058005
:102B60004005050506000070087888780507070607
:102B700000008080B0C88888F00505050600007058
:102B80008080887005070706000008086898888814
:102B9000780505050600007088F8807005070706AF
:102BA00000003048E0404040400506060600FF7047
:102BB00088887808700507070600008080B0C888FC
:102BC00088880107070602008000808080808003DB
:102BD00008080601FF200020202020A0400407074D
:102BE000060000808090A0C0A090030707060100A7
:102BF000C04040404040E0050505060000D0A8A8C0
:102C0000A8A8050505060000B0C888888805050540
:102C100006000070888888700506060600FFF088A8
:102C200088F080800506060600FF78888878080806
:102C3000050505060000B0C8808080050505060072
:102C40000070807008F00407070600004040E04074
:102C5000404030050505060000888888986805050D
:102C600005060000888888502005050506000088B4
:102C700088A8A85005050506000088502050880542
:102C800006060600FF888888780870050505060096
:102C900000F8102040F8030707060100204040809C
:102CA00040402001070706020080808080808080ED
:102CB00003070706010080404020404080050202D3
:102CC00006000268900000000600000000000600F8
:102CD00000000000060000000000060000000000E8
:102CE00006000000000006000000000006000000D2
:102CF00000000600000000000600000000000600C2
:102D000000000000060000000000060000000000B7
:102D100006000000000006000000000006000000A1
:102D20000000060000000000060000000000060091
:102D30000000000006000000000006000000000087
:102D40000600000000000600000000000600000071
:102D50000000060000000000060000000000060061
:102D60000000000006000000000006000000000057
:102D70000600000000000600000000000600000041
:102D80000000060000000000060000000000060031
:102D90000001070706020080008080808080050710
:102DA000070600002070A8A0A870200507070600ED
:102DB00000304040E04050A805050506000088703E
:102DC000507088050707060000885020F820F8207A
:102DD00001070706020080808000808080050808C7
:102DE0000600003048205050209060030101060189
:102DF00007A0050707060000F888B8B8B888F805E6
:102E00000707060001700878887800F805050506B0
:102E100000012850A05028050303060001F8080807
:102E20000202020602064080050707060000F88835
:102E3000A88898A8F8050101060006F8040404060D
:102E40000003609090600507070600002020F8202E
:102E50002000F804050506000360902040F00305FB
:102E600005060003E020E020E00202020602064020
:102E7000800508080600FF8888888898E880800513
:102E800007070600007898987818181802020206BA
:102E90000202C0C00202020602FF408003050506CE
:102EA000000340C04040E005070706000170888825
:102EB000887000F8050505060001A0502850A005FF
:102EC00007070600008890A858B8080805070706F5
:102ED00000008890B848982038050808060000C00F
:102EE00040C048D838080805070706000020002021
:102EF000408088700508080600004020007088F8AF
:102F000088880508080600001020007088F8888866
:102F10000508080600002050007088F88888050819
:102F2000080600006890007088F888880508080680
:102F300000005000708888F888880508080600009E
:102F40002050207088F88888050707060000386040
:102F5000A0B8E0A0B80508080600FF708880808847
:102F6000702060050808060000402000F880F0800E
:102F7000F8050808060000081000F880F080F80541
:102F80000808060000205000F880F080F8050707C8
:102F90000600005000F880F080F8030808060100E1
:102FA000804000E0404040E0030808060100204067
:102FB00000E0404040E003080806010040A000E0B7
:102FC000404040E0030707060100A000E040404009
:102FD000E0050707060000704848E8484870050803
:102FE0000806000068900088C8A8988805080806A8
:102FF0000000402070888888887005080806000056
:103000001020708888888870050808060000205005
:1030100000708888887005080806000068900070B5
:103020008888887005080806000050007088888825
:10303000887005050506000188502050880508089D
:103040000600FF1070A8A8A8A87040050808060090
:1030500000402088888888887005080806000010CD
:10306000208888888888700508080600002050009D
:1030700088888888700508080600005000888888BD
:10308000888870050808060000102088502020203D
:10309000200509090600FFC040704848704040E024
:1030A0000408080601FF609090A09090E080050859
:1030B0000806000040200070087888780508080697
:1030C00000001020007008788878050808060000C5
:1030D000205000700878887805080806000068907D
:1030E000007008788878050707060000500070080F
:1030F0007888780508080600002050207008788835
:1031000078050606060000D02878A0A85005060617
:103110000600FF70808870206005080806000040E7
:1031200020007088F8807005080806000010200054
:103130007088F8807005080806000020500070882C
:10314000F8807005070706000050007088F880704E
:1031500003080806010080400040C04040E003082A
:103160000806010020400040C04040E00308080677
:10317000010040A00040C04040E0030707060100F6
:10318000A00040C04040E0050707060000A040A0A6
:1031900010788870050808060000689000B0C8889C
:1031A000888805080806000040200070888888701C
:1031B000050808060000102000708888887005083F
:1031C00008060000205000708888887005080806EE
:1031D0000000689000708888887005070706000066
:1031E000500070888888700505050600012000F8E9
:1031F00000200507070600FF1070A8A8A87040056A
:10320000080806000040200088888898680508089B
:1032100006000010200088888898680508080600C5
:10322000002050008888889868050707060000502D
:103230000088888898680509090600FF1020008822
:103240008888F808700407070601FFC040605060D6
:1032500040E00508080600FF50008888887808705C
:1032600000060900FE000000000001090008FE0041
:103270000005080806000040F0C888889878100506
:103280000808060000C0F88888888888F8050505C1
:103290000600012030F830200508080600002070E4
:1032A000F820202020E00509090600FF2070A8A8CA
:1032B000B8888870200509090600FFE080C0B0A822
:1032C000283028280509090600FFF8A8888888887A
:1032D00088A8F8050A0A0600FE205050505088A819
:1032E000A8887003030306000340A0409BE742E563
:1032F00011241FBECFEFD0E4DEBFCDBF13E0A0E0AE
:10330000B1E0ECE9F8EF01E00BBF02C007900D92CD
:10331000A43CB107D9F72AE1A4ECB3E001C01D92A7
:10332000A234B207E1F719E1C7E7D9E104C0219758
:10333000FE010E94B6FBC637D107C9F70E94B8E864
:103340000C9441FC0C94000011980000000087FDD3
:1033500052C0419800000000119A0000000011982E
:103360000000000086FD53C0419800000000119A43
:103370000000000011980000000085FD46C0419843
:1033800000000000119A00000000119800000000E9
:1033900084FD39C0419800000000119A000000002F
:1033A00011980000000083FD2CC04198000000002F
:1033B000119A0000000011980000000082FD1FC05B
:1033C000419800000000119A0000000011980000D0
:1033D000000081FD12C0419800000000119A000019
:1033E0000000119800000000419800000000119AB0
:1033F000000000000895419AADCF419AEDCF419A67
:10340000E0CF419AD3CF419AC6CF419AB9CF419AE2
:10341000ACCF880F991F880F991FFC01EB53F74F12
:1034200040815181628173818D5B904FFC014083AB
:10343000518362837383E091C308F091C408828949
:103440009389A489B5898093800990938109A09379
:103450008209B09383090895EF92FF920F931F930F
:10346000CF93DF93E090C308F090C408F701828106
:103470009381A481B581181619061A061B06E4F477
:1034800080917B0980FF18C08091520996B192FB10
:10349000992790F98E7F892780935209909151093D
:1034A0009170892349F080914F0F816080934F0F75
:1034B00090E080E00E94091AF70186819781A0853B
:1034C000B185181619061A061B0614F580917B099A
:1034D00081FF1EC08091520996B193FB002700F92D
:1034E00010E0119501951109082702701127802716
:1034F00080935209009151090270082349F080918C
:103500004F0F826080934F0F81E090E00E94091A74
:10351000F70182859385A485B585181619061A06C4
:103520001B063CF580917B0982FF23C080912A0F06
:103530008823F9F08091520996B192959170C92F24
:10354000F0E0DF2FD195C195D109C827C470DD27E0
:103550008C2780935209C0915109C470C82349F047
:1035600080914F0F846080934F0F82E090E00E9423
:10357000091A8091520980935109DF91CF911F91CF
:103580000F91FF90EF9008950C9446C40C94C2CA1A
:10359000CF92DF92EF92FF92CF93C82F0E94B6CACC
:1035A0006B017C0124EA30E74DE75FE360910F0A8D
:1035B0007091100A8091110A9091120A0E94C9F22A
:1035C00087FD18C08AEF90E0A0E0B0E08C0D9D1D53
:1035D000AE1DBF1D80930A0F90930B0FA0930C0F8D
:1035E000B0930D0FC0933D01CF91FF90EF90DF900E
:1035F000CF90089580E090E0DC01E8CFEF92FF9259
:103600000F931F93CF93DF93CDB7DEB7AE970FB66F
:10361000F894DEBF0FBECDBF7E018FE1E80EF11C36
:1036200080E1F70111928A95E9F76091040A70919F
:10363000050A8091060A9091070A870122E043E07B
:103640000E94C5EDF80181918F01882319F00E9435
:10365000D78CF8CF8AE00E94D78C02E212E0F80102
:1036600081918F01882319F00E94D78CF8CF8AE0CE
:103670000E94D78C80911B0F90911C0F8E010F5FC1
:103680001F4F181619060CF050C0809106108F932A
:10369000809105108F938AE291E19F938F931F93FE
:1036A0000F930E9460F2C8010E94AAC28091041088
:1036B0008F93809103108F9381E291E19F938F9379
:1036C0001F930F930E9460F2C8010E94AAC287E173
:1036D00091E19093401480933F140E94588B81E0B5
:1036E00090E090931E0F80931D0F0FB6F894DEBFED
:1036F0000FBECDBF80916E16882319F081E08093B4
:103700006D160E94B3CC6FEF8DEF90E10E9491DABD
:10371000AE960FB6F894DEBF0FBECDBFDF91CF914E
:103720001F910F91FF90EF9008958091030A8F935E
:103730008091020A8F938EE091E19F938F931F9364
:103740000F930E9460F2C8010E94AAC28091010AF0
:103750008F938091000A8F9385E091E19F938F93DF
:103760001F930F930E9460F2C8010E94AAC2FF92A9
:10377000EF928EEF90E19F938F931F930F930E9490
:1037800060F2C8010E94AAC2B0CF9F92AF92BF92CE
:10379000CF92DF92EF92FF920F931F93CF93DF931D
:1037A0005B01E9014A3009F4B0C0453109F063C05A
:1037B000DB011296ED91FC91F280C681D781139ABC
:1037C00088E290E00197F1F7EF2CE29420EFE222FB
:1037D00030E1932E9F0C48E2C42ED12C0E94A6C546
:1037E000C6010197F1F7BFE1BF1508F47BC08F2D2B
:1037F000807780680E94A4198E2D0E94A419C601AA
:103800000197F1F70E9414C50E945DC5C60101979A
:10381000F1F70E94CBC4C6010197F1F78E01005F5A
:103820001F4F8881807F0E94A41989918295807F93
:103830000E94A419C017D107A1F7C6010197F1F79B
:10384000F394E0E1EE0EF910C9CF1398D50112966A
:10385000CD91DC91CE010E946DCD81113CC1DF91F3
:10386000CF911F910F91FF90EF90DF90CF90BF907D
:10387000AF909F900895FB0102811381423309F4B8
:10388000E5C008F4E9C0463409F4D6C0473409F469
:10389000D9C04B3329F589812B81D80112967C91AF
:1038A000129713963C91213009F42CC1233009F072
:1038B000F6C048EF480F582F91E0341708F490E015
:1038C00031E0541708F030E0492F432B61E05717DF
:1038D00008F460E0462309F00AC1932309F007C108
:1038E00081E0BDCF80EE8F0D8068807F0E94A4199B
:1038F0008F2D8295807F0E94A419C6010197F1F750
:103900000E9414C50E9414C581CF0B9A1398399A4E
:103910004198099A119A139A88E290E00197F1F779
:1039200088E790E0CEE9DFE0FE013197F1F70197FB
:10393000D9F70E94A6C508E210E0C8010197F1F787
:103940000E945DC50E9414C5C8010197F1F70E944D
:103950005DC580E10E94A419C8010197F1F7CE016D
:103960000197F1F7CE010197F1F7CE010197F1F739
:10397000CE010197F1F7CE010197F1F7CE01019742
:10398000F1F7CE010197F1F7CE010197F1F7CE01E2
:103990000197F1F7CE010197F1F7CE010197F1F709
:1039A000CE010197F1F7CE010197F1F7CE01019712
:1039B000F1F72197F1F780E30E94A41980EE0E94AD
:1039C000A419C8010197F1F7F12CD0E08D2F807771
:1039D00080680E94A4198F2D0E94A419C801019724
:1039E000F1F70E9414C50E945DC5C8010197F1F767
:1039F0000E94CBC4C8010197F1F7C0E20E945DC5E7
:103A00000E945DC5C8010197F1F7C150B9F70E9446
:103A1000A6C5C8010197F1F7DF5F80E1F80ED0324B
:103A2000A9F60E945DC580EC0E94A419C801019707
:103A3000F1F7139881E013CFD80115968C91888304
:103A400081E00DCFF80181818883FACFB901C801E7
:103A50000E9457CD81E003CF443171F0473109F026
:103A60003FCF1882F80182818983858181508A83C2
:103A700083818B8381E0F3CED80115964C91159705
:103A800050E0440F551F70E060E016968D919C91B8
:103A90000E94E4FBC8010E9483CD81E0E0CE38178C
:103AA00008F41ECF871708F41BCFFA80E12CD12C25
:103AB000243070F41DC0BE01C8010E9457CD898119
:103AC00098819D0D98838E0D8983FF0C09F408CF92
:103AD000F7FEF6CFF0CF4D8150E0440F551F70E058
:103AE00060E08E819F810E94E4FB81E0B8CEFA8085
:103AF00030E0F901E652FE4FD0802A523E4FF901E4
:103B0000E080E6CF58E0580F482FD6CEDF92EF92F4
:103B1000FF920F931F93CF93DF93EC01D62E1CAD32
:103B20000BAD7C0184E0E80EF11CE98DFA8DC70134
:103B30000995412F480F2D2D602FC7010E9412D0EB
:103B40009BAD890F8BAF81E090E0DF91CF911F910A
:103B50000F91FF90EF90DF9008954F925F926F92D8
:103B60007F92AF92BF92CF92DF92EF92FF920F932C
:103B70001F93CF93DF938C01EB01FC0147A050A46E
:103B800061A472A4AFA0B8A4C9A4DAA49501A60147
:103B9000C301B2010E94C9F287FF3EC0A301920196
:103BA000C301B2010E942FF32B013C01F80163A96C
:103BB00074A985A996A990589B01AC010E9475F93A
:103BC000F80127A530A941A952A90E942FF39B0112
:103BD000AC01C301B2010E9474F90E9436FB7B0163
:103BE0008C019B01AC01B501C6010E94C9F287FF9F
:103BF00002C0750186019701A801B501C6010E94A6
:103C0000C9F2882349F0C701D8018FA398A7A9A7B3
:103C1000BAA7888181608883DF91CF911F910F912E
:103C2000FF90EF90DF90CF90BF90AF907F906F901C
:103C30005F904F9008954F925F926F927F928F9214
:103C40009F92AF92BF92CF92DF92EF92FF92CF936B
:103C5000DF93CDB7DEB76A970FB6F894DEBF0FBE1D
:103C6000CDBF9A8F898F5B014A01DC01D7966D9198
:103C70007D918D919C91DA970E94CEF26B017C012F
:103C8000F50120813181428153810E942FF30E94EE
:103C9000E1F90E9471FA3B015C01D4012D913D9143
:103CA0004D915C91C701B6010E942FF30E94E1F98A
:103CB0000E9471FA6D827E82AF82B8862D813E812C
:103CC0004F815885283731054105510540F428E7D3
:103CD00030E040E050E02D833E834F835887698376
:103CE0007A838B839C8389819A81AB81BC8188375D
:103CF0009105A105B10540F428E730E040E050E02F
:103D000029833A834B835C83E98DFA8DED5BFF4F0A
:103D100080819181A281B3818D879E87AF87B88B87
:103D2000BC01CD010E94D0F269877A878B879C877E
:103D30006D817E818F8198850E94CEF2698B7A8B0E
:103D40008B8B9C8B20E030E0A90169857A858B857F
:103D50009C850E94C9F2882309F432C1A70196010B
:103D6000C701B6010E942FF34B015C0129893A89F2
:103D70004B895C89CA01B9010E942FF39B01AC01F8
:103D8000C501B4010E9474F94B015C0129853A8593
:103D90004B855C85CA01B9010E9475F99B01AC0194
:103DA000C501B4010E94F8F90E94E1F90E946AFA83
:103DB0002B013C016D857E858F8598899095809536
:103DC000709561957F4F8F4F9F4F0E94D0F24B01AE
:103DD0005C0169817A818B819C810E94CEF26D8722
:103DE0007E878F87988B20E030E0A901C501B40160
:103DF0000E94C9F2882309F4E7C02D853E854F85CE
:103E00005889CA01B9010E942FF36D8B7E8B8F8B6D
:103E1000988FA7019601C701B6010E942FF39B015D
:103E2000AC016D897E898F89988D0E9474F96B0130
:103E30007C01A5019401C501B4010E9475F99B01A3
:103E4000AC01C701B6010E94F8F90E94A0FAA98D41
:103E5000BA8D52968D909D90AD90BC9055977501FE
:103E60006401C418D508E608F7080E946AFAC61A61
:103E7000D70AE80AF90AF7FE67C020E030E0A90196
:103E800069857A858B859C850E94C9F2882309F40F
:103E90009FC0C501B4010E94CEF26B017C0129854F
:103EA0003A854B855C85CA01B9010E9475F99B0171
:103EB000AC01C701B6010E942FF36B017C01298977
:103EC0003A894B895C89CA01B9010E942FF39B0191
:103ED000AC01C701B6010E9474F96B017C012D850C
:103EE0003E854F855889CA01B9010E942FF39B0175
:103EF000AC01C701B6010E9475F96B017C0120E09D
:103F000030E040E850E469857A858B859C850E9485
:103F10002FF39B01AC01C701B6010E94F8F90E9482
:103F2000E1F90E946AFA2B013C0177FE03C0412CA3
:103F3000512C3201481459046A047B0410F0240106
:103F40003501C12CD12C76018FB7F894E98DFA8D0B
:103F5000908193FD1FC0DF01468A578A608E718E63
:103F6000C40CD51CE61CF71CC28ED38EE48EF58ED5
:103F70002D813E814F81588523AF34AF45AF56AF79
:103F8000DF9629813A814B815C812D933D934D933E
:103F90005C9313978FBF6A960FB6F894DEBF0FBE7F
:103FA000CDBFDF91CF91FF90EF90DF90CF90BF908A
:103FB000AF909F908F907F906F905F904F900895FB
:103FC00060E070E0CB01F0CE60E070E0CB013DCF6F
:103FD00060E070E0CB01A3CF8091E9098630D8F48E
:103FE00096E0899FF0011124EB53F64F2091450193
:103FF00030914601318320834091590F50915A0FDF
:1040000060915B0F70915C0F42835383648375836F
:104010008F5F8093E9090895209145013091460111
:1040200028173907D9F090934601809345014093B2
:10403000590F50935A0F60935B0F70935C0F83502E
:104040009A4321F41092120F1092E90982E08093B2
:104050005A0181E08093090F1092180F089521E012
:104060002093120F60930F0A7093100A8093110A25
:104070009093120A40E050E0BA018091140A9091A6
:10408000150A0C940C2060E070E080E291E40C943E
:104090002F2060E070E080E89FE30C942F206DEC0F
:1040A0007CEC8CEC9DE30C942F2040E050E0BA01B6
:1040B00083E09AE30C940C20E091E909EE2389F067
:1040C000E150E093E90986E0E89FF0011124EB5309
:1040D000F64F4281538164817581808191810C9476
:1040E0000C200C945520CF93DF938091190F8823D7
:1040F00021F0DF91CF910C945C201092170F8091EA
:10410000590F90915A0FA0915B0FB0915C0F8130C5
:104110009048A105B10540F01092590F10925A0F26
:1041200010925B0F10925C0FC091590F8091230A7F
:10413000181604F5282F082E000C330B25503109D2
:104140004C2F0C2E000C550B421753079CF0CBEF55
:10415000C80F85300CF4C0E08C2F0C2E000C990B8E
:10416000AA0BBB0B8093590F90935A0FA0935B0F30
:10417000B0935C0FC093080FD0E0C11112C08091C2
:104180005A0121E041E06EEF77E1811114C0CF5F69
:10419000DF5FD53091F787E08093230ADF91CF91DD
:1041A0000895C13061F480915A0120E041E063EF4D
:1041B00077E1882361F38D2F0E94F8C8E8CFC230E1
:1041C00021F580915A0120E041E068EE77E18823F3
:1041D000F1F2F1CF80915A0120E041E06FED77E1FB
:1041E0008823A9F2E8CF80915A0120E041E06DECEC
:1041F00077E1882361F2DFCF80915A0120E041E02E
:1042000060EC77E1882319F2D6CFC33019F3C430BC
:1042100051F3C53089F3C63009F0B9CF80915A0106
:10422000882309F4B4CF20E041E06EEA77E1C3CF00
:10423000CF93DF938091190F882321F0DF91CF91E5
:104240000C945C201092170F8091590F90915A0F87
:10425000A0915B0FB0915C0F81309048A105B10532
:1042600040F01092590F10925A0F10925B0F10925B
:104270005C0FC091590F8091220A181604F5282F5F
:10428000082E000C330B255031094C2F0C2E000C3E
:10429000550B421753079CF0CBEFC80F85300CF439
:1042A000C0E08C2F0C2E000C990BAA0BBB0B80933B
:1042B000590F90935A0FA0935B0FB0935C0FC0936C
:1042C000080FD0E0C11112C080915A0121E041E0F5
:1042D0006DE977E1811114C0CF5FDF5FD53091F7D1
:1042E00084E08093220ADF91CF910895C13061F478
:1042F00080915A0120E041E060E977E1882361F391
:104300008D2F0E94F8C8E8CFC23049F480915A013D
:1043100020E041E062E877E18823F1F2F1CFC33099
:10432000D9F680915A018823B9F220E041E069E78B
:1043300077E1E6CFCF93DF938091190F882321F0A7
:10434000DF91CF910C945C201092170F8091590F40
:1043500090915A0FA0915B0FB0915C0F8130904803
:10436000A105B10540F01092590F10925A0F10920A
:104370005B0F10925C0FC091590F8091210A1816A3
:1043800004F5282F082E000C330B255031094C2F33
:104390000C2E000C550B421753079CF0CBEFC80FA7
:1043A00085300CF4C0E08C2F0C2E000C990BAA0B5E
:1043B000BB0B8093590F90935A0FA0935B0FB09350
:1043C0005C0FC093080FD0E0C11112C080915A0158
:1043D00021E040E06AE677E1811114C0CF5FDF5F42
:1043E000D53091F786E08093210ADF91CF9108952F
:1043F000C13061F480915A0120E040E06EE577E140
:10440000882361F38D2F0E94F8C8E8CFC230D9F419
:1044100080915A0120E040E060E577E18823F1F2E5
:10442000F1CF80915A0121E040E060E477E18823F8
:10443000A9F2E8CF80915A0120E040E064E377E1FF
:10444000882361F2DFCFC33061F3C43099F3C53004
:1044500029F680915A01882309F220E040E066E2C3
:1044600077E1D0CF2F923F924F925F926F927F92DF
:104470008F929F92AF92BF92CF92DF92EF92FF9274
:104480000F931F93CF93DF931092170F8091590FC3
:1044900090915A0FA0915B0FB0915C0F81309048C2
:1044A000A105B10540F01092590F10925A0F1092C9
:1044B0005B0F10925C0FC091590F80911A0A181669
:1044C000DCF4282F082E000C330B215031094C2F1F
:1044D0000C2E000C550B4217530774F0CFEFC80F8A
:1044E0008C2F90E0B0E0A0E08093590F90935A0F8A
:1044F000A0935B0FB0935C0F1092090F8091080F8F
:10450000C81714F4C093080F8091080F082E000CF0
:10451000990B04962C2F0C2E000C330B821793074B
:1045200024F48CEF8C0F8093080FD091080F4D2E40
:1045300065E0562E5D0E73E0D72EE7E28E2EE5E1A4
:104540009E2E86E0B82EBD1ACC24C39485E0A82EFA
:10455000AD1A84E0782E7D1A3D2C3D1A82E0682E3B
:104560006D1A2C2C2D1AD11134C08091190F811184
:1045700015C080915A01882351F0642D619581E026
:10458000C11180E024E04DE755E10E94BED9DF5F14
:104590005D12E9CF87E080931A0A08C0C111E9CF04
:1045A0000E945C208091090F882319F3DF91CF913D
:1045B0001F910F91FF90EF90DF90CF90BF90AF9041
:1045C0009F908F907F906F905F904F903F902F9033
:1045D0000895D130E1F58091190F811122C08091A9
:1045E0005A018823A1F2DF9287EE8F931F92CF9218
:1045F00080E099E09F938F938FE695E19F938F934F
:104600002F9281E0C13009F080E08F930E945CD846
:104610008DB79EB70A960FB6F8949EBF0FBE8DBF9A
:10462000B6CFC130E1F6E12C10ECF12E09E714E42D
:1046300020E030E040E85FE360E079E086E795E184
:104640000E9425E08091090F882349F2AFCFD23034
:1046500009F008C18091190F811123C080915A017E
:10466000882309F494CFDF9287EE8F931F92CF9225
:1046700084E099E09F938F9381E695E19F938F93D8
:104680006F9281E0C23009F080E08F930E945CD885
:104690008DB79EB70A960FB6F8949EBF0FBE8DBF1A
:1046A00076CFC230D9F6E12C10ECF12E09E714E4F4
:1046B00020E030E040E85FE364E079E088E695E1FF
:1046C0000E9425E08091090F882341F26FCF8091ED
:1046D000190F811123C080915A01882309F457CF03
:1046E000DF9287EE8F931F92CF9288E099E09F939D
:1046F0008F9383E595E19F938F933F9281E0C33041
:1047000009F080E08F930E945CD88DB79EB70A961F
:104710000FB6F8949EBF0FBE8DBF39CFC330D9F608
:10472000E12C10ECF12E09E714E420E030E040E841
:104730005FE368E079E08AE595E10E9425E08091F9
:10474000090F882341F232CF8091190F811123C0C4
:1047500080915A01882309F41ACFDF9287EE8F9354
:104760001F92CF928CE099E09F938F9385E495E11F
:104770009F938F937F9281E0C43009F080E08F9304
:104780000E945CD88DB79EB70A960FB6F8949EBF6C
:104790000FBE8DBFFCCEC430D9F6E12C10ECF12E4B
:1047A00009E714E420E030E040E85FE36CE079E002
:1047B0008CE495E10E9425E08091090F882341F265
:1047C000F5CE8091190F811123C080915A01882361
:1047D00009F4DDCEDF9287EE8F931F921F928CEF4C
:1047E00098E09F938F938BE395E19F938F93AF9284
:1047F00081E0C53009F080E08F930E945CD88DB7CE
:104800009EB70A960FB6F8949EBF0FBE8DBFBFCE5F
:10481000C530D9F6E12C10ECF12E09E714E420E0C4
:1048200030E0A9016CEF78E080E495E10E9425E09A
:104830008091090F882349F2B9CEC63019F5E12CD1
:1048400010ECF12E09E714E420E030E0A90168EF54
:1048500078E081E395E10E9425E08091090F8823AB
:1048600089F0A4CED33009F432CFD43009F46CCF20
:10487000D53009F4A6CFD63009F089CE8091190F32
:104880008111DBCF80915A01882309F480CEDF9219
:1048900087EE8F931F921F9288EF98E09F938F93DC
:1048A0009F928F92BF9281E0C63009F080E08F9393
:1048B0000E945CD88DB79EB70A960FB6F8949EBF3B
:1048C0000FBE8DBF64CE3F924F925F926F927F92E8
:1048D0008F929F92AF92BF92CF92DF92EF92FF9210
:1048E0000F931F93CF93DF931092170F8091590F5F
:1048F00090915A0FA0915B0FB0915C0F813090485E
:10490000A105B10540F01092590F10925A0F109264
:104910005B0F10925C0FC091590F8091180A181606
:10492000DCF4282F082E000C330B215031094C2FBA
:104930000C2E000C550B4217530774F0CFEFC80F25
:104940008C2F90E0B0E0A0E08093590F90935A0F25
:10495000A0935B0FB0935C0F1092090F8091080F2A
:10496000C81714F4C093080F8091080F082E000C8C
:10497000990B04962C2F0C2E000C330B82179307E7
:1049800024F48CEF8C0F8093080FD091080F5D2ECC
:1049900085E0682E6D0E05E00D1B11E094E0792E88
:1049A000472C4D1A20EBE22E24E1F22E83E0982EC4
:1049B0009D1A34ECC32E34E1D32E82E0882E8D1A5A
:1049C0004CECA42E44E1B42E312E3D1AD1112EC050
:1049D0008091190F811110C080915A01882309F428
:1049E0004EC0652D619581E0C11180E024E04AED63
:1049F00054E10E94BED943C0C111EECF0E945C2099
:104A00008091090F882341F3DF91CF911F910F917E
:104A1000FF90EF90DF90CF90BF90AF909F908F90DE
:104A20007F906F905F904F903F900895D13009F044
:104A300049C08091190F811129C080915A018823A2
:104A4000F1F086EC9AE19F938F931F937F921F92D0
:104A50001F9289EC95E19F938F93BF92AF923F9203
:104A600081E0C13009F080E08F930E9445D88DB776
:104A70009EB70C960FB6F8949EBF0FBE8DBFDF5F3A
:104A80006D12A4CF86E08093180ABECFC130A9F67C
:104A9000C093170F1092130F1092140F1092150F4E
:104AA0001092160F26EC3AE144E051E069EC75E112
:104AB00083ED94E10E9439C68091090F882309F49F
:104AC000BCCFA2CFD23009F0ABC08091190F8111B9
:104AD00024C080915A01882391F28CE190E49F9345
:104AE0008F931F928EE68F931F921F928CE69FE00A
:104AF0009F938F93DF92CF928F9281E0C23009F023
:104B000080E08F930E9445D88DB79EB70C960FB664
:104B1000F8949EBF0FBE8DBFB2CFC230D1F61093B6
:104B2000170F1092130F1092140F1092150F10926E
:104B3000160F2CE130E44EE650E06CE67FE088ECA6
:104B400094E10E9439C68091090F882311F25CCF4D
:104B50008091190F811121C080915A01882309F495
:104B60008ECF1F928FEF8F931F921F928EE69FE042
:104B70009F938F93FF92EF929F9281E0C33009F051
:104B800080E08F930E9445D88DB79EB70A960FB6E6
:104B9000F8949EBF0FBE8DBF72CFC330E9F610935D
:104BA000170F1092130F1092140F1092150F1092EE
:104BB000160F2FEF30E050E040E06EE67FE08AEB2A
:104BC00094E10E9490E08091090F882329F21CCF84
:104BD0008091190F81110EC080915A01882309F428
:104BE0004ECF81E0C43009F080E023E04FE954E18A
:104BF000642DFFCEC43081F788EF97E60E942CDF4A
:104C00008091090F882341F3FFCEC530A9F485EFC9
:104C100097E60E942CDF8091090F882369F0F4CE7B
:104C2000D33009F495CFD43099F2D53009F027CF9D
:104C30008091190F8111E9CF80915A01882309F4DD
:104C40001ECF81E0C53009F080E023E04EE854E15A
:104C5000602FCFCE4F925F926F927F928F929F92F2
:104C6000AF92BF92CF92DF92EF92FF920F931F937A
:104C7000CF93DF931092170F8091590F90915A0F95
:104C8000A0915B0FB0915C0F81309048A105B105F8
:104C900040F01092590F10925A0F10925B0F109221
:104CA0005C0FC091590F8091090A1816DCF4282F67
:104CB000082E000C330B215031094C2F0C2E000C08
:104CC000550B4217530774F0CFEFC80F8C2F90E0AD
:104CD000B0E0A0E08093590F90935A0FA0935B0F20
:104CE000B0935C0F1092090F8091080FC81714F44D
:104CF000C093080F8091080F082E000C990B0496A2
:104D00002C2F0C2E000C330B8217930724F48CEFFE
:104D10008C0F8093080FD091080F85E0582E5D0E00
:104D20009CE7E92E91E1F92E14E01D1B27E9C22E24
:104D300021E1D22E03E00D1B35EBA32E31E1B32E82
:104D400082E0782E7D1A40ED842E41E1942E81E0A0
:104D5000682E6D1A4D2E4194D11131C08091190FDA
:104D6000811114C080915A01882349F081E0C1115A
:104D700080E024E04DED51E1642D0E94BED9DF5F5B
:104D80005D12EACF85E08093090A08C0C111EACF1D
:104D90000E945C208091090F882321F3DF91CF913D
:104DA0001F910F91FF90EF90DF90CF90BF90AF9049
:104DB0009F908F907F906F905F904F900895D1302B
:104DC000F1F48091190F81110DC080915A0188234F
:104DD000B1F281E0C13009F080E020E242EC51E123
:104DE000662DCBCFC13089F79092401480923F144A
:104DF0000E94588B8091090F882339F3CFCFD2308E
:104E000009F04BC08091190F81110EC080915A0199
:104E1000882309F4B4CF81E0C23009F080E020E2B9
:104E200043EA51E1672DA9CFC23081F7B092401417
:104E3000A0923F140E94588B8091090F882331F370
:104E4000ADCF8091190F81110EC080915A01882336
:104E500009F495CF81E0C33009F080E020E248E812
:104E600051E1602F8ACFC33081F7D0924014C092B5
:104E70003F140E94588B8091090F882331F38ECF05
:104E8000C430A1F4F0924014E0923F140E94588B79
:104E90008091090F882351F081CFD33091F2D43023
:104EA00009F06DCF8091190F8111EACF80915A01DD
:104EB000882309F464CF81E0C43009F080E020E267
:104EC0004FE651E1612F59CFCF92DF92EF92FF92DF
:104ED0000F931F93CF93DF931092170F8091590F69
:104EE00090915A0FA0915B0FB0915C0F8130904868
:104EF000A105B10540F01092590F10925A0F10926F
:104F00005B0F10925C0FC091590F8091160A181612
:104F1000DCF4282F082E000C330B215031094C2FC4
:104F20000C2E000C550B4217530774F0CFEFC80F2F
:104F30008C2F90E0B0E0A0E08093590F90935A0F2F
:104F4000A0935B0FB0935C0F1092090F8091080F34
:104F5000C81714F4C093080F8091080F082E000C96
:104F6000990B04962C2F0C2E000C330B82179307F1
:104F700024F48CEF8C0F8093080FD091080F85E0FC
:104F8000D82EDD0E14E01D1B03E00D1B82E0F82E71
:104F9000FD1A81E0E82EED1ACD2EC194D11129C061
:104FA0008091190F811114C080915A01882349F012
:104FB00081E0C11180E024E04EE254E16C2D0E94BA
:104FC000BED9DF5FDD12EACF85E08093160A08C004
:104FD000C111EACF0E945C208091090F882321F340
:104FE000DF91CF911F910F91FF90EF90DF90CF90C5
:104FF0000895D130E1F48091190F81110DC0809195
:105000005A018823F1F281E0C13009F080E023E009
:1050100047E254E16E2DD3CFC13089F783E19AE2A4
:105020000E942CDF8091090F882349F3D9CFD23019
:1050300009F045C08091190F81110EC080915A016D
:10504000882309F4BECF81E0C23009F080E023E07C
:1050500040E254E16F2DB3CFC23081F789E19AE28B
:105060000E942CDF8091090F882341F3B9CF8091F2
:10507000190F81110EC080915A01882309F4A1CF24
:1050800081E0C33009F080E023E049E154E1602F82
:1050900096CFC33081F78FE19AE20E942CDF809196
:1050A000090F882341F39CCFC43091F485E29AE242
:1050B0000E942CDF8091090F882351F091CFD330CB
:1050C000B1F2D43009F07DCF8091190F8111ECCF6E
:1050D00080915A01882309F474CF81E0C43009F02B
:1050E00080E023E040E154E1612F69CFAF92BF92AD
:1050F000CF92DF92EF92FF920F931F93CF93DF93A4
:105100008C017093150A6093140A1092170F809106
:10511000590F90915A0FA0915B0FB0915C0F8130A5
:105120009048A105B10540F01092590F10925A0F06
:1051300010925B0F10925C0FC091590F8091130A6F
:105140001816DCF4282F082E000C330B21503109DF
:105150004C2F0C2E000C550B4217530774F0CFEF59
:10516000C80F8C2F90E0B0E0A0E08093590F90938F
:105170005A0FA0935B0FB0935C0F1092090F8091B0
:10518000080FC81714F4C093080F8091080F082E59
:10519000000C990B04962C2F0C2E000C330B82174D
:1051A000930724F48CEF8C0F8093080FD091080F95
:1051B00085E0B82EBD0E81E094E0E92EED1A93E073
:1051C000D92EDD1A92E0C92ECD1AA82EAD1AFD2EC9
:1051D000F1940130110591F10230110509F454C028
:1051E0000115110509F074C0D11196C08823B1F0E2
:1051F0001C16A4F08091590F90915A0FA0915B0F4B
:10520000B0915C0F0196A11DB11D8093590F909331
:105210005A0FA0935B0FB0935C0FCF5F80915A0140
:1052200021E041E069E074E181112AC0DF5F80E0A4
:10523000DB11CFCF85E08093130A8CC0D1116CC0F5
:105240008823B1F01C16A4F08091590F90915A0F49
:10525000A0915B0FB0915C0F0196A11DB11D8093D1
:10526000590F90935A0FA0935B0FB0935C0FCF5FD1
:1052700080915A0121E041E062E074E18823B1F2BB
:105280008F2D0E94F8C8D2CFD11146C08823B1F02B
:105290001C16A4F08091590F90915A0FA0915B0FAA
:1052A000B0915C0F0196A11DB11D8093590F909391
:1052B0005A0FA0935B0FB0935C0FCF5F80915A01A0
:1052C00021E041E06BEF73E1882309F4AFCFD8CF41
:1052D000D11122C08823B1F01C16A4F08091590F7F
:1052E00090915A0FA0915B0FB0915C0F0196A11D98
:1052F000B11D8093590F90935A0FA0935B0FB093F9
:105300005C0FCF5F80915A01882309F48FCF21E091
:1053100041E062EF73E1B4CFD13039F58091190FDC
:10532000811110C080915A01882309F47FCF81E058
:10533000C13009F080E024E048EE53E16A2D0E947C
:10534000BED974CFC13071F70E945C208091090FE3
:10535000882341F3DF91CF911F910F91FF90EF9040
:10536000DF90CF90BF90AF900895D230E9F4809154
:10537000190F81110EC080915A01882309F456CF6C
:1053800081E0C23009F080E023E04EED53E16C2D66
:10539000D6CFC23081F783E490E20E942CDF809167
:1053A000090F882341F3D6CFD330E9F48091190F48
:1053B00081110EC080915A01882309F437CF81E012
:1053C000C33009F080E023E045ED53E16D2DB7CF08
:1053D000C33081F789E490E20E942CDF8091090FAD
:1053E000882341F3B7CFD43009F020CF8091190F33
:1053F00081110EC080915A01882309F417CF81E0F2
:10540000C43009F080E023E04AEC53E16E2D97CFE1
:10541000C43081F78FE490E20E942CDF8091090F65
:10542000882341F397CF69E770E390E080E00C9424
:10543000762863E770E381E090E00C9476286DE6CF
:1054400070E382E090E00C94762869E17FE283E0EB
:1054500090E00C947628DF92EF92FF920F931F93C7
:10546000CF93DF931092170F8091590F90915A0F9D
:10547000A0915B0FB0915C0F81309048A105B10500
:1054800040F01092590F10925A0F10925B0F109229
:105490005C0FC091590F80910C0A1816DCF4282F6C
:1054A000082E000C330B215031094C2F0C2E000C10
:1054B000550B4217530774F0CFEFC80F8C2F90E0B5
:1054C000B0E0A0E08093590F90935A0FA0935B0F28
:1054D000B0935C0F1092090F8091080FC81714F455
:1054E000C093080F8091080F082E000C990B0496AA
:1054F0002C2F0C2E000C330B8217930724F48CEF07
:105500008C0F8093080FD091080F85E0E82EED0EE8
:1055100013E01D1B02E00D1B81E0F82EFD1ADD2EAD
:10552000D194D11128C08091190F811114C080919C
:105530005A01882349F081E0C11180E024E048E06D
:1055400053E16D2D0E94BED9DF5FED12EACF84E0FA
:1055500080930C0A08C0C111EACF0E945C208091A0
:10556000090F882321F3DF91CF911F910F91FF90B5
:10557000EF90DF900895D13031F58091190F8111AE
:105580000DC080915A018823F9F281E0C13009F001
:1055900080E020E24CEF52E16F2DD4CFC13089F78B
:1055A0004091F4085091F5086091EC087091ED0875
:1055B0008091F0089091F1080E9418DA8091090F0B
:1055C0008823F9F2D0CFD230C1F58091190F811123
:1055D0000EC080915A01882309F4B6CF81E0C23011
:1055E00009F080E020E24CEE52E1602FABCFC230F8
:1055F00081F74091F4085091F5086FEF7FEF8091AB
:10560000F0089091F1080E9418DA8091090F882320
:1056100001F3A9CFC330C1F44091F4085091F508CB
:105620006091EC087091ED0890E080E00E9418DA3B
:105630008091090F882341F096CFD33009F084CFB1
:105640008091190F8111E6CF80915A01882309F4C6
:105650007BCF81E0C33009F080E020E24CED52E1E5
:10566000612F70CFDF92EF92FF920F931F93CF9332
:10567000DF931092170F8091590F90915A0FA091BC
:105680005B0FB0915C0F81309048A105B10540F0EF
:105690001092590F10925A0F10925B0F10925C0FDC
:1056A000C091590F80910D0A1816DCF4282F082E8E
:1056B000000C330B215031094C2F0C2E000C550BD4
:1056C0004217530774F0CFEFC80F8C2F90E0B0E073
:1056D000A0E08093590F90935A0FA0935B0FB09363
:1056E0005C0F1092090F8091080FC81714F4C09333
:1056F000080F8091080F082E000C990B04962C2F90
:105700000C2E000C330B8217930724F48CEF8C0FB4
:105710008093080FD091080F85E0E82EED0E13E07E
:105720001D1B02E00D1B81E0F82EFD1ADD2ED19429
:10573000D11128C08091190F811114C080915A0194
:10574000882349F081E0C11180E024E04CE353E17B
:105750006D2D0E94BED9DF5FED12EACF84E0809309
:105760000D0A08C0C111EACF0E945C208091090F88
:10577000882321F3DF91CF911F910F91FF90EF903C
:10578000DF900895D13031F58091190F81110DC04E
:1057900080915A018823F9F281E0C13009F080E05C
:1057A00020E240E353E16F2DD4CFC13089F740911F
:1057B000F6085091F7086091EE087091EF0880911B
:1057C000F2089091F3080E9418DA8091090F88235B
:1057D000F9F2D0CFD230C1F58091190F81110EC0EE
:1057E00080915A01882309F4B6CF81E0C23009F0D4
:1057F00080E020E240E253E1602FABCFC23081F77E
:105800004091F6085091F7086FEF7FEF8091F20812
:105810009091F3080E9418DA8091090F882301F310
:10582000A9CFC330C1F44091F6085091F7086091B8
:10583000EE087091EF0890E080E00E9418DA809105
:10584000090F882341F096CFD33009F084CF80919F
:10585000190F8111E6CF80915A01882309F47BCF7B
:1058600081E0C33009F080E020E240E153E1612FA4
:1058700070CF2F923F924F925F926F927F928F9252
:105880009F92AF92BF92CF92DF92EF92FF920F93CF
:105890001F93CF93DF931092170F8091590F909120
:1058A0005A0FA0915B0FB0915C0F81309048A10519
:1058B000B10540F01092590F10925A0F10925B0FE1
:1058C00010925C0FC091590F80910B0A1816DCF4EE
:1058D000282F082E000C330B215031094C2F0C2E91
:1058E000000C550B4217530774F0CFEFC80F8C2FE5
:1058F00090E0B0E0A0E08093590F90935A0FA093EE
:105900005B0FB0935C0F1092090F8091080FC817BE
:1059100014F4C093080F8091080F082E000C990B07
:1059200004962C2F0C2E000C330B8217930724F4B3
:105930008CEF8C0F8093080FD091080F5D2E85E0BF
:10594000682E6D0E03E097E9E92E92E1F92E85E0CD
:10595000982E9D1A11E021EAC22E22E1D22E34E0C7
:10596000732E472C4D1A45EBA42E42E1B42E302E57
:105970003D1A82E0882E8D1A212E2D1AD11134C0A5
:105980008091190F811115C080915A01882351F01F
:10599000652D619581E0C11180E024E047ED52E181
:1059A0000E94BED9DF5F6D12E9CF86E080930B0ABB
:1059B00008C0C111E9CF0E945C208091090F8823A3
:1059C00019F3DF91CF911F910F91FF90EF90DF902E
:1059D000CF90BF90AF909F908F907F906F905F908F
:1059E0004F903F902F900895D130C1F58091190FBD
:1059F000811123C080915A018823A1F20F9387EE71
:105A00008F931F928AE08F9384E291E09F938F930C
:105A10008BEC92E19F938F932F9281E0C13009F03C
:105A200080E08F930E9445D88DB79EB70A960FB637
:105A3000F8949EBF0FBE8DBFB5CFC130D9F627EE0B
:105A400033E04AE050E064E271E081ED92E10E94CF
:105A500090E08091090F882369F2B3CFD23009F02A
:105A6000DBC08091190F811126C080915A018823D3
:105A700009F498CF86EC9AE19F938F931F937F92BE
:105A80001F921F9289EC95E19F938F938DEB92E18A
:105A90009F938F938F9281E0C23009F080E08F93C3
:105AA0000E9445D88DB79EB70C960FB6F8949EBF4E
:105AB0000FBE8DBF77CFC230C1F61093170F109273
:105AC000130F1092140F1092150F1092160F26EC50
:105AD0003AE144E051E069EC75E184EC92E10E9426
