:100000000C9438170C9462170C9462170C946217B6
:100010000C9462170C9462170C9462170C9462177C
:100020000C9462170C9462170C9462170C9462176C
:100030000C9462170C94647C0C9462170C946217F5
:100040000C9462170C94718A0C94D6CA0C946217A3
:100050000C9464170C9462170C9462170C9462173A
:100060000C9462170C9462170C9462170C9462172C
:100070000C9462170C9462170C9462170C9462171C
:100080000C9494720C9462170C946217E8CBEDCB2D
:10009000F2CBFCCB2ACC2ACC06CC0ECC16CC20CC76
:1000A00047CC4ACC3DCC41CC61CC61CC4ECC52CC7F
:1000B00058CC5CCC4E414E494E495459494E46CDE0
:1000C000CCCC3D0AD7233C17B7D13877CC2B32950F
:1000D00095E6241FB14F0A000020410000C84200ED
:1000E000401C4620BCBE4CCA1B0E5AAEC59D742097
:1000F00020506C616E6E65724275666665724279FB
:100100007465733A20002046726565204D656D6FF9
:1001100072793A2000436F6D70696C65643A204AC9
:10012000616E20333120323032300A00207C204191
:100130007574686F723A2028486172746669656CDC
:1001400064290A00323031392D30342D313200200B
:100150004C61737420557064617465643A20003199
:100160002E312E36424C5F56330A004D61726C6957
:100170006E0020536F6674776172652052657365F7
:10018000740A00205761746368646F672052657356
:1001900065740A002042726F776E206F757420526A
:1001A000657365740A002045787465726E616C2011
:1001B00052657365740A00506F77657255700A0056
:1001C00073746172740A0053544F505045442E208A
:1001D000005072696E7465722073746F707065641C
:1001E0002064756520746F206572726F72732E20A3
:1001F00046697820746865206572726F7220616E3E
:100200006420757365204D39393920746F2072650B
:1002100073746172742E202854656D7065726174F8
:100220007572652069732072657365742E2053653D
:1002300074206974206166746572207265737461DC
:100240007274696E67290A005072696E7465722053
:1002500068616C7465642E206B696C6C282920635E
:10026000616C6C6564210A004B494C4C45442E205E
:10027000004B494C4C2063617573656420627920A2
:10028000746F6F206D75636820696E616374697641
:10029000652074696D65202D2063757272656E74BA
:1002A00020636F6D6D616E643A200020636F6C6433
:1002B00020657874727573696F6E207072657665EB
:1002C0006E7465640A006F6B00526573656E643A04
:1002D000200000010F150E12FF16170E13FF030268
:1002E0001A14FFFFFF0C04FFFFFF01000EFFFF0CBD
:1002F000190DFF18FFFFFFFFFFFF47302046333681
:100300003030205831313520593131320042696C5A
:10031000696E656172204C6576656C696E67204711
:100320007269643A0A00416374697665204578749D
:1003300072756465723A200020453A00205A3A00EE
:1003400020593A00583A002042403A0020403A00F2
:10035000202F0020706F736974696F6E206F757441
:10036000206F662072616E67652E0A003F50726FC3
:1003700062652000627573793A20706175736564F7
:1003800020666F7220696E7075740A0062757379E9
:100390003A2070617573656420666F7220757365AD
:1003A000720A00627573793A2070726F63657373B5
:1003B000696E670A0050726F62696E6720666169D4
:1003C0006C65640A0050726F62696E6720666169CD
:1003D0006C656400205A3A200020593A200042659A
:1003E0006420583A200053544F502063616C6C6570
:1003F000642062656361757365206F6620424C54AA
:100400006F756368206572726F72202D207265733C
:10041000746172742077697468204D3939390A0023
:10042000486F6D6520257325732573206669727387
:1004300074002066697273740A005A0059005800EB
:10044000486F6D65200020496E76616C6964206597
:10045000787472756465722000656E717565756576
:10046000696E672022004E6F2063617365206C699E
:100470006768740A003A20007A5F6D696E3A20203E
:100480002D3230207A5F6D61783A20203230005A68
:10049000204F666673657420004D65736820706F29
:1004A000696E742063616E6E6F7420626520726580
:1004B000736F6C7665640A004D34323120696E6367
:1004C0006F727265637420706172616D65746572BC
:1004D0002075736167650A004F66660A00466164AD
:1004E00065204865696768742000426564204C6532
:1004F00076656C696E6720004661696C656420747E
:100500006F20656E61626C6520426564204C657683
:10051000656C696E670A0043290A0061626C656454
:1005200020286D696E2074656D702000436F6C64C7
:10053000206578747275646573206172652000208F
:10054000643A0020693A0020703A00206F757420E8
:100550006F662072616E67650A00536572766F2060
:10056000003A200020536572766F2000205A002048
:100570005900580020204D61783A2000205A002070
:100580005900580020204D696E3A20004F666600E1
:100590004F6E2000536F667420656E6473746F70C5
:1005A000733A200053657474696E672054726176E3
:1005B000656C20416363656C65726174696F6E3A46
:1005C000200053657474696E6720526574726163AC
:1005D0007420416363656C65726174696F6E3A2063
:1005E0000053657474696E67205072696E7420419F
:1005F0006363656C65726174696F6E3A2000536560
:100600007474696E67205072696E7420616E642024
:1006100054726176656C20416363656C65726174C8
:10062000696F6E3A20002F2F20004361703A454DCC
:10063000455247454E43595F5041525345523A3017
:100640000A004361703A434153455F4C494748545F
:100650005F4252494748544E4553533A300A00438B
:1006600061703A544F47474C455F4C494748545393
:100670003A300A004361703A534F4654574152454D
:100680005F504F5745523A300A004361703A4C452B
:1006900056454C494E475F444154413A310A004364
:1006A00061703A5A5F50524F42453A310A004361F5
:1006B000703A4155544F4C4556454C3A310A004327
:1006C00061703A5052494E545F4A4F423A310A00E3
:1006D0004361703A50524F47524553533A300A00E3
:1006E0004361703A4155544F5245504F52545F54F4
:1006F000454D503A310A004361703A454550524FDA
:100700004D3A310A004649524D574152455F4E41DC
:100710004D453A4D61726C696E20437265616C693A
:10072000747920334420534F555243455F434F441F
:10073000455F55524C3A68747470733A2F2F67694D
:10074000746875622E636F6D2F4D61726C696E46B1
:1007500069726D776172652F4D61726C696E2050A0
:10076000524F544F434F4C5F56455253494F4E3AA8
:10077000312E30204D414348494E455F5459504534
:100780003A456E6465722D3548204558545255449B
:1007900045525F434F554E543A3120555549443ADE
:1007A00031326135633632662D343330332D34398E
:1007B00035622D623133632D383939346530366214
:1007C000393734330A00456E6465722D3548204F41
:1007D00066662E004D31343520533C696E64657871
:1007E0003E206F7574206F662072616E67652028E9
:1007F000302D31290A004D3131332053006F6666A8
:100800000044454255473A0033082E08270820087F
:100810001208434F4D4D554E49434154494F4E00E8
:1008200044525952554E004552524F525300494E70
:10083000464F004543484F0042656420646F6E6533
:100840002E0020573A004265642048656174696E45
:10085000672E0048656174696E6720646F6E652E4F
:100860000020573A004578747275646572202573CC
:10087000004B494C4C45442E20006F6B004578746A
:1008800072756465722025730050726F74656374AD
:1008900065642050696E0A005072696E7420746934
:1008A0006D653A20004E6F206D6F76652E00456EA7
:1008B0006465722D35482072656164792E00436C41
:1008C00069636B20746F20726573756D652E2E2EB3
:1008D000004D65736820706F696E742063616E6E81
:1008E0006F74206265207265736F6C7665640A00B0
:1008F000205A3A200020593A200042656420583A94
:10090000200052756E6E696E6720696E20445259E0
:100910002D52554E206D6F64650A004732392041D3
:1009200075746F20426564204C6576656C696E67EE
:100930000A0028422961636B00284629726F6E7491
:10094000002852296967687400284C29656674007C
:100950003F2856296572626F7365206C6576656CF9
:1009600020697320696D706C61757369626C6520B4
:1009700028302D34292E0A00426164205A207661E5
:100980006C75650A004E6F2062696C696E656172F4
:1009900020677269640A00473238205A20466F7215
:1009A00062696464656E0A00473238205A20466FD7
:1009B0007262696464656E00536C6565702E2E2EDC
:1009C000005761726E696E673A20486F6D696E6795
:1009D0002042756D702044697669736F72203C20E7
:1009E000310A000202044B494C4C45442E2000536E
:1009F000544F505045442E20005072696E746572F9
:100A00002073746F707065642064756520746F2046
:100A10006572726F72732E20466978207468652043
:100A20006572726F7220616E6420757365204D3936
:100A3000393920746F20726573746172742E2028A6
:100A400054656D706572617475726520697320728A
:100A5000657365742E205365742069742061667413
:100A600065722072657374617274696E67290A0019
:100A70004E6F204C696E65204E756D6265722077F1
:100A800069746820636865636B73756D2C204C61B5
:100A90007374204C696E653A20004E6F2043686580
:100AA000636B73756D2077697468206C696E65205F
:100AB0006E756D6265722C204C617374204C696E8A
:100AC000653A2000636865636B73756D206D6973AB
:100AD0006D617463682C204C617374204C696E6581
:100AE0003A20004C696E65204E756D626572206912
:100AF00073206E6F74204C617374204C696E652096
:100B00004E756D6265722B312C204C617374204CD4
:100B1000696E653A20004D31313000FFFFFF000063
:100B2000A0400000A0400000004000006143000021
:100B300061430080984300000000000000000000B6
:100B400000000000484200004842000080400000D1
:100B500000002569730025696D20256973002569EA
:100B6000682025696D202569730025696420256941
:100B7000682025696D20256973002569792025691C
:100B800064202569682025696D202569730020206F
:100B90004D383531205A005A2D50726F6265204F02
:100BA000666673657420286D6D293A0A002044003A
:100BB00020490020204D333031205000504944203E
:100BC00073657474696E67733A0A002046002042A8
:100BD0000020480020204D3134352053004D6174F1
:100BE000657269616C2068656174757020706172EE
:100BF000616D65746572733A0A00205A0020204DB9
:100C00003432302053004175746F20426564204CAB
:100C10006576656C696E673A0A00204500205A00C7
:100C200020590020580020420020540020204D323E
:100C30003035205300416476616E6365643A205319
:100C40003C6D696E5F66656564726174653E2054D3
:100C50003C6D696E5F74726176656C5F6665656434
:100C6000726174653E20423C6D696E5F7365676DAD
:100C7000656E745F74696D655F6D733E20583C6D81
:100C800061785F78795F6A65726B3E205A3C6D616E
:100C9000785F7A5F6A65726B3E20453C6D61785F74
:100CA000655F6A65726B3E0A002054002052002086
:100CB000204D323034205000416363656C657261B1
:100CC00074696F6E2028756E6974732F7332293AB8
:100CD00020503C7072696E745F616363656C3E2086
:100CE000523C726574726163745F616363656C3EEC
:100CF00020543C74726176656C5F616363656C3E21
:100D00000A00204500205A0020590020204D323092
:100D1000312058004D6178696D756D2041636365C0
:100D20006C65726174696F6E2028756E6974732FBB
:100D30007332293A0A00204500205A002059002029
:100D4000204D3230332058004D6178696D756D202B
:100D50006665656472617465732028756E69747365
:100D60002F73293A0A00204500205A0020590020FC
:100D7000204D3932205800537465707320706572AD
:100D800020756E69743A0A0020204D3230302044BC
:100D9000300A0020204D3230302044002044697356
:100DA00061626C65640A0046696C616D656E7420F1
:100DB00073657474696E67733A0020204D3134395D
:100DC0002043203B20556E69747320696E20436573
:100DD0006C736975730A002020473231202020206F
:100DE0003B20556E69747320696E206D6D0A00F4A6
:100DF000010000F401000064000000E803000000AE
:100E0000009643000096430000A0400000C8410047
:100E100000A0420000A0420000C8430000BA4245C2
:100E200072726F722077726974696E6720746F20B6
:100E3000454550524F4D210A007A5F6D696E3A2048
:100E400000795F6D696E3A2000785F6D696E3A20B7
:100E5000005265706F7274696E6720656E6473749A
:100E60006F70207374617475730A00456E647374D7
:100E70006F70732025632025632025632025630080
:100E8000205A3A0020593A0020583A00656E64739F
:100E9000746F7073206869743A2000556E6B6E6FC2
:100EA000776E20636F6D6D616E643A20220020635F
:100EB0006F6C6420657874727573696F6E207072E0
:100EC0006576656E7465640A006563686F3A00450F
:100ED00072726F723A00205A3A0020593A00204349
:100EE0006F756E7420583A0024F4D43050C38E20AD
:100EF000C2A24017828B7011127A910D816CD90AAF
:100F0000A861E108C7586607615143061E4B5D059D
:100F1000C145A7041A411104093D980371393103F1
:100F20004036DB0265339102D4305402802E1D021C
:100F3000632CEE01752AC501B028A001102781019C
:100F40008F2564012B244B01E0223401AC211F01C9
:100F50008D200D01801FFC00841EED00971DDF0019
:100F6000B81CD200E61BC600201BBC00641AB200ED
:100F7000B219A8000A19A0006A189900D1179100A7
:100F800040178B00B516840031167E00B31579002A
:100F90003A157300C7146F0058146A00EE13660008
:100FA0008813630025135E00C7125B006C125700A4
:100FB00015125400C111510070114F0021114B0046
:100FC000D61049008D104700461044000210420020
:100FD000C00F4000800F3E00420F3C00060F3B0058
:100FE000CB0E3800930E37005C0E3500270E340010
:100FF000F30D3200C10D3100900D3000600D2E0058
:10100000320D2D00050D2C00D90C2B00AE0C290043
:10101000850C29005C0C2700350C27000E0C2600DF
:10102000E80B2400C40B2400A00B23007D0B23003D
:101030005A0B2100390B2100180B2000F80A1F0061
:10104000D90A1E00BB0A1E009D0A1D00800A1D0051
:10105000630A1C00470A1B002C0A1B00110A1A0015
:10106000F7091A00DD091900C4091900AB091900B4
:10107000920917007B091800630917004C09160034
:1010800036091600200916000A091500F508150092
:10109000E0081400CC081400B8081400A4081400D8
:1010A000900813007D0812006B0813005808120006
:1010B000460812003408110023081100120811001C
:1010C00001081100F0071000E0071000D007100021
:1010D000C0071000B0070F00A107100091070E0015
:1010E00083070F0074070F0065070E0057070E00F7
:1010F00049070E003B070D002E070E0020070D00CC
:1011000013070D0006070D00F9060C00ED060D0093
:10111000E0060C00D4060C00C8060C00BC060C004F
:10112000B0060C00A4060B0099060C008D060B00FF
:1011300082060B0077060B006C060B0061060A00A6
:1011400057060B004C060A0042060A0038060A0041
:101150002E060A0024060A001A060A0010060900D4
:1011600007060A00FD050900F4050900EB05090062
:10117000E2050900D9050900D0050900C7050900E5
:10118000BE050900B5050800AD050800A505090064
:101190009C050800940508008C05080084050800DB
:1011A0007C050800740508006C050700650508004B
:1011B0005D050700560508004E05070047050700B6
:1011C0004005080038050700310507002A0507001B
:1011D000230507001C050600160507000F0507007C
:1011E0000805060002050700FB040600F5040700D9
:1011F000EE040600E8040600E2040700DB04060033
:10120000D5040600CF040600C9040600C304060086
:10121000BD040600B7040600B1040500AC040600D6
:10122000A6040600A00405009B0406009504050022
:10123000900406008A040500850405008004060069
:101240007A04050075040500700405006B040500B0
:1012500066040500610405005C04050057040500F0
:10126000520405004D040500480405004304050030
:101270003E0404003A04050035040500300404006F
:101280002C04050027040400230405001E040400A8
:101290001A04040016040500110404000D040400DF
:1012A000090405000404040000040400FC03040015
:1012B000F8030400F4030400F0030400EC0304004A
:1012C000E8030400E4030400E0030400DC0304007A
:1012D000D8030400D4030400D0030400CC030400AA
:1012E000C8030300C503030024F404D9201BC40C65
:1012F0005C0E9804C4095F0265077101F405F900EA
:10130000FB04B30048048700C1036900580355007B
:1013100003034500BE023A008402310053022A0052
:101320002902250004022000E4011C00C801190064
:10133000AF0117009801140084011300710110001F
:101340006101100051010E0043010D0036010B0038
:101350002B010B0020010B00150109000C010900F5
:1013600003010800FB000800F3000800EB00070081
:10137000E4000600DE000600D8000600D2000600E9
:10138000CC000500C7000500C2000500BD00040038
:10139000B9000400B5000400B1000400AD00040071
:1013A000A9000400A5000300A20003009F000400A0
:1013B0009B000300980003009500020093000300C7
:1013C000900003008D0002008B00030088000200E3
:1013D0008600020084000300810002007F000200FA
:1013E0007D0002007B00020079000200770001000E
:1013F0007600020074000200720001007100020019
:101400006F0002006D0001006C0002006A00010024
:10141000690002006700010066000100650001002C
:101420006400020062000100610001006000010030
:101430005F0002005D0001005C0001005B00010034
:101440005A00010059000100580001005700010036
:101450005600010055000100540001005300000037
:101460005300010052000100510001005000010032
:101470004F0001004E0000004E0001004D00010031
:101480004C0001004B0000004B0001004A0001002D
:101490004900010048000000480001004700010029
:1014A0004600000046000100450000004500010024
:1014B000440001004300000043000100420000001E
:1014C0004200010041000000410001004000010015
:1014D0003F0000003F0001003E0000003E00010010
:1014E0003D0000003D0001003C0000003C00000009
:1014F0003C0001003B0000003B0001003A000000FE
:101500003A000100390000003900010038000000F5
:1015100038000000380001003700000037000100EB
:1015200036000000360000003600010035000000E3
:1015300035000000350001003400000034000000D8
:1015400034000100330000003300000033000100CC
:1015500032000000320000003200010031000000C3
:1015600031000000310001003000000030000000B8
:10157000300001002F0000002F0000002F000000AD
:101580002F0001002E0000002E0000002E000100A0
:101590002D0000002D0000002D0000002D00010096
:1015A0002C0000002C0000002C0000002C0001008A
:1015B0002B0000002B0000002B0000002B0001007E
:1015C0002A0000002A0000002A0000002A00010072
:1015D0002900000029000000290000002900000067
:1015E0002900010028000000280000002800000059
:1015F000280000002800010027000000270000004C
:10160000270000002700000027000100260000003E
:101610002600000026000000260000002600010031
:101620002500000025000000250000002500000026
:101630002500000025000100240000002400000017
:10164000240000002400000024000100230000000A
:1016500023000000230000002300000023000000FE
:1016600023000000230001002200000022000000EF
:1016700022000000220000002200000022000100E1
:1016800021000000210000002100000021000000D6
:1016900021000000210000002100010020000000C6
:1016A00020000000200000002000000020000000BA
:1016B0002000000020000000200001001F000000AA
:1016C0001F0000001F0000001F0000001F0000009E
:1016D0001F0000001F0001001E0000001E0000008F
:1016E0001E0000001E000000546865726D616C20D1
:1016F00052756E6177617900544845524D414C20D6
:1017000052554E41574159004B494C4C45442E20AF
:1017100000202D20496E76616C69642065787472B2
:1017200075646572206E756D62657220210A0048CD
:10173000656174696E67206661696C6564004865FF
:101740006174696E67206661696C656400486561F3
:1017500074696E67206661696C65640048656174D0
:10176000696E67206661696C6564004D494E544539
:101770004D502074726967676572656400457272C6
:101780003A204D494E54454D502042454400457243
:10179000723A204D494E54454D50004D41585445E4
:1017A0004D50207472696767657265640045727296
:1017B0003A204D415854454D502042454400457211
:1017C000723A204D415854454D50006265640A00FC
:1017D0002C2073797374656D2073746F70706564F9
:1017E00021204865617465725F49443A2000236492
:1017F0006566696E65202044454641554C545F4BF3
:1018000064200023646566696E6520204445464176
:10181000554C545F4B69200023646566696E6520F2
:101820002044454641554C545F4B7020005049447C
:10183000204175746F74756E652066696E69736892
:101840006564212050757420746865206C61737420
:10185000204B702C204B6920616E64204B64206308
:101860006F6E7374616E74732066726F6D20626543
:101870006C6F7720696E746F20436F6E6669677551
:10188000726174696F6E2E680A0050494420417578
:10189000746F74756E65206661696C65642120746F
:1018A000696D656F75740A00504944204175746F05
:1018B00074756E65206661696C6564212054656D80
:1018C000706572617475726520746F6F20686967E6
:1018D000680A00204B643A2000204B693A2000201F
:1018E0004B703A20000A20436C6173736963205087
:1018F0004944200A002054753A2000204B753A20B4
:1019000000206D61783A2000206D696E3A20002039
:10191000643A200020626961733A200070012C0152
:1019200090012701B0012201C0011D01F001180141
:101930001002130130020E0160020901900204013D
:10194000C002FF000003FA004003F5008003F0002E
:10195000D003EB002004E6007004E100E004DC00AA
:101960004005D700C005D2004006CD00D006C80013
:101970008007C3003008BE00F008B900C009B400F9
:10198000B00AAF00B00BAA00D00CA500000EA0005A
:10199000500F9B00C01096005012910000148C0054
:1019A000C0158700B0178200B0197D00D01B7800E9
:1019B000001E730040206E0090226900F024640035
:1019C00040275F0090295A00E02B5500102E500050
:1019D00020304B0010324600E033410090353C008F
:1019E0001037370070383200A0392D00B03A280087
:1019F000A03B2300603C1E00103D1900903D1400E8
:101A0000103E0F00703E0A00C03E0500003F00007F
:101A1000403FFBFF803FF6FFC03FF1FF5468657217
:101A20006D6973746F727300426F61726420496EE6
:101A3000666F005072696E74657220496E666F0041
:101A40004D61696E0042696C696E656172204C651A
:101A500076656C696E67004578747275646572733B
:101A60003A2031007777772E637265616C697479FB
:101A700033642E636E00456E6465722D3548003206
:101A80003031392D30342D313200312E312E364265
:101A90004C5F5633004D61726C696E005053553A7D
:101AA000204154580050726F746F636F6C3A20314C
:101AB0002E3000426175643A2031313532303000C9
:101AC0004D656C7A692028437265616C6974792967
:101AD000004D61782054656D703A20313235004DEB
:101AE000696E2054656D703A203500544265643A41
:101AF0004550434F53203130304B004D61782054D6
:101B0000656D703A20323735004D696E2054656D31
:101B1000703A20350054303A204550434F5320311D
:101B200030304B0046696C2E204469612E004669B6
:101B30006C2E204469612E004520696E206D6D3346
:101B4000004F6666004F6E2000436F6E74726F6CBC
:101B50000053746570732F6D6D004A65726B0041A0
:101B60006363656C65726174696F6E0056656C6F56
:101B700063697479005A204F6666736574005A2051
:101B80004F666673657400436F6E74726F6C0045C8
:101B900073746570732F6D6D004573746570732F6A
:101BA0006D6D005A73746570732F6D6D005A737488
:101BB0006570732F6D6D005973746570732F6D6D43
:101BC000005973746570732F6D6D00587374657070
:101BD000732F6D6D005873746570732F6D6D004DAC
:101BE0006F74696F6E0056652D6A65726B0056657D
:101BF0002D6A65726B0056652D6A65726B00567AA8
:101C00002D6A65726B00567A2D6A65726B00567983
:101C10002D6A65726B0056792D6A65726B00567974
:101C20002D6A65726B0056782D6A65726B00567866
:101C30002D6A65726B0056782D6A65726B004D6F68
:101C400074696F6E00416D6178204500416D617867
:101C5000204500416D6178205A00416D6178205A1D
:101C600000416D6178205900416D61782059004133
:101C70006D6178205800416D6178205800412D74C5
:101C8000726176656C00412D74726176656C0041FD
:101C90002D7265747261637400412D726574726196
:101CA000637400416363656C00416363656C004D60
:101CB0006F74696F6E005654726176206D696E00A4
:101CC0005654726176206D696E00565472617620AA
:101CD0006D696E00566D696E00566D696E00566DC9
:101CE000696E00566D6178204500566D617820451B
:101CF00000566D6178204500566D6178205A005677
:101D00006D6178205A00566D6178205A00566D61D9
:101D100078205900566D6178205900566D61782001
:101D20005900566D6178205800566D617820580032
:101D3000566D61782058004D6F74696F6E00537452
:101D40006F72652073657474696E677300426564B1
:101D50000042656400426564004E6F7A7A6C6500EB
:101D60004E6F7A7A6C65004E6F7A7A6C65004661C8
:101D70006E2073706565640046616E2073706565E2
:101D8000640046616E2073706565640054656D7013
:101D90006572617475726500507265686561742062
:101DA00041425320636F6E660050726568656174CE
:101DB00020504C4120636F6E660046616E20737048
:101DC0006565640046616E207370656564004661F8
:101DD0006E2073706565640042656400426564004E
:101DE000426564004E6F7A7A6C65004E6F7A7A6C49
:101DF00065004E6F7A7A6C6500436F6E74726F6C1B
:101E00000053746F7720424C546F756368004D32F5
:101E1000383020503020533930004465706C6F7971
:101E200020424C546F756368004D3238302050307A
:101E30002053313000424C546F7563682053656CF9
:101E4000662D54657374004D323830205030205365
:101E500031323000526573657420424C546F7563A3
:101E600068004D3238302050302053313630004D2C
:101E700061696E00496E697469616C697A652045B3
:101E80004550524F4D004C6F616420736574746906
:101E90006E67730053746F72652073657474696E36
:101EA000677300424C546F7563680046696C616DDE
:101EB000656E74004D6F74696F6E0054656D70656A
:101EC000726174757265004D61696E004578747257
:101ED00075646572004D6F7665205A004D6F7665AA
:101EE0002059004D6F766520580050726570617200
:101EF00065004D6F766520302E316D6D004D6F762B
:101F00006520316D6D004D6F76652031306D6D004F
:101F10004D6F7665206178697300457874727564D9
:101F20006572004D6F7665205A004D6F76652059B9
:101F3000004D6F766520580045787472756465723F
:101F4000004D6F7665205A004D6F76652059004D23
:101F50006F766520580047323800507265686561B9
:101F60007420414253005072656865617420504C82
:101F70004100436F6F6C646F776E004469736162F8
:101F80006C65207374657070657273004D38340031
:101F9000426564204C6576656C696E67004732382F
:101FA0000A473239004175746F20686F6D65004DC6
:101FB0006F76652061786973004D61696E005072BB
:101FC0006568656174204142532042656400507227
:101FD00065686561742041425320456E640050720B
:101FE000656865617420414253005072657061728A
:101FF00065005072656865617420504C41204265EF
:1020000064005072656865617420504C4120456ED3
:1020100064005072656865617420504C41005072D4
:10202000657061726500466C6F7700466C6F770073
:10203000466C6F770046616E20737065656400467C
:10204000616E2073706565640046616E2073706513
:102050006564004265640042656400426564004E48
:102060006F7A7A6C65004E6F7A7A6C65004E6F7A83
:102070007A6C650053706565640053706565640033
:102080005370656564004D61696E0041626F7574DF
:10209000205072696E74657200436F6E74726F6C5B
:1020A00000507265706172650054756E6500496E0E
:1020B000666F2073637265656E005A0059005800A0
:1020C000506C656173652072657365740050524988
:1020D0004E5445522048414C5445440009200000CC
:1020E000060900FE070192032120FFFF08FF07FFFA
:1020F00000000006000001070706020080808080C3
:10210000800080030202060105A0A0050707060063
:10211000005050F850F8505005070706000020788E
:10212000A07028F020050707060000C0C810204056
:1021300098180507070600006090A040A890680264
:102140000303060104C04080030707060100204086
:102150008080804020030707060100804020202067
:10216000408005050506000120A870A8200505058A
:102170000600012020F820200203030602FFC040D1
:1021800080050101060003F8020202060200C0C039
:102190000505050600010810204080050707060018
:1021A000007088888888887003070706010040C08F
:1021B00040404040E0050707060000708808708036
:1021C00080F8050707060000F81020100808F00541
:1021D000070706000010305090F81010050707069A
:1021E0000000F880F00808887005070706000070F6
:1021F0008080F0888870050707060000F808102026
:1022000020202005070706000070888870888870E5
:102210000507070600007088887808087002050521
:10222000060200C0C000C0C00206060602FFC0C011
:1022300000C04080040707060000102040804020B6
:1022400010050303060002F800F804070706010062
:102250008040201020408005070706000070880895
:102260001020002005070706000070880868A8A84D
:1022700070050707060000708888F88888880507B9
:1022800007060000F08888F08888F0050707060038
:102290000070888080808870050707060000F0883D
:1022A00088888888F0050707060000F88080F0809D
:1022B00080F8050707060000F88080F08080800520
:1022C0000707060000708880B88888700507070631
:1022D0000000888888F8888888010707060200803F
:1022E000808080808080050707060000381010106D
:1022F0001090600507070600008890A0C0A0908895
:10230000050707060000808080808080F8050707A9
:1023100006000088D8A88888888805070706000076
:102320008888C8A8988888050707060000708888EC
:1023300088888870050707060000F08888F080808C
:102340008005070706000070888888A89068050740
:1023500007060000F08888F0A090880507070600AF
:1023600000788080700808F0050707060000F82054
:1023700020202020200507070600008888888888FC
:10238000887005070706000088888888885020051F
:1023900007070600008888888888A8500507070670
:1023A00000008888502050888805070706000088AC
:1023B000888850202020050707060000F808102014
:1023C0004080F8030707060100E08080808080E0FD
:1023D00005050506000180402010080307070601D7
:1023E00000E02020202020E0050303060004205008
:1023F00088050101060000F802020206020580407D
:1024000005050506000070087888780507070600AE
:10241000008080B0C88888F005050506000070803F
:102420008088700507070600000808689888887883
:102430000505050600007088F8807005070706008E
:10244000003048E0404040400506060600FF708826
:10245000887808700507070600008080B0C8888863
:1024600088010707060200800080808080800308C2
:10247000080601FF200020202020A04004070706B6
:102480000000808090A0C0A090030707060100C054
:102490004040404040E0050505060000D0A8A8A83F
:1024A000A8050505060000B0C8888888050505064A
:1024B000000070888888700506060600FFF088888E
:1024C000F080800506060600FF78888878080805F1
:1024D0000505060000B0C8808080050505060000DF
:1024E00070807008F00407070600004040E040409C
:1024F00040300505050600008888889868050505B0
:102500000600008888885020050505060000888898
:10251000A8A850050505060000885020508805062B
:10252000060600FF88888878087005050506000003
:10253000F8102040F80307070601002040408040C3
:102540004020010707060200808080808080800391
:102550000707060100804040204040800502020637
:102560000002689000000006000000000006000065
:102570000000000600000000000600000000000649
:10258000000000000006000000000006000000003F
:102590000006000000000006000000000006000029
:1025A0000000000600000000000600000000000619
:1025B000000000000006000000000006000000000F
:1025C00000060000000000060000000000060000F9
:1025D00000000006000000000006000000000006E9
:1025E00000000000000600000000000600000000DF
:1025F00000060000000000060000000000060000C9
:1026000000000006000000000006000000000006B8
:1026100000000000000600000000000600000000AE
:102620000006000000000006000000000006000098
:102630000107070602008000808080808005070770
:102640000600002070A8A0A870200507070600005B
:10265000304040E04050A805050506000088705055
:102660007088050707060000885020F820F8200130
:102670000707060200808080008080800508080629
:1026800000003048205050209060030101060107EF
:10269000A0050707060000F888B8B8B888F805074D
:1026A00007060001700878887800F805050506001F
:1026B000012850A05028050303060001F80808026D
:1026C00002020602064080050707060000F888A8F7
:1026D0008898A8F8050101060006F804040406001D
:1026E00003609090600507070600002020F8202076
:1026F00000F804050506000360902040F00305057E
:10270000060003E020E020E002020206020640800C
:102710000508080600FF8888888898E880800507F3
:102720000706000078989878181818020202060226
:1027300002C0C00202020602FF4080030505060037
:102740000340C04040E00507070600017088888804
:102750007000F8050505060001A0502850A00507E7
:10276000070600008890A858B80808050707060063
:10277000008890B848982038050808060000C04036
:10278000C048D83808080507070600002000204088
:102790008088700508080600004020007088F888CE
:1027A000880508080600001020007088F888880551
:1027B00008080600002050007088F888880508087E
:1027C0000600006890007088F888880508080600F0
:1027D000005000708888F8888805080806000020E6
:1027E00050207088F888880507070600003860A028
:1027F000B8E0A0B80508080600FF708880808870DF
:102800002060050808060000402000F880F080F8ED
:10281000050808060000081000F880F080F8050898
:1028200008060000205000F880F080F80507070631
:1028300000005000F880F080F803080806010080CE
:102840004000E0404040E00308080601002040004E
:10285000E0404040E003080806010040A000E040DE
:102860004040E0030707060100A000E0404040E0D0
:10287000050707060000704848E848487005080842
:1028800006000068900088C8A89888050808060017
:1028900000402070888888887005080806000010AD
:1028A000207088888888700508080600002050007D
:1028B0007088888870050808060000689000708895
:1028C000888870050808060000500070888888888D
:1028D0007005050506000188502050880508080687
:1028E00000FF1070A8A8A8A87040050808060000FE
:1028F0004020888888888870050808060000102015
:10290000888888888870050808060000205000889C
:102910008888887005080806000050008888888824
:10292000887005080806000010208850202020200C
:102930000509090600FFC040704848704040E004A7
:1029400008080601FF609090A09090E080050808BC
:102950000600004020007008788878050808060006
:10296000001020007008788878050808060000200C
:102970005000700878887805080806000068900004
:1029800070087888780507070600005000700878FE
:10299000887805080806000020502070087888789C
:1029A000050606060000D02878A0A85005060606F1
:1029B00000FF708088702060050808060000402035
:1029C000007088F88070050808060000102000706C
:1029D00088F880700508080600002050007088F80C
:1029E000807005070706000050007088F8807003AB
:1029F000080806010080400040C04040E00308088D
:102A000006010020400040C04040E00308080601E5
:102A10000040A00040C04040E0030707060100A0BE
:102A20000040C04040E0050707060000A040A0109D
:102A3000788870050808060000689000B0C888888B
:102A40008805080806000040200070888888700506
:102A500008080600001020007088888870050808A3
:102A6000060000205000708888887005080806005D
:102A7000006890007088888870050707060000507D
:102A80000070888888700505050600012000F800A0
:102A9000200507070600FF1070A8A8A870400508C9
:102AA0000806000040200088888898680508080605
:102AB0000000102000888888986805080806000033
:102AC0002050008888889868050707060000500095
:102AD00088888898680509090600FF102000888802
:102AE00088F808700407070601FFC0406050604086
:102AF000E00508080600FF50008888887808700004
:102B0000060900FE000000000001090008FE0000A8
:102B100005080806000040F0C88888987810050865
:102B200008060000C0F88888888888F8050505062A
:102B300000012030F830200508080600002070F859
:102B400020202020E00509090600FF2070A8A8B871
:102B5000888870200509090600FFE080C0B0A82819
:102B60003028280509090600FFF8A8888888888881
:102B7000A8F8050A0A0600FE205050505088A8A860
:102B8000887003030306000340A04000000000001B
:102B900000000000000000003FFFF0000000000007
:102BA000000000000000000038007000000000007D
:102BB000000000000000000030FC300000000000B9
:102BC000000000000000000020FC100000000000D9
:102BD000000000000000000020781000000000004D
:102BE0000000000000000000203010F80080003CD1
:102BF00000000000000000002C00D04800800020F1
:102C00001FE00000104100002E31D043C399A038CE
:102C10003FF00000082080002F7BD07124A4CF84D7
:102C20003FF00000082080002F7BD04124BC8004AE
:102C30003FF00000104100002E31D04924A0802434
:102C40001FE00000208200002C00D0FBB39DC018C4
:102C50001FE00000410400002030100000000000D0
:102C60003FF0000041040000207810000000000048
:102C70003FF000002082000020FC10000000000057
:102C80003FF000001041000030FC30000000000068
:102C90000FC00000000000003800700000000000BD
:102CA00007800000FFFFC0003FFFF00000000000B1
:102CB00003000000FFFFC000000000000000000053
:102CC00000000000000000003FFFF00000000000D6
:102CD000000000000000000038007000000000004C
:102CE00000000000000000003387300000000000FA
:102CF0000000000000000000278790000000000096
:102D000000000000000000002F87D000000000003D
:102D100000000000000000002F87D0F80080003C79
:102D200000000000000000002F03D04800800020B9
:102D30001FE000000820800020301043C399A03815
:102D40003FF00000041040002078107124A4CF84CC
:102D50003FF00000041040002078104124BC8004A3
:102D60003FF00000082080002030104924A080247B
:102D70001FE00000104100002F03D0FBB39DC018DE
:102D80001FE00000208200002F87D000000000001C
:102D90003FF00000208200002F87D00000000000DC
:102DA0003FF0000010410000278790000000000065
:102DB0003FF0000008208000338730000000000052
:102DC0000FC000000000000038007000000000008C
:102DD00007800000FFFFC0003FFFF0000000000080
:102DE00003000000FFFFC00000000000000001021F
:102DF00000090A00000000040308070000000000AA
:102E000000000000000000000000000102040810A3
:102E100020408001020408102040800102040810B4
:102E200020408080402010080402010202020202B9
:102E3000020202040404040404040403030303035D
:102E4000030303010101010101010100002000232E
:102E5000002600290000002200250028002B000089
:102E6000002100240027002A00001A4DE571D5BF7B
:102E700011241FBECFEFD0E4DEBFCDBF12E0A0E033
:102E8000B1E0E0E7F1EB01E00BBF02C007900D926B
:102E9000AC3CB107D9F72EE0ACECB2E001C01D921A
:102EA000AE3CB207E1F717E1C8E3D7E104C02197D0
:102EB000FE010E9430D1C533D107C9F70E9469CD08
:102EC0000C94B6D80C9400001F920F920FB60F927C
:102ED00011240BB60F922F938F939F93EF93FF9331
:102EE000E0914C0381E08E0F8F779091C600209186
:102EF0004D03821731F0F0E0E453FD4F908380934F
:102F00004C03FF91EF919F918F912F910F900BBEEA
:102F10000F900FBE0F901F9018959B01AC012115CB
:102F200081EE38074105510549F182E08093C000E8
:102F300060E079E08DE390E00E9411D1CA01B9010F
:102F4000615071098109910922E030E040E050E0D0
:102F50000E9411D13093C5002093C4008091C1001C
:102F600080618093C1008091C10088608093C1001E
:102F70008091C10080688093C10008951092C000C4
:102F800020E130E0E7CF8FB7F89490914D03209186
:102F90004C03921759F0E92FF0E0E453FD4F2081E4
:102FA00030E09F5F9F7790934D0302C02FEF3FEF7C
:102FB0008FBFC90108958FB7F89490914D039093F6
:102FC0004C038FBF08959091C00095FFFCCF809374
:102FD000C60008950C94E3178F929F92AF92BF9210
:102FE000EF92FF920F931F93CF93DF93CDB7DEB78E
:102FF000A0970FB6F894DEBF0FBECDBF6115710567
:1030000081059105A1F100E0842E912CA12CB12C19
:10301000102FEE24E394F12CEC0EFD1EE00EF11CBB
:1030200007FDFA94A50194010E94EFD0F701608397
:10303000B901CA010F5F611571058105910541F75D
:103040001F3F51F1E1E0F0E0EC0FFD1FE10FF11D3A
:1030500017FDFA9580818A3010F097E301C090E364
:1030600060E070E0890F0E9488181150E9CF60E09D
:1030700070E080E3A0960FB6F894DEBF0FBECDBF20
:10308000DF91CF911F910F91FF90EF90BF90AF9084
:103090009F908F900C948818A0960FB6F894DEBF7E
:1030A0000FBECDBFDF91CF911F910F91FF90EF9099
:1030B000BF90AF909F908F900895CF92DF92EF9244
:1030C000FF926B017C014115510539F4862FFF9069
:1030D000EF90DF90CF900C94E3174A30510581F4C4
:1030E00097FF0DC060E070E08DE20E948818F094B8
:1030F000E094D094C094C11CD11CE11CF11C4AE0A6
:10310000C701B601FF90EF90DF90CF900C94EC17C1
:10311000AB01682F880F770B880B990B0C945D1807
:1031200060E070E08DE00E94881860E070E08AE066
:103130000C948818AB01BC01990F880B990B0C9467
:103140005D184115510519F4862F0C94E3170C9462
:10315000EC17AB01682F70E080E090E00C94A118B0
:10316000AB01BC0180E090E00C94A1180E94B01863
:103170000C9490188F929F92AF92BF92CF92DF9251
:10318000EF92FF92CF936B017C01B42E20E030E0F0
:10319000A9010E94FDCD87FF09C060E070E08DE2CB
:1031A0000E948818F7FAF094F7F8F094C0E060E015
:1031B00070E080E09FE3CB1541F02DEC3CEC4CEC53
:1031C0005DE30E94ECCFCF5FF6CF9B01AC01C7015E
:1031D000B6010E947ACD6B017C010E947BCE4B012F
:1031E0005C014AE00E94EC17CC23A1F1C501B401B7
:1031F0000E94AACE9B01AC01C701B6010E9479CD05
:103200006B017C0160E070E08EE20E94881820E093
:1032100030E040E251E4C701B6010E94ECCF4B011F
:103220005C010E9474CE6B017C016AE070E0C60113
:103230000E949A18B601DD0C880B990B0E94ACCE47
:103240009B01AC01C501B4010E9479CD6B017C01E9
:10325000C150E9F6CF91FF90EF90DF90CF90BF90F3
:10326000AF909F908F9008950C94BA182F923F9230
:103270004F925F926F927F928F929F92AF92BF9286
:10328000CF92DF92EF92FF920F931F93CF93DF9332
:10329000CDB7DEB72C970FB6F894DEBF0FBECDBF0B
:1032A000182F062FF42E522E262F30E03C872B8726
:1032B000E4E08E9FC00111249A878987FC01E20F08
:1032C000F31FEE0FFF1FEE0FFF1FE650FC4F608154
:1032D0007181828193819B01AC010E949FD08823E0
:1032E00009F41DC18AE00E94EA171F0D202F250D49
:1032F000F4E01F9FD0011124EB85FC85EA0FFB1F32
:10330000EE0FFF1FEE0FFF1FE650FC4FA080B180B5
:10331000C280D3801F0D34E0139FA0011124EB85E0
:10332000FC85E40FF51FEE0FFF1FEE0FFF1FE650A9
:10333000FC4FE080F18002811381822F90E0E985CB
:10334000FA85E80FF91FEE0FFF1FEE0FFF1FE65083
:10335000FC4F9080818072806380250D30E0E9858C
:10336000FA85E20FF31FEE0FFF1FEE0FFF1FE6506F
:10337000FC4F5080418032802380A80FB91FAA0FD4
:10338000BB1FAA0FBB1FA650BC4F8C9189831196FF
:103390009C9111979A831296EC911297EB83139656
:1033A000FC91FC83FA01E20FF31FEE0FFF1FEE0FFB
:1033B000FF1FE650FC4F20812D8331813E838281A7
:1033C0008F83938198879701A801B701C8010E9454
:1033D0009FD0882321F0E12CF12C00E010E0950132
:1033E000A601B501C6010E949FD0882311F05701A4
:1033F0006801252D342D432D522D652D742D832DDF
:10340000922D0E949FD0882321F0512C412C312CE9
:10341000212C292D382D472D562D692D782D872DBE
:10342000962D0E949FD0882311F0420131012D81F9
:103430003E814F8158856D817E818F8198850E9464
:103440009FD0882321F01D821E821F821886298129
:103450003A814B815C8169817A818B819C810E9458
:103460009FD0882341F0ED81E983FE81FA832F818B
:103470002B8338853C838B859C85E985FA858E0F67
:103480009F1F880F991F880F991F86509C4F9A87FE
:1034900089879501A601B501C6010E947ACD9701E1
:1034A000A8010E9479CD6B017C01292D382D472D73
:1034B000562D692D782D872D962D0E947ACD252D9C
:1034C000342D432D522D0E9479CD9B01AC01C701B3
:1034D000B6010E947ACD6B017C0129813A814B8132
:1034E0005C8169817A818B819C810E947ACD2D815A
:1034F0003E814F8158850E9479CD9B01AC01C70167
:10350000B6010E947ACD20E030E040E450E40E9411
:1035100002CEE985FA8560837183828393832C963A
:103520000FB6F894DEBF0FBECDBFDF91CF911F91D4
:103530000F91FF90EF90DF90CF90BF90AF909F9052
:103540008F907F906F905F904F903F902F90089555
:103550000E9420CB609361047093620480936304A3
:103560009093640408958091290190912A01A0917B
:103570002B01B0912C018093870490938804A09331
:103580008904B0938A048091270190912801909337
:1035900086048093850484E690E0909328018093CC
:1035A00027010C94A81A8091870490918804A09117
:1035B0008904B0918A048093290190932A01A093F1
:1035C0002B01B0932C0180918504909186049093F7
:1035D0002801809327010C94A81A2F923F924F92B2
:1035E0005F926F927F928F929F92AF92BF92CF9293
:1035F000DF92EF92FF920F931F93CF93DF93EB0134
:10360000FC0180809180A280B380C501B40120E8D4
:1036100031E541E050E00E94EFD0C9016DE671E074
:103620000E94C7D06B017C01C501B40120E13EE0DE
:1036300040E050E00E94EFD0CA01B90128E130E03B
:1036400040E050E00E94EFD0362E272E062F172F95
:103650008CE3482E512C612C712CC501B401A301BF
:1036600092010E94EFD0B62EA72ECA01B901A30184
:1036700092010E94EFD0CB01C114D104D9F0AF92D6
:10368000BF927F936F932F923F92FF92EF92DF92C0
:10369000CF928AE79BE09F938F93DF93CF930E9413
:1036A0007BD58DB79EB70E960FB6F8949EBF0FBE12
:1036B0008DBF5CC0E114F104C9F0AF92BF927F935B
:1036C0006F932F923F92FF92EF928AE69BE09F9337
:1036D0008F93DF93CF930E947BD5EDB7FEB73C96D7
:1036E0000FB6F894FEBF0FBEEDBF40C0012BB9F07E
:1036F000AF92BF927F936F932F923F928EE59BE0A4
:103700009F938F93DF93CF930E947BD58DB79EB706
:103710000A960FB6F8949EBF0FBE8DBF27C0892BA7
:10372000A9F0AF92BF927F936F9386E59BE09F9342
:103730008F93DF93CF930E947BD5EDB7FEB738967A
:103740000FB6F894FEBF0FBEEDBF10C0AF92BF9290
:1037500082E59BE09F938F93DF93CF930E947BD56D
:103760000F900F900F900F900F900F90DF91CF91CF
:103770001F910F91FF90EF90DF90CF90BF90AF908F
:103780009F908F907F906F905F904F903F902F9081
:10379000089581548A3150F5482F50E0FA0193E0A2
:1037A000F595E7959A95E1F7EE59F94F208130E0CC
:1037B000877002C0359527958A95E2F7822F817030
:1037C00020FF15C0FA01E85BF94F9081992339F089
:1037D00020916D0630916E06290F311D02C020E048
:1037E00030E030936A0620936906089580E00895DA
:1037F0000E94C91B882341F081E020916906309125
:103800006A06232B09F480E008950F931F93CF934A
:103810008091690690916A06009711F1FC018F0171
:10382000C1912C2F2F7DA9F0C53411F0C536B9F701
:10383000F801108260E070E08091690690916A065C
:103840000E9462D1F801C083562F472F382F292FAD
:103850000BC060E070E0CF911F910F910C9462D18A
:1038600050E040E030E020E0652F742F832F922F4E
:10387000CF911F910F9108958091690690916A06EA
:10388000009731F04AE050E060E070E00C94BED266
:1038900060E070E0CB0108958091690690916A061E
:1038A000009731F04AE050E060E070E00C94ECD317
:1038B00060E070E0CB0108950E943C1C97FD0CC0B5
:1038C0000E943C1C6F3F71058105910509F034F49D
:1038D0000E943C1C862F089580E008958FEF089584
:1038E0008091690690916A06892B39F00E945C1CD0
:1038F00091E0811103C090E001C091E0892F08950B
:103900000F931F93CF93DF93CDB7DEB72C970FB6EE
:10391000F894DEBF0FBECDBFEEE2F6E08085918564
:10392000A285B385448155816681778100811181AB
:103930002281338109871A872B873C874D835E83D9
:103940006F83788789839A83AB83BC83AE014F5F93
:103950005F4FBE016B5F7F4FCE0109960E9475637A
:103960002AE336E0AE014F5F5F4FBE016B5F7F4FD2
:10397000CE0109960E94E36F2C960FB6F894DEBF35
:103980000FBECDBFDF91CF911F910F910895CF93BF
:10399000DF9300D0CDB7DEB72091C80E3091C90EAD
:1039A000CE0101962115310519F48E5C9E4002C0AE
:1039B000821B930B9A83898389819A810F900F9040
:1039C000DF91CF910895FF920F931F93CF93DF93D1
:1039D000FC0120812B3319F1D0910F06D430F8F47B
:1039E000F62EBC01C0910D060C2F10E0F0E6CF9F23
:1039F000C001112483579B4F0E9457D5F801E6510F
:103A0000FC4FF082CF5FC43018F4C0930D0602C0A3
:103A100010920D06DF5FD0930F0681E001C080E0B9
:103A2000DF91CF911F910F91FF900895EF92FF9238
:103A30001F93CF93DF937C010E94E31C182F8823F0
:103A4000B1F0E9ECFEE08491EF012196882321F0AA
:103A50000E94EA17FE01F7CFB70189E594E00E94C2
:103A6000E97182E20E94EA178AE00E94EA17812F38
:103A7000DF91CF911F91FF90EF900895DF92EF9229
:103A8000FF920F931F93CF93DF93CDB7DEB76E975F
:103A90000FB6F894DEBF0FBECDBF60918B0470915E
:103AA0008C046115710551F14DE150E0CE01019694
:103AB0007C010E941AD51E8EF7018F010E191F0975
:103AC000D190DD2019F09AE0D912F7CFF701E00F7D
:103AD000F11F108260E0C7010E94161D882371F05B
:103AE000DD20A9F00F5F1F4F80918B0490918C0413
:103AF000080F191F10938C0400938B0481E0209110
:103B00008B0430918C04232B29F480E003C000E067
:103B100010E0F0CF6E960FB6F894DEBF0FBECDBFAB
:103B2000DF91CF911F910F91FF90EF90DF9008955B
:103B300090938C0480938B040C943E1DAF92BF92A3
:103B4000CF92DF92EF92FF920F931F93CF93DF9369
:103B5000EDE0F3E08491EF012196882321F00E94AB
:103B6000EA17FE01F7CFC0E0D0E010E080E20E944B
:103B7000EA171F5F1630D1F76AE070E0CE010E94AD
:103B80009A182196C430D10581F78AE00E94EA177D
:103B90008AEFA82E83E0B82EC0E0D0E080E20E9439
:103BA000EA176AE070E0CE010E949A1800E010E087
:103BB00080E20E94EA17F501E00FF11FC080D1807A
:103BC000E280F380A7019601C701B6010E949FD051
:103BD000811113C020E030E0A901C701B6010E94A5
:103BE000B4CF87FD03C08BE20E94EA1743E050E0A8
:103BF000C701B6010E94341909C0F12C80E20E946D
:103C0000EA17F3948DE396E0F912F9CF005F1F4FA6
:103C10000034110569F68AE00E94EA17219684E0D3
:103C2000A80EB11CC430D10509F0B8CF8AE00E94BB
:103C3000EA178AEF92E090938C0480938B04DF91D3
:103C4000CF911F910F91FF90EF90DF90CF90BF9099
:103C5000AF900C943E1D6BE170E087EE93E00E9404
:103C6000FD7387EE93E00E9403746AE570E087EECF
:103C700093E00C941375EF92FF920F931F93CF93E1
:103C8000DF937C0184E50E94F81BD82F882341F143
:103C90000E945C1CC82F1816FCF4E9ECFEE084912D
:103CA0008F010F5F1F4F882321F00E94EA17F80150
:103CB000F6CF8DE40E94EA176AE070E0C7010E9427
:103CC000B0186C2FCC0F770B86E494E00E9404723E
:103CD0008AE00E94EA1708C080934E04D0E004C036
:103CE0008091690480934E048D2FDF91CF911F91B5
:103CF0000F91FF90EF900895CF92EF92FF920F9364
:103D00001F93CF93DF93CDB7DEB72C970FB6F89400
:103D1000DEBF0FBECDBFC0906904EEE2F6E0808545
:103D20009185A285B3854481558166817781008123
:103D300011812281338109871A872B873C874D8324
:103D40005E836F83788789839A83AB83BC83AE015C
:103D50004F5F5F4FBE016B5F7F4FCE0109960E94A0
:103D60007563E0902901F0902A0100912B011091D8
:103D70002C012AE336E0AE014F5F5F4FBE016B5F5F
:103D80007F4FCE0109960E94A7642C960FB6F89437
:103D9000DEBF0FBECDBFDF91CF911F910F91FF907E
:103DA000EF90CF9008958F929F92AF92BF92CF9253
:103DB000EF92FF920F931F93CF93DF93CDB7DEB7B0
:103DC0002C970FB6F894DEBF0FBECDBF4B015C0140
:103DD000C0906904EEE1F6E080859185A285B38507
:103DE00044815581668177810081118122813381EF
:103DF00009871A872B873C874D835E836F8378877B
:103E000089839A83AB83BC83AE014F5F5F4FBE0152
:103E10006B5F7F4FCE0109960E9475638501740127
:103E20002AE236E0AE014F5F5F4FBE016B5F7F4F0E
:103E3000CE0109960E94A7642C960FB6F894DEBFB7
:103E40000FBECDBFDF91CF911F910F91FF90EF90EB
:103E5000CF90BF90AF909F908F90089580E1EEE15A
:103E6000F6E0AEE2B6E001900D928A95E1F7089592
:103E700080E1EEE2F6E0AEE1B6E001900D928A95C7
:103E8000E1F708954F925F926F927F928F929F9287
:103E9000AF92BF92CF92DF92EF92FF920F931F9358
:103EA000CF93DF936C017B018A01E90180902901A6
:103EB00090902A01A0902B01B0902C01FA01208152
:103EC000318142815381609136067091370680912D
:103ED0003806909139060E94FDCD87FF2EC048809C
:103EE00059806A807B8020E030E0A901B201C301E3
:103EF0000E94FDCD811108C0EAE4FBE08591959117
:103F0000A591B4912C013D01C201D30180932901F7
:103F100090932A01A0932B01B0932C01F80180818A
:103F20009181A281B3818093360690933706A09346
:103F30003806B09339060E947C1E488059806A80FA
:103F40007B8020E030E0A901B201C3010E94FDCDD9
:103F5000811108C040900F01509010016090110134
:103F600070901201C201D3018093290190932A011C
:103F7000A0932B01B0932C01F60180819181A28145
:103F8000B38180932E0690932F06A0933006B093B2
:103F90003106F70180819181A281B381809332063D
:103FA00090933306A0933406B09335060E947C1E8E
:103FB000F8012081318142815381609136067091F0
:103FC000370680913806909139060E94B4CF1816B2
:103FD000A4F5D880E980FA80CB8120E030E0A90107
:103FE0006D2D7E2D8F2D9C2F0E94FDCD81110AC03D
:103FF000EAE4FBE085919591A591B491D82EE92E44
:10400000FA2ECB2F8D2D9E2DAF2DBC2F8093290105
:1040100090932A01A0932B01B0932C01F801808189
:104020009181A281B3818093360690933706A09345
:104030003806B09339060E947C1E0E94D47C809280
:10404000290190922A01A0922B01B0922C01DF91BC
:10405000CF911F910F91FF90EF90DF90CF90BF9085
:10406000AF909F908F907F906F905F904F9008954A
:104070009B01AC0162E376E08EE296E00C94421F75
:104080009A0146E356E00C94421FEF92FF921F9371
:10409000CF93DF93882329F0D0911B0681E0D827A6
:1040A00001C0D0E0662329F010911C0681E018279A
:1040B00001C010E0442329F0C0911D0681E0C8270B
:1040C00001C0C0E0D11102C0112319F0E9ECFEE0FB
:1040D00006C0C111FBCF7EC00E94EA17F701849190
:1040E0007F019FEFE91AF90A8111F6CFE0E4F4E0CD
:1040F00084917F019FEFE91AF90A882321F00E9439
:10410000EA17F701F5CFDD2369F0EEE3F4E08491DF
:104110007F019FEFE91AF90A882321F00E94EA172C
:10412000F701F5CF112369F0ECE3F4E084917F010E
:104130009FEFE91AF90A882321F00E94EA17F70194
:10414000F5CFCC2319F0EAE3F4E003C0E2E3F4E0B6
:104150000BC084917F019FEFE91AF90A8823B1F31C
:104160000E94EA17F701F5CF84917F019FEFE91ACA
:10417000F90A882321F00E94EA17F701F5CFCC2332
:1041800019F046EE51E002C041E552E0112319F06A
:1041900028EE31E002C021E532E0DD2319F08AEE9D
:1041A00091E002C081E592E05F934F933F932F939C
:1041B0009F938F9380E294E09F938F931F920E942E
:1041C00019BD8DB79EB709960FB6F8949EBF0FBE66
:1041D0008DBFC1E08C2FDF91CF911F91FF90EF90A9
:1041E0000895BC0187EE93E00E94137564E670E0C9
:1041F00080E090E00C94E5BFCF92DF92EF92FF92C7
:104200001F93CF93DF93CDB7DEB72C970FB6F894FB
:10421000DEBF0FBECDBF90914006981709F46BC06A
:10422000182F80E090E0A0E2B1E48D839E83AF83FD
:10423000B887C0904A04D0904B04E0904C04F090B2
:104240004D0420E030E0A901C701B6010E94FDCD78
:1042500087FF0CC0A701960160E070E080E291E466
:104260000E9479CD6D837E838F8398872D813E81D7
:104270004F815885609136067091370680913806D7
:10428000909139060E94FDCD87FF0BC019821A82DA
:104290001B821C82BE016F5F7F4FCE0105960E947C
:1042A000382080912E0690912F06A0913006B09173
:1042B000310689879A87AB87BC87809132069091B7
:1042C0003306A0913406B09135068D839E83AF836B
:1042D000B88719821A821B821C829E012F5F3F4F72
:1042E00046E356E0BE016B5F7F4FCE0109960E9408
:1042F000421F1093400680E02C960FB6F894DEBF64
:104300000FBECDBFDF91CF911F91FF90EF90DF9057
:10431000CF9008958091AD060895CF92DF92EF92ED
:10432000FF926091460470914704072E000C880BA1
:10433000990B0E94ACCE6B017C012DEB37E346E874
:1043400055EB0E94B4CF87FD0AC02DEB37E346E85A
:1043500055E3C701B6010E94FDCD18164CF4A70124
:10436000960160E070E080E89FE30E9402CE03C007
:1043700060E070E0CB0160933A0470933B0480935B
:104380003C0490933D046091480470914904072EC9
:10439000000C880B990B0E94ACCE6B017C012DEBBD
:1043A00037E346E855EB0E94B4CF87FD0AC02DEBFA
:1043B00037E346E855E3C701B6010E94FDCD181664
:1043C0004CF4A701960160E070E080E89FE30E9452
:1043D00002CE03C060E070E0CB0160933E047093B6
:1043E0003F048093400490934104FF90EF90DF904E
:1043F000CF900895CF92DF92EF92FF920F931F9389
:10440000CF93DF9383E2E82E82E0F82E0EE116E0F0
:10441000CEE2D6E091E8C92E94E0D92EF701819141
:104420007F010E94C91B8823E1F00E94051C9B01AB
:10443000AC01F6018081811104C080916804882359
:1044400029F0688179818A819B8103C060E070E0F6
:10445000CB010E947ACDF8016083718382839383BC
:1044600009C088819981AA81BB81F80180839183E9
:10447000A283B3830C5F1F4F2496FFEFCF1ADF0A8E
:1044800087E2E81682E0F80649F686E40E94F81B07
:104490008823C9F00E94051C20E030E0A9010E9499
:1044A000B4CF181684F40E94051C20E030E040E7E9
:1044B00052E40E9402CE6093290170932A018093F6
:1044C0002B0190932C01DF91CF911F910F91FF90C1
:1044D000EF90DF90CF900895CF92DF92EF92FF920E
:1044E0000F931F93CF93DF930E9420CB6B017C012E
:1044F00080910E01882309F465C08091E5039091B5
:10450000E603009709F45EC04091E1035091E20395
:104510006091E3037091E40397018601041B150B7E
:10452000260B370B37FD61C08330910509F130F45C
:10453000019708F447C0E9ECFEE006C0049709F0D3
:1045400041C0E9ECFEE02AC08491EF012196882366
:1045500021F00E94EA17FE01F7CFE3EAF3E084912D
:10456000EF012196882371F10E94EA17FE01F7CF2F
:10457000E9ECFEE08491EF012196882321F00E946E
:10458000EA17FE01F7CFECE8F3E08491EF01219602
:104590008823C1F00E94EA17FE01F7CF8491EF0152
:1045A0002196882321F00E94EA17FE01F7CFE4E765
:1045B000F3E08491EF012196882321F00E94EA170D
:1045C000FE01F7CF20910E0130E0A8EEB3E00E948B
:1045D00039D1C60ED71EE81EF91EC092E103D09253
:1045E000E203E092E303F092E403DF91CF911F91A5
:1045F0000F91FF90EF90DF90CF9008950F931F934E
:10460000CF93DF938C01ECE6F3E08491EF012196E8
:10461000882321F00E94EA17FE01F7CFF801849168
:10462000EF012196882321F00E94EA17FE01F7CFBF
:10463000E3E5F3E08491EF012196882321F00E94C5
:10464000EA17FE01F7CFDF91CF911F910F910895E7
:104650000F931F93CF93DF93CDB7DEB769970FB654
:10466000F894DEBF0FBECDBF8FE494E00E94507E71
:104670006E8B7F8B888F998FBE016F5F7F4FCE01CE
:1046800046960E94ED1A60E0CE0101960E94EABCB7
:10469000E9ECFEE084918F010F5F1F4F882321F02A
:1046A0000E94EA17F801F6CFBE016F5F7F4F88E9DD
:1046B00098E00E94E9718AE00E94EA1769960FB6B5
:1046C000F894DEBF0FBECDBFDF91CF911F910F9148
:1046D0000895EF92FF920F931F93CF9383E50E946B
:1046E000F81B882309F449C00E945C1C082F80E550
:1046F0000E94F81B882309F440C00E943C1CC62F6E
:10470000E62EF72EF7FC39C0E2EDF2E08AEF92E0F8
:104710002491C21729F031968E179F07C9F718C048
:10472000EFECFEE084918F010F5F1F4F882321F093
:104730000E94EA17F801F6CFE9E8F8E084918F01CA
:104740000F5F1F4F8823C9F00E94EA17F801F6CFC8
:1047500061E08C2F0E9462CC602F8C2F0E949ECC37
:1047600010E0B8018C2F0E94C1CB84E0E816F10460
:1047700021F410936B0400936A04CF911F910F9161
:10478000FF90EF90089588E690E00E943B1E811113
:1047900034C080913E0683FD30C083E50E94F81B43
:1047A000882349F10E94051C0E9474CE7093D00C9E
:1047B0006093CF0C80E00E9431820E94051C209102
:1047C000D70C3091D80C4091D90C5091DA0C0E9442
:1047D000B4CF181684F48CEE91E09F938F938DE7FD
:1047E00098E09F938F931F920E9419BD0F900F9096
:1047F0000F900F900F900C94B5710895FF920F9346
:104800001F93CF93DF938C01EB01F42E80E20E9483
:10481000EA178FEFF81611F084E501C082E40E94D8
:10482000EA178AE30E94EA17F801608171818281A8
:10483000938142E050E00E943419488159816A8195
:104840007B8180E593E0DF91CF911F910F91FF90E5
:104850000C943A720F931F93CF93DF93CDB7DEB7CB
:1048600028970FB6F894DEBF0FBECDBF6091CF0C76
:104870007091D00C072E000C880B990B0E94ACCEC7
:1048800069837A838B839C838091D70C9091D80C19
:10489000A091D90CB091DA0C8D839E83AF83B88739
:1048A0004EEFBE016F5F7F4FCE0105960E94FE2343
:1048B0006091CB0C7091CC0C072E000C880B990BDF
:1048C0000E94ACCE69837A838B839C838091D30CC6
:1048D0009091D40CA091D50CB091D60C8D839E8371
:1048E000AF83B8874FEFBE016F5F7F4FCE01059654
:1048F0000E94FE23ECE4F3E084918F010F5F1F4FD1
:10490000882321F00E94EA17F801F6CF80914E0427
:1049100090E00E943D7F6AE070E00E949A18E7E410
:10492000F3E084918F010F5F1F4F882321F00E94D5
:10493000EA17F801F6CF8FEF9FEF0E943D7F6AE004
:1049400070E00E949A1828960FB6F894DEBF0FBE4A
:10495000CDBFDF91CF911F910F910895CF93DF933A
:1049600083E50E94F81B882339F00E943C1CEB0170
:104970006F3F710519F010F0CFEFD0E080E50E9495
:10498000F81B811105C0D0936B04C0936A0404C066
:104990000E945C1C8823B9F3DF91CF910895DF92C8
:1049A000EF92FF920F931F93CF93DF9383E50E94C3
:1049B000C91B882359F083E50E94F81B882319F04E
:1049C0000E945C1C01C080E080933E06E9ECFEE0A2
:1049D0008491EF012196882321F00E94EA17FE01BD
:1049E000F7CFE1E0F8E08491EF012196882321F0F0
:1049F0000E94EA17FE01F7CF80913E06882389F1D5
:104A000088E0E82E88E0F82E00E010E020E08091B9
:104A10003E0690E0002E02C0959587950A94E2F735
:104A200080FF16C0DD24D394D20E222319F08CE22D
:104A30000E94EA17F70185919491FC018491EF019E
:104A40002196882321F00E94EA17FE01F7CF2D2D31
:104A50000F5F1F4F82E0E80EF11C05301105B9F61B
:104A60000BC0EDEFF7E08491EF012196882321F050
:104A70000E94EA17FE01F7CF8AE0DF91CF911F91E4
:104A80000F91FF90EF90DF900C94EA17CF93DF9394
:104A900083E50E94F81B882351F00E945C1C8D3333
:104AA00008F08CE380930E01DF91CF910895E9EC3B
:104AB000FEE08491EF012196882321F00E94EA17FD
:104AC000FE01F7CF40910E0150E060E070E086EF0C
:104AD00097E00E9476728AE0DF91CF910C94EA17FA
:104AE000CF93DF9383E50E94F81B882321F00E9477
:104AF0003C1CEB0102C0C0E0D0E0DD27C230D10594
:104B0000BCF0EFECFEE08491EF012196882321F0C8
:104B10000E94EA17FE01F7CFE4EDF7E08491EF0180
:104B20002196882309F450C00E94EA17FE01F6CFAF
:104B300088E40E94F81B8823A9F00E943C1C6A3A72
:104B400071053CF0653081E078072CF064E071E09D
:104B500002C06AEA70E0FE01EE0FFF1FED54F14F54
:104B60007183608386E40E94F81B8823A9F00E9469
:104B70003C1CFE01EE0FFF1FE555F14F7183608372
:104B80006F3F710519F014F06FEF70E077FF02C00E
:104B900060E070E07183608382E40E94F81B8823E8
:104BA00099F00E943C1C6530710534F06F36710538
:104BB0002CF06EE670E002C065E070E0CC0FDD1F07
:104BC000C155D14F79836883DF91CF91089583E5F3
:104BD0000E94F81B882399F00E94051C20E030E019
:104BE0004AE754E40E94ECCF0E947BCE609313010D
:104BF000709314018093150190931601089588E530
:104C00000E94C91B811111C089E50E94C91B811135
:104C10000CC08AE50E94C91B811107C085E40E946F
:104C2000C91B811102C00C94597D0E94D47C88E577
:104C30000E94C91B882319F05E9A1092180689E514
:104C40000E94C91B882319F05E9A109219068AE502
:104C50000E94C91B882321F0159A10921A06089504
:104C600008954F925F926F927F92AF92BF92CF92D0
:104C7000DF92EF92FF920F931F93CF9383E2A82EC0
:104C800082E0B82E06E017E0C0E0F50181915F01F7
:104C90000E94C91B882309F46DC0C33009F063C0AA
:104CA0000E94051C6B017C0120E030E040EA51E4E9
:104CB0000E94FDCD87FF4EC0A701960160911207AB
:104CC0007091130780911407909115070E9402CEEE
:104CD0002B013C019B01AC016091BE067091BF06A7
:104CE0008091C0069091C1060E94ECCF6093BE06F1
:104CF0007093BF068093C0069093C106A3019201F2
:104D000060912207709123078091240790912507D5
:104D10000E94ECCF609322077093230780932407AF
:104D2000909325076091F2067091F3068091F40646
:104D30009091F5060E94AACEA30192010E94ECCFA9
:104D40000E947BCE6093F2067093F3068093F40684
:104D50009093F506C0921207D0921307E0921407C1
:104D6000F092150707C00E94051CF801608371834B
:104D700082839383CF5F0C5F1F4FC43009F085CFD0
:104D8000CF911F910F91FF90EF90DF90CF90BF9048
:104D9000AF907F906F905F904F900C948F71CF93F6
:104DA000DF93E4E4F3E08491EF012196882321F07E
:104DB0000E94EA17FE01F7CF60912E0670912F0630
:104DC000809130069091310642E050E00E94341903
:104DD000E0E4F3E08491EF012196882321F00E9422
:104DE000EA17FE01F7CF6091320670913306809189
:104DF00034069091350642E050E00E943419ECE30D
:104E0000F3E08491EF012196882321F00E94EA17B4
:104E1000FE01F7CF60913606709137068091380613
:104E20009091390642E050E00E943419E8E3F3E043
:104E30008491EF012196882321F00E94EA17FE0158
:104E4000F7CF60913A0670913B0680913C069091B5
:104E50003D0642E050E00E943419DF91CF910C945E
:104E60009F7DCF92DF92EF92FF920F931F93CF938C
:104E7000DF9385E40E94F81BF82E811102C00E9486
:104E8000D47C83E2C82E82E0D82E0EE216E0C0E089
:104E9000D0E0EE24E394F60181916F010E94F81BAB
:104EA000882371F00E94051CF8016083718382835E
:104EB0009383C33029F0C23011F4E0921A06D1E096
:104EC000CF5F0C5F1F4FC43031F7DD2319F00E9414
:104ED000801C08C0FF2031F06AE376E083E090E0B8
:104EE0000E94D870DF91CF911F910F91FF90EF90AA
:104EF000DF90CF900C94CF26CF93DF93E5E0F7E0DF
:104F00008491EF012196882321F00E94EA17FE0187
:104F1000F7CFE7EFF6E08491EF012196882321F0A7
:104F20000E94EA17FE01F7CFE0EEF6E08491EF0170
:104F30002196882321F00E94EA17FE01F7CFE0EDC9
:104F4000F6E08491EF012196882321F00E94EA1770
:104F5000FE01F7CFEFEBF6E08491EF012196882375
:104F600021F00E94EA17FE01F7CFEEEAF6E0849105
:104F7000EF012196882321F00E94EA17FE01F7CF66
:104F8000EFE9F6E08491EF012196882321F00E9459
:104F9000EA17FE01F7CFEAE8F6E08491EF012196E7
:104FA000882321F00E94EA17FE01F7CFE4E7F6E03C
:104FB0008491EF012196882321F00E94EA17FE01D7
:104FC000F7CFEFE5F6E08491EF012196882321F0F9
:104FD0000E94EA17FE01F7CFE2E4F6E08491EF01C8
:104FE0002196882321F00E94EA17FE01F7CFEAE21A
:104FF000F6E08491EF012196882321F00E94EA17C0
:10500000FE01F7CFDF91CF910895CF93DF9385E431
:105010000E94C91B882379F00E94701C882359F0D4
:10502000E9ECFEE08491EF012196882321F00E94B3
:10503000EA17FE01F7CF81E40E94C91B882379F0AB
:105040000E94701C882359F0E6E2F6E08491EF019B
:105050002196882321F00E94EA17FE01F7CFC09124
:105060006B06D0916C068991882319F00E94EA178B
:10507000FACF8AE0DF91CF910C94EA1783E50E9482
:10508000C91B8823D9F00E94051CAB01BC014093C9
:10509000CA065093CB066093CC067093CD0640931E
:1050A000C2065093C3066093C4067093C5068EEF84
:1050B00095E00E943A728AE00E94EA1780E50E9419
:1050C000C91B882399F00E94051CAB01BC014093C9
:1050D000CA065093CB066093CC067093CD0681EE42
:1050E00095E00E943A728AE00E94EA1782E50E94E7
:1050F000C91B882399F00E94051CAB01BC01409399
:10510000C6065093C7066093C8067093C90682EC22
:1051100095E00E943A728AE00E94EA1784E50E94B4
:10512000C91B882399F00E94051CAB01BC01409368
:10513000C2065093C3066093C4067093C50684EA02
:1051400095E00E943A728AE00C94EA17089583E58C
:105150000E94C91B882351F00E94051C6093CE0653
:105160007093CF068093D0069093D10684E50E9479
:10517000C91B882351F00E94051C6093AE067093F2
:10518000AF068093B0069093B10682E40E94C91BDB
:10519000882351F00E944C1C6093D2067093D30672
:1051A0008093D4069093D50688E50E94C91B882376
:1051B00051F00E94051C6093B2067093B306809371
:1051C000B4069093B50689E50E94C91B882351F067
:1051D0000E94051C6093B6067093B7068093B806CC
:1051E0009093B9068AE50E94C91B882351F00E945A
:1051F000051C6093BA067093BB068093BC0690931F
:10520000BD0685E40E94C91B882351F00E94051C3D
:105210006093BE067093BF068093C0069093C1064C
:105220000895CF93DF93E9ECFEE08491EF0121969E
:10523000882321F00E94EA17FE01F7CF83E50E9440
:10524000C91B882321F00E94701C80932401E4E98B
:10525000F5E08491EF012196882321F00E94EA175E
:10526000FE01F7CF80912401811103C0ECE8F5E045
:1052700002C0E0E9F5E08491EF012196882321F056
:105280000E94EA17FE01F7CFE4E8F5E08491EF0110
:105290002196882321F00E94EA17FE01F7CF409162
:1052A0006C0450916D0460916E0470916F0482E8FB
:1052B00095E00E943A72409170045091710460919F
:1052C0007204709173048FE795E00E943A724091E6
:1052D00074045091750460917604709177048CE7A2
:1052E00095E00E943A72E4E7F5E08491EF0121969F
:1052F000882321F00E94EA17FE01F7CF40911801A0
:105300005091190160911A0170911B0182E795E09B
:105310000E943A7240911C0150911D0160911E0142
:1053200070911F018FE695E00E943A724091200132
:105330005091210160912201709123018CE695E04A
:105340000E943A728AE0DF91CF910C94EA17CF92D3
:10535000DF92EF92FF92CF93DF9380E50E94C91B0B
:10536000882309F455C00E943C1C6B017C01672B0B
:10537000A1F583E50E94C91B882361F00E943C1CB3
:1053800087EE93E0DF91CF91FF90EF90DF90CF9089
:105390000C941375E9ECFEE08491EF0121968823CB
:1053A00021F00E94EA17FE01F7CF60E070E084E68A
:1053B00095E00E94047287EE93E00E94C874BC01DD
:1053C00081E695E00E9404728AE0DF91CF91FF9020
:1053D000EF90DF90CF900C94EA17EFECFEE0849111
:1053E000EF012196882321F00E94EA17FE01F7CFF2
:1053F000B6018AE595E00E940472EBE4F5E0849141
:10540000EF012196882321F00E94EA17FE01F7CFD1
:10541000DF91CF91FF90EF90DF90CF900895CF93E1
:10542000DF9385E40E94F81B811110C080E50E9483
:10543000C91B882391F00E94051C6093C70C7093D0
:10544000C80C8093C90C9093CA0C07C00E945C1CC6
:10545000882361F3EFECFEE06CC089E40E94C91B75
:10546000882381F00E94051C2CEA35EC47E25EE3BC
:105470000E94ECCF6093C30C7093C40C8093C50C56
:105480009093C60C84E40E94C91B882381F00E947B
:10549000051C2CEA35EC47E25EE30E9402CE6093E5
:1054A000BF0C7093C00C8093C10C9093C20C0E94EF
:1054B0003C7FE9ECFEE08491EF012196882321F006
:1054C0000E94EA17FE01F7CF4091C70C5091C80C1B
:1054D0006091C90C7091CA0C87E495E00E943A7201
:1054E0002CEA35EC47E25EE36091C30C7091C40C8A
:1054F0008091C50C9091C60C0E9402CEAB01BC01FC
:1055000083E495E00E9458722CEA35EC47E25EE3B2
:105510006091BF0C7091C00C8091C10C9091C20C35
:105520000E94ECCFAB01BC018FE395E00E94587262
:1055300011C08491EF012196882321F00E94EA177F
:10554000FE01F7CFC7EFD1E08991882319F00E94BF
:10555000EA17FACF8AE0DF91CF910C94EA17CF9344
:10556000DF9383E50E94C91BC82F882371F00E9436
:10557000051C0E9474CE709352016093510121E08A
:10558000672B09F020E02093B20C80E50E94C91B34
:10559000882359F02091510130915201232B11F0B1
:1055A0000E94701C8093B20C2DC0C1112BC0E9EC7D
:1055B000FEE08491EF012196882321F00E94EA17F2
:1055C000FE01F7CF8091B20C811103C068E072E058
:1055D00002C06BE372E08CE295E00E94E971609199
:1055E0005101709152018BE195E00E940472E7E154
:1055F000F5E08491EF012196882321F00E94EA17BB
:10560000FE01F7CFDF91CF9108958F929F92AF92D5
:10561000BF92EF92FF920F93CF93DF9385E40E94A6
:10562000F81B882321F00E943C1CEB0102C0C0E063
:10563000D0E083E40E94F81B882321F00E943C1CE8
:105640007B0103C025E0E22EF12C85E50E94C91BF9
:10565000082F882319F00E94701C082FD7FD07C05F
:10566000812C912C96E1A92E93E4B92E06C0812CB1
:10567000912C8CE8A82E82E4B82E83E50E94F81BBA
:10568000882321F00E94051C4B015C01C501B40177
:105690000E9474CE209711F410924E04072E000C35
:1056A000880B990B0E94ACCE9701AE010E94EE824E
:1056B000DF91CF910F91FF90EF90BF90AF909F90AF
:1056C0008F900895EF92FF921F93CF93DF9389E419
:1056D0000E94F81B882321F00E943C1CC62F01C0A9
:1056E000CFEF8AE40E94F81B882321F00E943C1C23
:1056F000D62F01C0DFEF8AE50E94C91BF82E811169
:1057000005C081E50E94C91B182F01C010E0C7FD2C
:1057100002C0D7FF03C0EFECFEE008C0F11017C0D5
:10572000111115C0F8CF0E94EA17FE018491EF0114
:1057300021968111F8CFE8EBF4E08491EF012196F6
:10574000882309F44FC00E94EA17FE01F6CFC43047
:1057500010F4D430B8F0EFECFEE08491EF01219624
:10576000811103C0E9E9F4E004C00E94EA17FE01D8
:10577000F4CF8491EF0121968823A1F10E94EA17CA
:10578000FE01F7CFEC2ECC0FFF08CD2FDD0FDD0B88
:105790000E94051C9B01AC01D701AA0FBB1FAA0FD9
:1057A000BB1F112371F0FD01EC0FFD1FEE0FFF1F5A
:1057B000EE0FFF1FE650FC4F608171818281938163
:1057C00003C060E070E0CB01CA0FDB1FCC0FDD1F10
:1057D000CC0FDD1FC650DC4F0E947ACD68837983E1
:1057E0008A839B83DF91CF911F91FF90EF90089563
:1057F0008F929F92AF92BF92CF92DF92EF92FF92E1
:105800000F931F93CF93DF93C0900A01D0900B01A9
:10581000E0900C01F0900D01A7019601C701B601BF
:105820000E949FD08823E9F080914A0490914B0414
:10583000A0914C04B0914D0480930A0190930B0108
:10584000A0930C01B0930D01DF91CF911F910F91A7
:10585000FF90EF90DF90CF90BF90AF909F908F9090
:105860000895A701960160914A0470914B048091BC
:105870004C0490914D040E9479CD4B015C0120E0D5
:1058800030E0A9010E94FDCD882371F20AEF13E0F8
:10589000C4E07801D0E0A5019401F7016081718135
:1058A000828193810E9479CDF701619371938193F5
:1058B00091937F01DF5FD43071F7C150005F1F4FBC
:1058C000C111E7CFB1CFCF92DF92EF92FF92CF938A
:1058D000DF93E9ECFEE08491EF012196811103C092
:1058E000EFE8F4E004C00E94EA17FE01F4CF8491CF
:1058F000EF012196882321F00E94EA17FE01F7CFDD
:105900008AE50E94C91B8823C9F10E94051C6B010E
:105910007C0120E030E040EA51EC0E94B4CF87FDEA
:1059200022C020E030E040EA51E4C701B6010E9405
:10593000FDCD1816C4F0C0924A04D0924B04E092F8
:105940004C04F0924D0480E00E94F82B60914A04D0
:1059500070914B0480914C0490914D0442E050E0D2
:105960000E94341917C0E8E7F4E08491EF01219612
:10597000882381F00E94EA17FE01F7CF40914A0484
:1059800050914B0460914C0470914D0485E794E074
:105990000E943A728AE0DF91CF91FF90EF90DF9002
:1059A000CF900C94EA171F93CF93DF93182F88237F
:1059B000F1F0E9ECFEE08491EF012196882321F0DB
:1059C0000E94EA17FE01F7CF84E50E94EA176AE019
:1059D00070E0812F0E94A91880E20E94EA17C7EFA9
:1059E000D1E089918823B9F00E94EA17FACF10928A
:1059F0006904E9ECFEE08491EF012196882321F00F
:105A00000E94EA17FE01F7CF6091690470E086E218
:105A100093E00E9404728AE0DF91CF911F910C9471
:105A2000EA17CF93DF930E94A81AE0910E06F0E0E8
:105A3000E651FC4F8081882381F0E6ECF2E084910E
:105A4000EF012196882321F00E94EA17FE01F7CF8B
:105A50008AE0DF91CF910C94EA17DF91CF910895FE
:105A6000CF93DF930E94DB17E9ECF2E08491EF0122
:105A70002196882321F00E94EA17FE01F7CF80913A
:105A8000100690911106A0911206B0911306BC0168
:105A9000CD016F5F7F4F8F4F9F4F4AE050E00E94D4
:105AA0005D188AE00E94EA17DF91CF910C94112DC6
:105AB000FF920F931F93CF93DF93F82E092F162F8A
:105AC000EFECFEE08491EF012196882321F00E9403
:105AD000EA17FE01F7CFEF2DF02F8491EF01219609
