:100000000C947A190C94A4190C94A4190C94A419A6
:100010000C94A4190C94A4190C94A4190C94A4196C
:100020000C94A4190C94A4190C94A4190C94A4195C
:100030000C94A4190C943C410C94A4190C94A4198C
:100040000C94A4190C9475710C940FCD0C94A419F4
:100050000C94349B0C94A4190C94A4190C94A4191A
:100060000C94A4190C94A4190C94A4190C94A4191C
:100070000C94A4190C94A4190C94A4190C94A4190C
:100080000C94E7480C94A4190C94A4194E414E49C1
:100090004E495459494E46CDCCCC3D0AD7233C1746
:1000A000B7D13877CC2B329595E6241FB14F0A0093
:1000B0000020410000C84200401C4620BCBE4CCA83
:1000C0001B0E5AAEC59D7400407A10F35A00A07200
:1000D0004E18090010A5D4E80000E8764817000083
:1000E000E40B54020000CA9A3B000000E1F5050051
:1000F0000080969800000040420F000000A086019A
:10010000000000102700000000E803000000006469
:1001100000000000000A00000000000100000000D4
:10012000002C76D888DC674F0823DFC1DFAE59E1A9
:10013000B1B796E5E3E453C63AE651997696E8E618
:10014000C28426EB898C9B62ED407C6FFCEFBC9CEB
:100150009F40F2BAA56FA5F490055A2AF75C936BFD
:100160006CF9676DC11BFCE0E40D47FEF520E6B5B8
:1001700000D0ED902E0300943577050080841E0892
:100180000000204E0A000000C80C333333330F98B0
:100190006E12831141EF8D2114893BE65516CFFE77
:1001A000E6DB18D1844B381BF77C1D901DA4BBE403
:1001B00024203284725E228100C9F124ECA1E53D45
:1001C00027F4010000F401000064000000E80300CF
:1001D0000000009643000096430000A0400000C8C5
:1001E000410000A0420000A0420000C8430000BA45
:1001F0004220204D383531205A005A2D50726F62FE
:1002000065204F666673657420286D6D293A0A0073
:1002100020440020490020204D3330312050005030
:1002200049442073657474696E67733A0A00204606
:100230000020420020480020204D3134352053005A
:100240004D6174657269616C2068656174757020B8
:10025000706172616D65746572733A0A00205A00AC
:1002600020204D3432302053004175746F20426598
:1002700064204C6576656C696E673A0A002045001B
:10028000205A00205900205800204200205400200D
:10029000204D323035205300416476616E636564D1
:1002A0003A20533C6D696E5F666565647261746582
:1002B0003E20543C6D696E5F74726176656C5F665A
:1002C000656564726174653E20423C6D696E5F7362
:1002D00065676D656E745F74696D655F6D733E20F3
:1002E000583C6D61785F78795F6A65726B3E205A21
:1002F0003C6D61785F7A5F6A65726B3E20453C6D4C
:1003000061785F655F6A65726B3E0A002054002069
:10031000520020204D323034205000416363656C20
:1003200065726174696F6E2028756E6974732F73BE
:1003300032293A20503C7072696E745F6163636564
:100340006C3E20523C726574726163745F616363DA
:10035000656C3E20543C74726176656C5F616363CA
:10036000656C3E0A00204500205A002059002020DC
:100370004D3230312058004D6178696D756D2041E6
:100380006363656C65726174696F6E2028756E6950
:1003900074732F7332293A0A00204500205A002036
:1003A000590020204D3230332058004D6178696D5E
:1003B000756D206665656472617465732028756E5D
:1003C0006974732F73293A0A00204500205A0020CF
:1003D000590020204D393220580053746570732025
:1003E00070657220756E69743A0A0020204D3230B3
:1003F000302044300A0020204D323030204400208C
:1004000044697361626C65640A0046696C616D657C
:100410006E742073657474696E67733A0020204DA2
:100420003134392043203B20556E69747320696E46
:100430002043656C736975730A00202047323120B0
:100440002020203B20556E69747320696E206D6DED
:100450000A0020636F6C6420657874727573696F2D
:100460006E2070726576656E7465640A0024F4D43B
:100470003050C38E20C2A24017828B7011127A9125
:100480000D816CD90AA861E108C75866076151431C
:10049000061E4B5D05C145A7041A411104093D988C
:1004A00003713931034036DB0265339102D4305495
:1004B00002802E1D02632CEE01752AC501B028A012
:1004C00001102781018F2564012B244B01E0223488
:1004D00001AC211F018D200D01801FFC00841EED49
:1004E00000971DDF00B81CD200E61BC600201BBC15
:1004F00000641AB200B219A8000A19A0006A18997B
:1005000000D117910040178B00B516840031167E7C
:1005100000B31579003A157300C7146F0058146AB8
:1005200000EE1366008813630025135E00C7125B9C
:10053000006C12570015125400C111510070114F78
:100540000021114B00D61049008D10470046104481
:100550000002104200C00F4000800F3E00420F3CDE
:1005600000060F3B00CB0E3800930E37005C0E35B3
:1005700000270E3400F30D3200C10D3100900D3014
:1005800000600D2E00320D2D00050D2C00D90C2B16
:1005900000AE0C2900850C29005C0C2700350C27C7
:1005A000000E0C2600E80B2400C40B2400A00B2333
:1005B000007D0B23005A0B2100390B2100180B2062
:1005C00000F80A1F00D90A1E00BB0A1E009D0A1D62
:1005D00000800A1D00630A1C00470A1B002C0A1B2E
:1005E00000110A1A00F7091A00DD091900C40919D7
:1005F00000AB091900920917007B0918006309175D
:10060000004C09160036091600200916000A0915C3
:1006100000F5081500E0081400CC081400B8081410
:1006200000A4081400900813007D0812006B081342
:10063000005808120046081200340811002308115F
:10064000001208110001081100F0071000E0071067
:1006500000D0071000C0071000B0070F00A107105E
:100660000091070E0083070F0074070F0065070E47
:100670000057070E0049070E003B070D002E070E1E
:100680000020070D0013070D0006070D00F9060CEA
:1006900000ED060D00E0060C00D4060C00C8060CA8
:1006A00000BC060C00B0060C00A4060B0099060C5A
:1006B000008D060B0082060B0077060B006C060B04
:1006C0000061060A0057060B004C060A0042060AA3
:1006D0000038060A002E060A0024060A001A060A36
:1006E000001006090007060A00FD050900F40509C7
:1006F00000EB050900E2050900D9050900D005094C
:1007000000C7050900BE050900B5050800AD0508CC
:1007100000A50509009C050800940508008C050843
:1007200000840508007C050800740508006C0507B6
:1007300000650508005D050700560508004E050721
:100740000047050700400508003805070031050788
:10075000002A050700230507001C050600160507EB
:10076000000F0507000805060002050700FB040648
:1007700000F5040700EE040600E8040600E20407A2
:1007800000DB040600D5040600CF040600C90406F9
:1007900000C3040600BD040600B7040600B104054A
:1007A00000AC040600A6040600A00405009B040695
:1007B0000095040500900406008A040500850405E0
:1007C00000800406007A0405007504050070040525
:1007D000006B04050066040500610405005C040567
:1007E0000057040500520405004D040500480405A7
:1007F00000430405003E0404003A040500350405E6
:1008000000300404002C0405002704040023040520
:10081000001E0404001A0404001604050011040458
:10082000000D04040009040500040404000004048D
:1008300000FC030400F8030400F4030400F00304C4
:1008400000EC030400E8030400E4030400E00304F4
:1008500000DC030400D8030400D4030400D0030424
:1008600000CC030400C8030300C503030024F40400
:10087000D9201BC40C5C0E9804C4095F0265077183
:1008800001F405F900FB04B30048048700C10369C3
:10089000005803550003034500BE023A00840231AC
:1008A0000053022A002902250004022000E4011C52
:1008B00000C8011900AF011700980114008401134A
:1008C00000710110006101100051010E0043010D83
:1008D0000036010B002B010B0020010B0015010954
:1008E000000C01090003010800FB000800F30008E8
:1008F00000EB000700E4000600DE000600D800065A
:1009000000D2000600CC000500C7000500C20005AB
:1009100000BD000400B9000400B5000400B10004EB
:1009200000AD000400A9000400A5000300A200031C
:10093000009F0004009B0003009800030095000244
:100940000093000300900003008D0002008B000361
:10095000008800020086000200840003008100027B
:10096000007F0002007D0002007B0002007900028F
:10097000007700010076000200740002007200019E
:1009800000710002006F0002006D0001006C0002A7
:10099000006A0001006900020067000100660001B2
:1009A00000650001006400020062000100610001B6
:1009B00000600001005F0002005D0001005C0001BA
:1009C000005B0001005A00010059000100580001BD
:1009D00000570001005600010055000100540001BD
:1009E00000530000005300010052000100510001BB
:1009F00000500001004F0001004E0000004E0001B9
:100A0000004D0001004C0001004B0000004B0001B4
:100A1000004A0001004900010048000000480001B0
:100A200000470001004600000046000100450000AC
:100A300000450001004400010043000000430001A4
:100A4000004200000042000100410000004100019E
:100A500000400001003F0000003F0001003E000098
:100A6000003E0001003D0000003D0001003C000090
:100A7000003C0000003C0001003B0000003B000186
:100A8000003A0000003A000100390000003900017E
:100A90000038000000380000003800010037000076
:100AA000003700010036000000360000003600016B
:100AB0000035000000350000003500010034000062
:100AC0000034000000340001003300000033000057
:100AD000003300010032000000320000003200014B
:100AE0000031000000310000003100010030000042
:100AF0000030000000300001002F0000002F000037
:100B0000002F0000002F0001002E0000002E00002A
:100B1000002E0001002D0000002D0000002D00001F
:100B2000002D0001002C0000002C0000002C000013
:100B3000002C0001002B0000002B0000002B000007
:100B4000002B0001002A0000002A0000002A0000FB
:100B5000002A0001002900000029000000290000EF
:100B600000290000002900010028000000280000E2
:100B700000280000002800000028000100270000D5
:100B800000270000002700000027000000270001C8
:100B900000260000002600000026000000260000BD
:100BA00000260001002500000025000000250000AF
:100BB00000250000002500000025000100240000A1
:100BC0000024000000240000002400000024000194
:100BD0000023000000230000002300000023000089
:100BE0000023000000230000002300010022000079
:100BF000002200000022000000220000002200006D
:100C0000002200010021000000210000002100005E
:100C1000002100000021000000210000002100014F
:100C20000020000000200000002000000020000044
:100C30000020000000200000002000000020000133
:100C4000001F0000001F0000001F0000001F000028
:100C5000001F0000001F0000001F0001001E000018
:100C6000001E0000001E0000001E0000004D383471
:100C700020582059205A2045006265640A002C2023
:100C800073797374656D2073746F7070656421205F
:100C90004865617465725F49443A20004865617433
:100CA000696E67206661696C656400486561746996
:100CB0006E67206661696C65640048656174696E81
:100CC00067206661696C65640048656174696E6778
:100CD000206661696C65640070012C019001270138
:100CE000B0012201C0011D01F00118011002130121
:100CF00030020E016002090190020401C002FF00EF
:100D00000003FA004003F5008003F000D003EB007D
:100D10002004E6007004E100E004DC004005D70098
:100D2000C005D2004006CD00D006C8008007C30031
:100D30003008BE00F008B900C009B400B00AAF0026
:100D4000B00BAA00D00CA500000EA000500F9B0015
:100D5000C01096005012910000148C00C01587003E
:100D6000B0178200B0197D00D01B7800001E730000
:100D700040206E0090226900F024640040275F004C
:100D800090295A00E02B5500102E500020304B00C7
:100D900010324600E033410090353C0010373700F8
:100DA00070383200A0392D00B03A2800A03B230053
:100DB000603C1E00103D1900903D1400103E0F00D5
:100DC000703E0A00C03E0500003F0000403FFBFFB0
:100DD000803FF6FFC03FF1FF544845524D414C2043
:100DE00052554E4157415900546865726D616C20EF
:100DF00052756E61776179004572723A204D494EA5
:100E000054454D5020424544004572723A204D49A8
:100E10004E54454D50004D494E54454D502074722E
:100E200069676765726564004572723A204D415882
:100E300054454D5020424544004572723A204D4180
:100E40005854454D50004D415854454D50207472F2
:100E5000696767657265640025753A2530327500EB
:100E6000253032753A2530327500257564202530DD
:100E700032753A25303275005A0059005800092061
:100E800000000000000000000000000000003FFF24
:100E9000F00000000000000000000000000038002A
:100EA000700000000000000000000000000030FCA6
:100EB000300000000000000000000000000020FCE6
:100EC000100000000000000000000000000020787A
:100ED00010000000000000000000000000002030B2
:100EE00010F80080003C00000000000000002C0012
:100EF000D048008000201FE00000104100002E318B
:100F0000D043C399A0383FF00000082080002F7B19
:100F1000D07124A4CF843FF00000082080002F7BF4
:100F2000D04124BC80043FF00000104100002E316D
:100F3000D04924A080241FE00000208200002C0063
:100F4000D0FBB39DC0181FE000004104000020301A
:100F50001000000000003FF0000041040000207875
:100F60001000000000003FF000002082000020FC84
:100F70001000000000003FF000001041000030FCB5
:100F80003000000000000FC000000000000038002A
:100F900070000000000007800000FFFFC0003FFF5E
:100FA000F0000000000003000000FFFFC000000090
:100FB00000000000000000000000000000003FFFF3
:100FC000F0000000000000000000000000003800F9
:100FD00070000000000000000000000000003387E7
:100FE0003000000000000000000000000000278723
:100FF00090000000000000000000000000002F87AB
:10100000D0000000000000000000000000002F875A
:10101000D0F80080003C00000000000000002F031A
:10102000D048008000201FE0000008208000203011
:101030001043C399A0383FF000000410400020780E
:10104000107124A4CF843FF00000041040002078E9
:10105000104124BC80043FF00000082080002030B4
:10106000104924A080241FE00000104100002F033D
:10107000D0FBB39DC0181FE00000208200002F8726
:10108000D000000000003FF00000208200002F8709
:10109000D000000000003FF0000010410000278752
:1010A0009000000000003FF000000820800033871F
:1010B0003000000000000FC00000000000003800F9
:1010C00070000000000007800000FFFFC0003FFF2D
:1010D000F0000000000003000000FFFFC00000005F
:1010E000005072696E7420706175736564004730DA
:1010F00020463132303020583020593000004730FF
:10110000205A2573004D31303920532569004D3167
:10111000343020532569004D313036205332353577
:10112000004D31303920532569004D31393020537D
:101130002569005072696E742061626F7274656413
:101140000053746F70207072696E7400526573750D
:101150006D65207072696E7400506F7765722D4CEA
:101160006F7373205265636F76657279203F005309
:10117000746F7720424C546F756368004D3238307D
:1011800020503020533930004465706C6F79204214
:101190004C546F756368004D323830205030205306
:1011A000313000424C546F7563682053656C662D76
:1011B00054657374004D3238302050302053313232
:1011C0003000526573657420424C546F756368003B
:1011D0004D3238302050302053313630004D616967
:1011E0006E00496E69742E2054462063617264005B
:1011F0004D3231004E6F20544620636172640043CB
:1012000068616E67652054462063617264004D32E8
:1012100031005072696E742066726F6D2054460002
:1012200053746F70207072696E7400526573756DBF
:1012300065207072696E74005061757365207072FC
:10124000696E740053746F70207072696E7400520E
:101250006573756D65207072696E740041626F759B
:1012600074205072696E74657200506175736520E8
:101270007072696E7400436F6E74726F6C0050729E
:1012800065706172650054756E6500496E666F2009
:1012900073637265656E00466C6F7700466C6F779E
:1012A0000046616E2073706565640046616E207350
:1012B000706565640042656400426564004E6F7A43
:1012C0007A6C65004E6F7A7A6C6500537065656460
:1012D000005370656564004D61696E005072656809
:1012E00065617420504C412042656400507265680D
:1012F00065617420504C4120456E640050726568F1
:1013000065617420504C41005072657061726500D7
:1013100050726568656174204142532042656400E3
:10132000507265686561742041425320456E6400C7
:101330005072656865617420414253005072657057
:1013400061726500473238005072656865617420CB
:10135000504C4100436F6F6C646F776E0050726544
:1013600068656174204142530044697361626C6531
:10137000207374657070657273004D383400426577
:1013800064204C6576656C696E67004732380A47A1
:101390003239004175746F20686F6D65004D6F764E
:1013A000652061786973004D61696E004D6F7665E7
:1013B0002058004D6F76652059004D6F7665205A94
:1013C000004578747275646572004D6F76652030E3
:1013D0002E316D6D004D6F766520316D6D004D6F56
:1013E00076652031306D6D004D6F766520617869CE
:1013F00073004578747275646572004D6F76652070
:101400005A004D6F76652059004D6F766520580063
:101410004578747275646572004D6F7665205A0068
:101420004D6F76652059004D6F76652058005072DB
:101430006570617265004C6F6164207365747469D6
:101440006E677300496E697469616C697A652045DD
:101450004550524F4D0053746F726520736574741C
:10146000696E677300424C546F7563680046696C1F
:10147000616D656E74004D6F74696F6E0054656DBB
:101480007065726174757265004D61696E005072AD
:1014900065686561742041425320636F6E66005039
:1014A00072656865617420504C4120636F6E660000
:1014B00046616E2073706565640046616E207370CE
:1014C0006565640042656400426564004E6F7A7A27
:1014D0006C65004E6F7A7A6C6500436F6E74726F44
:1014E0006C0053746F72652073657474696E6773F2
:1014F0000042656400426564004E6F7A7A6C650054
:101500004E6F7A7A6C650046616E20737065656413
:101510000046616E2073706565640054656D70658A
:10152000726174757265005654726176206D696ED1
:10153000005654726176206D696E00566D696E00BA
:10154000566D696E00566D6178204500566D617864
:10155000204500566D6178205A00566D6178205AFA
:1015600000566D6178205900566D617820590056FB
:101570006D6178205800566D61782058004D6F7469
:10158000696F6E00416D6178204500416D61782082
:101590004500416D6178205A00416D6178205A0004
:1015A000416D6178205900416D6178205900416D8D
:1015B0006178205800416D6178205800412D747287
:1015C0006176656C00412D74726176656C00412D09
:1015D0007265747261637400412D72657472616327
:1015E0007400416363656C00416363656C004D6F1B
:1015F00074696F6E0056652D6A65726B0056652DB5
:101600006A65726B00567A2D6A65726B00567A2D88
:101610006A65726B0056792D6A65726B0056792D7A
:101620006A65726B0056782D6A65726B0056782D6C
:101630006A65726B004D6F74696F6E0045737465F7
:1016400070732F6D6D004573746570732F6D6D0031
:101650005A73746570732F6D6D005A73746570736F
:101660002F6D6D005973746570732F6D6D00597314
:10167000746570732F6D6D005873746570732F6D82
:101680006D005873746570732F6D6D004D6F7469C4
:101690006F6E0053746570732F6D6D004A65726BC9
:1016A00000416363656C65726174696F6E005665B5
:1016B0006C6F63697479005A204F666673657400B5
:1016C0005A204F666673657400436F6E74726F6C58
:1016D0000046696C2E204469612E0046696C2E20FC
:1016E0004469612E004F6666004F6E2000452069F8
:1016F0006E206D6D3300436F6E74726F6C004361CA
:101700006E6E6F7420656E746572207375626469A5
:10171000723A2000022E2E000152656672657368CF
:10172000004D61696E004D61782054656D703A20FE
:10173000313235004D696E2054656D703A203500A8
:10174000544265643A4550434F53203130304B008A
:101750004D61782054656D703A20323735004D69FF
:101760006E2054656D703A20350054303A20455053
:10177000434F53203130304B005053553A204154A1
:10178000580050726F746F636F6C3A20312E3000C6
:10179000426175643A20313135323030004D656C2C
:1017A0007A692028437265616C69747929004269FD
:1017B0006C696E656172204C6576656C696E670058
:1017C0004578747275646572733A20310077777763
:1017D0002E637265616C69747933642E636E0045A3
:1017E0006E6465722D354800323032302D30352D23
:1017F000313700312E312E36424C5F5633004D6169
:10180000726C696E00434F4D4D554E4943415449EA
:101810004F4E0044525952554E004552524F52536A
:1018200000494E464F004543484F004B494C4C45FC
:10183000442E200053544F505045442E20005072E7
:10184000696E7465722073746F707065642064755E
:101850006520746F206572726F72732E20466978EE
:1018600020746865206572726F7220616E642075E5
:101870007365204D39393920746F20726573746136
:1018800072742E202854656D70657261747572656E
:101890002069732072657365742E20536574206906
:1018A0007420616674657220726573746172746904
:1018B0006E67290A004E6F204C696E65204E756D6B
:1018C000626572207769746820636865636B7375FD
:1018D0006D2C204C617374204C696E653A20004E6B
:1018E0006F20436865636B73756D2077697468203A
:1018F0006C696E65206E756D6265722C204C61732B
:1019000074204C696E653A2000636865636B73757B
:101910006D206D69736D617463682C204C61737404
:10192000204C696E653A20004C696E65204E756DDD
:10193000626572206973206E6F74204C617374202D
:101940004C696E65204E756D6265722B312C204C92
:10195000617374204C696E653A20004D313130005E
:101960004D3331004D383420582059205A2045003D
:1019700054462072656164206572726F720A004479
:101980006F6E65207072696E74696E672066696C2F
:10199000650A0020496E76616C696420657874720E
:1019A00075646572200053544F505045442E2000FA
:1019B0005072696E7465722073746F707065642004
:1019C00064756520746F206572726F72732E204685
:1019D000697820746865206572726F7220616E6428
:1019E00020757365204D39393920746F2072657305
:1019F000746172742E202854656D706572617475FF
:101A000072652069732072657365742E2053657446
:101A100020697420616674657220726573746172E6
:101A200074696E67290A0053544F502063616C6CCF
:101A300065642062656361757365206F6620424C42
:101A4000546F756368206572726F72202D20726505
:101A500073746172742077697468204D3939390A5A
:101A60000047302046333630302058313135205948
:101A70003131320042696C696E656172204C657665
:101A8000656C696E6720477269643A0A0020706F5E
:101A9000736974696F6E206F7574206F6620726150
:101AA0006E67652E0A003F50726F62652000486FB6
:101AB0006D65202573257325732066697273740024
:101AC0002066697273740A005A0059005800486F02
:101AD0006D65200052756E6E696E6720696E2044D8
:101AE00052592D52554E206D6F64650A00473239A8
:101AF000204175746F20426564204C6576656C6981
:101B00006E670A0028422961636B00284629726FBC
:101B10006E74002852296967687400284C2965662C
:101B200074003F2856296572626F7365206C657674
:101B3000656C20697320696D706C61757369626C86
:101B4000652028302D34292E0A00426164205A2055
:101B500076616C75650A004E6F2062696C696E650E
:101B6000617220677269640A0044656C6574696F0C
:101B70006E206661696C65642C2046696C653A204C
:101B80000046696C652064656C657465643A006F35
:101B900070656E206661696C65642C2046696C65B1
:101BA0003A2000202F002042403A0020403A0048CE
:101BB000656174696E6720646F6E652E0020573A08
:101BC00000457874727564657220257300426564FF
:101BD00020646F6E652E0020573A004265642048ED
:101BE000656174696E672E00205A3A0020593A00E8
:101BF00020436F756E7420583A0020453A00205AF1
:101C00003A0020593A00583A0023646566696E65C7
:101C1000202044454641554C545F4B6420002364CA
:101C20006566696E65202044454641554C545F4BBE
:101C300069200023646566696E652020444546413D
:101C4000554C545F4B702000504944204175746FCF
:101C500074756E652066696E6973686564212050CD
:101C6000757420746865206C617374204B702C202F
:101C70004B6920616E64204B6420636F6E737461E6
:101C80006E74732066726F6D2062656C6F77206969
:101C90006E746F20436F6E66696775726174696FE9
:101CA0006E2E680A00504944204175746F74756E39
:101CB00065206661696C6564212074696D656F7566
:101CC000740A00504944204175746F74756E652024
:101CD0006661696C6564212054656D70657261741C
:101CE00075726520746F6F20686967680A00204B01
:101CF000643A2000204B693A2000204B703A2000C3
:101D00000A20436C617373696320504944200A00C0
:101D10002054753A2000204B753A2000206D6178E0
:101D20003A2000206D696E3A200020643A2000209D
:101D3000626961733A2000536C6565702E2E2E0027
:101D4000473238205A20466F7262696464656E0AB1
:101D500000473238205A20466F7262696464656EAB
:101D600000205A3A200020593A2000426564205849
:101D70003A20004D65736820706F696E742063614E
:101D80006E6E6F74206265207265736F6C76656429
:101D90000A00456E6465722D35482072656164796C
:101DA0002E00526573756D696E67207072696E746E
:101DB00000436C69636B20746F20726573756D6589
:101DC0002E2E2E004E6F206D6F76652E00456E64B0
:101DD0002066696C65206C6973740A0042656769E6
:101DE0006E2066696C65206C6973740A0054462025
:101DF0007072696E74696E67206279746520004E36
:101E00006F74205446207072696E74696E670A00A0
:101E10002569730025696D2025697300256968208F
:101E200025696D202569730025696420256968206E
:101E300025696D202569730025697920256964204D
:101E40002569682025696D20256973005072696EC7
:101E5000742074696D653A200050726F7465637404
:101E600065642050696E0A00457874727564657205
:101E7000202573006F666600261821181A1813189B
:101E8000051844454255473A004B494C4C45442EB1
:101E900020004D3131332053006F6B00456E646577
:101EA000722D3548204F66662E004361703A454DCD
:101EB000455247454E43595F5041525345523A307F
:101EC0000A004361703A434153455F4C49474854C7
:101ED0005F4252494748544E4553533A300A0043F3
:101EE00061703A544F47474C455F4C4947485453FB
:101EF0003A300A004361703A534F465457415245B5
:101F00005F504F5745523A300A004361703A4C4592
:101F100056454C494E475F444154413A310A0043CB
:101F200061703A5A5F50524F42453A310A0043615C
:101F3000703A4155544F4C4556454C3A310A00438E
:101F400061703A5052494E545F4A4F423A310A004A
:101F50004361703A50524F47524553533A300A004A
:101F60004361703A4155544F5245504F52545F545B
:101F7000454D503A310A004361703A454550524F41
:101F80004D3A310A004649524D574152455F4E4144
:101F90004D453A4D61726C696E20437265616C69A2
:101FA00074792033442D4D4820534F555243455F9B
:101FB000434F44455F55524C3A68747470733A2FDE
:101FC0002F6769746875622E636F6D2F4D61726C37
:101FD000696E4669726D776172652F4D61726C69C9
:101FE0006E2050524F544F434F4C5F564552534909
:101FF0004F4E3A312E30204D414348494E455F54B3
:102000005950453A456E6465722D354820455854FF
:1020100052554445525F434F554E543A3120555521
:1020200049443A31326135633632662D34333033C8
:102030002D343935622D623133632D3839393465A9
:10204000303662393734330A002F2F20007A5F6D23
:10205000696E3A2000795F6D696E3A2000785F6D95
:10206000696E3A20005265706F7274696E67206500
:102070006E6473746F70207374617475730A004DAD
:1020800031343520533C696E6465783E206F757439
:10209000206F662072616E67652028302D31290A15
:1020A0000053657474696E672054726176656C20A4
:1020B000416363656C65726174696F6E3A200053A9
:1020C000657474696E67205265747261637420412F
:1020D0006363656C65726174696F6E3A2000536565
:1020E0007474696E67205072696E74204163636511
:1020F0006C65726174696F6E3A200053657474691F
:102100006E67205072696E7420616E642054726133
:1021100076656C20416363656C65726174696F6E8E
:102120003A2000205A00205900580020204D6178A4
:102130003A2000205A00205900580020204D696E96
:102140003A20004F6E20004F666600536F66742081
:10215000656E6473746F70733A200000010F150E82
:1021600012FF16170E13FF03021A14FFFFFF0C04D1
:10217000FFFFFF01000EFFFF0C190DFF18FFFFFF0F
:10218000FFFFFF3A200020536572766F2000206F1A
:102190007574206F662072616E67650A0053657200
:1021A000766F200020643A0020693A0020703A00DF
:1021B00043290A0061626C656420286D696E207491
:1021C000656D702000436F6C64206578747275646F
:1021D00065732061726520004F66660A004661647F
:1021E00065204865696768742000426564204C6515
:1021F00076656C696E6720004661696C6564207461
:102200006F20656E61626C6520426564204C657666
:10221000656C696E670A004D65736820706F696E42
:10222000742063616E6E6F74206265207265736FD7
:102230006C7665640A004D34323120696E636F72CA
:102240007265637420706172616D6574657220756A
:10225000736167650A003A20007A5F6D696E3A2003
:10226000202D3230207A5F6D61783A2020323000A4
:102270005A204F666673657420004E6F2063617349
:1022800065206C696768740A00416374697665202B
:1022900045787472756465723A2000556E6B6E6F86
:1022A000776E20636F6D6D616E643A202200526517
:1022B00073656E643A20006F6B0020636F6C64205E
:1022C000657874727573696F6E2070726576656E6D
:1022D0007465640A00627573793A2070617573657C
:1022E0006420666F7220696E7075740A006275737F
:1022F000793A2070617573656420666F722075731A
:1023000065720A00627573793A2070726F63657343
:1023100073696E670A004B494C4C45442E20004BB4
:10232000494C4C2063617573656420627920746F39
:102330006F206D75636820696E61637469766520CE
:1023400074696D65202D2063757272656E742063EB
:102350006F6D6D616E643A2000506C65617365202D
:102360007265736574005052494E5445522048417D
:102370004C544544005072696E7465722068616CFB
:102380007465642E206B696C6C28292063616C6C09
:102390006564210A0062696E004D31313720494E73
:1023A00056414C494420444154412E004D3131376F
:1023B000205072696E74696E672E2E2E0047302091
:1023C0005A257300473238205830205930004730A2
:1023D000205A257300473932205A2573204525732A
:1023E0000062696E000000000000000000000000B4
:1023F00000ABAA2642ABAA264200008040000000A3
:10240000005761726E696E673A20486F6D696E673A
:102410002042756D702044697669736F72203C208C
:10242000310A000202040000A0400000A0400000A9
:102430000040000061430000614300809843FFFFBB
:10244000FF7C3C3E5E2B3D3F2F5B5D3B2C2A225C9C
:10245000004572726F722077726974696E672074BA
:102460006F20454550524F4D210A00546865726DEA
:102470006973746F727300426F61726420496E6693
:102480006F005072696E74657220496E666F004D00
:1024900061696E0000002100240027002A0000006E
:1024A0002200250028002B00000020002300260029
:1024B00029000202020202020202040404040404CB
:1024C00004040303030303030303010101010101E6
:1024D00001010102040810204080010204081020BC
:1024E0004080010204081020408080402010080431
:1024F0000201000000010200090A000000000403BC
:1025000008070000000000000000000000000000BC
:1025100000002020506C616E6E65724275666665C3
:102520007242797465733A20002046726565204DC9
:10253000656D6F72793A2000436F6D70696C6564E8
:102540003A204D617920313720323032300A002074
:102550007C20417574686F723A20284861727466F5
:1025600069656C64290A00323032302D30352D31E6
:102570003700204C61737420557064617465643A4F
:102580002000312E312E36424C5F56330A004D6109
:10259000726C696E0020536F6674776172652052A9
:1025A000657365740A00205761746368646F6720FF
:1025B00052657365740A002042726F776E206F75E2
:1025C000742052657365740A002045787465726ED4
:1025D000616C2052657365740A00506F776572559F
:1025E000700A0073746172740A006572726F7220EF
:1025F00077726974696E6720746F2066696C650A0A
:1026000000456E6473746F7073202563202563200A
:10261000256320256300205A3A0020593A002058AB
:102620003A00656E6473746F7073206869743A2041
:1026300000446F6E6520736176696E672066696C11
:10264000652E0A004D32390050726F62696E672044
:102650006661696C65640A0050726F62696E67201A
:102660006661696C656400205A3A200020593A205E
:102670000042656420583A20002E0A0044656C65CB
:1026800074696F6E2862696E29206661696C656481
:102690000046696C652862696E292064656C657402
:1026A00065640057726974696E6720746F2066698B
:1026B0006C653A20006F70656E206661696C6564B8
:1026C0002C2046696C653A20006F70656E2066614B
:1026D000696C65642C2046696C653A200046696C1B
:1026E000652073656C65637465640A002053697ABC
:1026F000653A200046696C65206F70656E65643AC6
:1027000020006F70656E206661696C65642C2046E0
:10271000696C653A20002066696C653A20004E6F4E
:102720007720002220706F73002220706172656E26
:10273000743A2200535542524F5554494E45204356
:10274000414C4C207461726765743A22004B494CCD
:102750004C45442E2000747279696E6720746F2096
:1027600063616C6C207375622D67636F64652066AE
:10277000696C6573207769746820746F6F206D6170
:102780006E79206C6576656C732E204D4158206CF7
:102790006576656C2069733A0043616E6E6F7420D4
:1027A0006F70656E207375626469722000544620F4
:1027B00063617264206F6B0A006F70656E526F6F99
:1027C00074206661696C65640A00766F6C756D656E
:1027D0002E696E6974206661696C65640A004572D1
:1027E000726F723A00544620696E6974206661699E
:1027F0006C0A006175746F25692E67004D323400D4
:102800004D323320257300656E7175657565696E8F
:10281000672022006563686F3A002E0A006F7065BA
:102820006E206661696C65642C2046696C653A208F
:102830000057726974696E6720746F2066696C65F1
:102840003A200000060900FE070192032120FFFF45
:1028500008FF07FF0000000600000107070602004E
:1028600080808080800080030202060105A0A00510
:1028700007070600005050F850F8505005070706AB
:1028800000002078A07028F020050707060000C08F
:10289000C810204098180507070600006090A04067
:1028A000A89068020303060104C0408003070706DE
:1028B000010020408080804020030707060100803F
:1028C00040202020408005050506000120A870A8B2
:1028D000200505050600012020F82020020303063C
:1028E00002FFC04080050101060003F80202020653
:1028F0000200C0C005050506000108102040800543
:102900000707060000708888888888700307070614
:10291000010040C040404040E0050707060000704D
:102920008808708080F8050707060000F81020105E
:102930000808F005070706000010305090F8101046
:10294000050707060000F880F008088870050707EB
:10295000060000708080F088887005070706000078
:10296000F80810202020200507070600007088883E
:102970007088887005070706000070888878080846
:1029800070020505060200C0C000C0C002060606AF
:1029900002FFC0C000C040800407070600001020EE
:1029A0004080402010050303060002F800F80407E9
:1029B0000706010080402010204080050707060020
:1029C00000708808102000200507070600007088A6
:1029D0000868A8A870050707060000708888F888AE
:1029E0008888050707060000F08888F08888F005C9
:1029F000070706000070888080808870050707063A
:102A00000000F08888888888F0050707060000F82D
:102A10008080F08080F8050707060000F88080F0CD
:102A2000808080050707060000708880B88888705D
:102A3000050707060000888888F888888801070746
:102A400006020080808080808080050707060000E5
:102A5000381010101090600507070600008890A03D
:102A6000C0A09088050707060000808080808080D5
:102A7000F805070706000088D8A888888888050711
:102A8000070600008888C8A89888880507070600F8
:102A90000070888888888870050707060000F0881D
:102AA00088F080808005070706000070888888A865
:102AB0009068050707060000F08888F0A090880558
:102AC0000707060000788080700808F005070706F1
:102AD0000000F8202020202020050707060000889D
:102AE0008888888888700507070600008888888895
:102AF0008850200507070600008888888888A85025
:102B000005070706000088885020508888050707B9
:102B1000060000888888502020200507070600004E
:102B2000F80810204080F8030707060100E08080C5
:102B3000808080E005050506000180402010080324
:102B40000707060100E02020202020E005030306FF
:102B50000004205088050101060000F80202020668
:102B60000205804005050506000070087888780594
:102B700007070600008080B0C88888F005050506B4
:102B8000000070808088700507070600000808684C
:102B9000988888780505050600007088F88070051B
:102BA00007070600003048E04040404005060606A2
:102BB00000FF70888878087005070706000080808D
:102BC000B0C88888880107070602008000808080DE
:102BD00080800308080601FF200020202020A0405C
:102BE000040707060000808090A0C0A0900307079C
:102BF000060100C04040404040E0050505060000D9
:102C0000D0A8A8A8A8050505060000B0C88888882F
:102C10000505050600007088888870050606060010
:102C2000FFF08888F080800506060600FF78888817
:102C3000780808050505060000B0C88080800505F5
:102C40000506000070807008F004070706000040C9
:102C500040E040404030050505060000888888981F
:102C600068050505060000888888502005050506CA
:102C700000008888A8A85005050506000088502097
:102C800050880506060600FF8888887808700505C4
:102C900005060000F8102040F80307070601002091
:102CA000404080404020010707060200808080806D
:102CB000808080030707060100804040204040805C
:102CC00005020206000268900000000600000000F5
:102CD00000060000000000060000000000060000E2
:102CE00000000006000000000006000000000006D2
:102CF00000000000000600000000000600000000C8
:102D000000060000000000060000000000060000B1
:102D100000000006000000000006000000000006A1
:102D20000000000000060000000000060000000097
:102D30000006000000000006000000000006000081
:102D40000000000600000000000600000000000671
:102D50000000000000060000000000060000000067
:102D60000006000000000006000000000006000051
:102D70000000000600000000000600000000000641
:102D80000000000000060000000000060000000037
:102D90000006000001070706020080008080808096
:102DA000800507070600002070A8A0A8702005076E
:102DB00007060000304040E04050A8050505060029
:102DC000008870507088050707060000885020F8BA
:102DD00020F82001070706020080808000808080A4
:102DE000050808060000304820505020906003017C
:102DF00001060107A0050707060000F888B8B8B863
:102E000088F8050707060001700878887800F8053B
:102E100005050600012850A05028050303060001FF
:102E2000F8080802020206020640800507070600AD
:102E300000F888A88898A8F8050101060006F8049B
:102E40000404060003609090600507070600002058
:102E500020F8202000F804050506000360902040BB
:102E6000F0030505060003E020E020E00202020670
:102E7000020640800508080600FF8888888898E8D0
:102E800080800507070600007898987818181802BF
:102E90000202060202C0C00202020602FF408003D4
:102EA000050506000340C04040E005070706000195
:102EB000708888887000F8050505060001A0502874
:102EC00050A00507070600008890A858B808080514
:102ED00007070600008890B84898203805080806BB
:102EE0000000C040C048D8380808050707060000A1
:102EF000200020408088700508080600004020005F
:102F00007088F8888805080806000010200070887E
:102F1000F888880508080600002050007088F888A6
:102F2000880508080600006890007088F888880501
:102F300008080600005000708888F888880508088E
:102F40000600002050207088F888880507070600D2
:102F5000003860A0B8E0A0B80508080600FF708837
:102F6000808088702060050808060000402000F876
:102F700080F080F8050808060000081000F880F0CE
:102F800080F8050808060000205000F880F080F85E
:102F90000507070600005000F880F080F8030808D5
:102FA000060100804000E0404040E00308080601C0
:102FB00000204000E0404040E003080806010040D7
:102FC000A000E0404040E0030707060100A000E049
:102FD000404040E0050707060000704848E84848C0
:102FE0007005080806000068900088C8A898880541
:102FF0000808060000402070888888887005080846
:10300000060000102070888888887005080806006F
:103010000020500070888888700508080600006845
:1030200090007088888870050808060000500070BD
:10303000888888887005050506000188502050881A
:103040000508080600FF1070A8A8A8A87040050889
:1030500008060000402088888888887005080806CF
:1030600000001020888888888870050808060000FD
:1030700020500088888888700508080600005000E5
:103080008888888888700508080600001020885005
:10309000202020200509090600FFC0407048487024
:1030A0004040E00408080601FF609090A09090E086
:1030B0008005080806000040200070087888780520
:1030C00008080600001020007008788878050808B5
:1030D000060000205000700878887805080806006F
:1030E000006890007008788878050707060000508F
:1030F00000700878887805080806000020502070C5
:1031000008788878050606060000D02878A0A85020
:103110000506060600FF7080887020600508080616
:1031200000004020007088F8807005080806000044
:103130001020007088F880700508080600002050F4
:10314000007088F88070050707060000500070883E
:10315000F8807003080806010080400040C040402D
:10316000E003080806010020400040C04040E003A2
:10317000080806010040A00040C04040E0030707E7
:10318000060100A00040C04040E00507070600001F
:10319000A040A0107888700508080600006890001C
:1031A000B0C888888805080806000040200070889C
:1031B000888870050808060000102000708888883C
:1031C0007005080806000020500070888888700587
:1031D0000808060000689000708888887005070756
:1031E00006000050007088888870050505060001FB
:1031F0002000F800200507070600FF1070A8A8A807
:1032000070400508080600004020008888889868FB
:1032100005080806000010200088888898680508BE
:10322000080600002050008888889868050707066F
:103230000000500088888898680509090600FF107A
:103240002000888888F808700407070601FFC0403E
:1032500060506040E00508080600FF50008888883C
:1032600078087000060900FE000000000001090057
:1032700008FE000005080806000040F0C88888988D
:103280007810050808060000C0F88888888888F843
:103290000505050600012030F83020050808060065
:1032A000002070F820202020E00509090600FF20FA
:1032B00070A8A8B8888870200509090600FFE0807A
:1032C000C0B0A8283028280509090600FFF8A888FA
:1032D00088888888A8F8050A0A0600FE2050505001
:1032E0005088A8A8887003030306000340A040008C
:1032F0009DE744E511241FBECFEFD0E4DEBFCDBF74
:1033000013E0A0E0B1E0E0EAF8EF01E00BBF02C09B
:1033100007900D92A63CB107D9F72AE1A6ECB3E0DD
:1033200001C01D92A434B207E1F719E1C9E7D9E160
:1033300004C02197FE010E94B8FBC837D107C9F726
:103340000E94BAE80C9443FC0C9400001198000011
:10335000000087FD52C0419800000000119A000053
:10336000000011980000000086FD53C04198000045
:103370000000119A0000000011980000000085FD77
:1033800046C0419800000000119A0000000011980A
:103390000000000084FD39C0419800000000119A2F
:1033A0000000000011980000000083FD2CC041982F
:1033B00000000000119A00000000119800000000B9
:1033C00082FD1FC0419800000000119A000000001B
:1033D00011980000000081FD12C04198000000001B
:1033E000119A0000000011980000000041980000B0
:1033F0000000119A000000000895419AADCF419A53
:10340000EDCF419AE0CF419AD3CF419AC6CF419AAE
:10341000B9CF419AACCF880F991F880F991FFC0133
:10342000E953F74F40815181628173818B5B904FEB
:10343000FC014083518362837383E091C508F0915E
:10344000C60882899389A489B5898093820990935B
:103450008309A0938409B09385090895EF92FF92A0
:103460000F931F93CF93DF93E090C508F090C608A9
:10347000F70182819381A481B581181619061A0675
:103480001B06E4F480917D0980FF18C080915409E7
:1034900096B192FB992790F98E7F892780935409E2
:1034A000909153099170892349F08091510F816067
:1034B0008093510F90E080E00E940B1AF701868103
:1034C0009781A085B185181619061A061B0614F5F2
:1034D00080917D0981FF1EC08091540996B193FBB4
:1034E000002700F910E011950195110908270270D5
:1034F00011278027809354090091530902700823F3
:1035000049F08091510F82608093510F81E090E0EB
:103510000E940B1AF70182859385A485B58518163C
:1035200019061A061B063CF580917D0982FF23C00F
:1035300080912C0F8823F9F08091540996B19295CF
:103540009170C92FF0E0DF2FD195C195D109C8271F
:10355000C470DD278C2780935409C0915309C4702F
:10356000C82349F08091510F84608093510F82E00D
:1035700090E00E940B1A8091540980935309DF91C7
:10358000CF911F910F91FF90EF9008950C9448C434
:103590000C94C4CACF92DF92EF92FF92CF93C82FC0
:1035A0000E94B8CA6B017C0124EA30E74DE75FE373
:1035B0006091110A7091120A8091130A9091140A75
:1035C0000E94CBF287FD18C08AEF90E0A0E0B0E047
:1035D0008C0D9D1DAE1DBF1D80930C0F90930D0F84
:1035E000A0930E0FB0930F0FC0933D01CF91FF90AA
:1035F000EF90DF90CF90089580E090E0DC01E8CF7D
:10360000EF92FF920F931F93CF93DF93CDB7DEB767
:10361000AE970FB6F894DEBF0FBECDBF7E018FE12F
:10362000E80EF11C80E1F70111928A95E9F76091AB
:10363000060A7091070A8091080A9091090A870189
:1036400022E043E00E94C7EDF80181918F018823B9
:1036500019F00E94D98CF8CF8AE00E94D98C02E23E
:1036600012E0F80181918F01882319F00E94D98C12
:10367000F8CF8AE00E94D98C80911D0F90911E0F87
:103680008E010F5F1F4F181619060CF050C0809165
:1036900008108F93809107108F938AE291E19F9396
:1036A0008F931F930F930E9462F2C8010E94ACC2D5
:1036B000809106108F93809105108F9381E291E1A4
:1036C0009F938F931F930F930E9462F2C8010E94F1
:1036D000ACC287E191E190934214809341140E941F
:1036E0005A8B81E090E09093200F80931F0F0FB6CC
:1036F000F894DEBF0FBECDBF80917016882319F0FD
:1037000081E080936F160E94B5CC6FEF8DEF90E152
:103710000E9493DAAE960FB6F894DEBF0FBECDBF0F
:10372000DF91CF911F910F91FF90EF9008958091BD
:10373000050A8F938091040A8F938EE091E19F9305
:103740008F931F930F930E9462F2C8010E94ACC234
:103750008091030A8F938091020A8F9385E091E113
:103760009F938F931F930F930E9462F2C8010E9450
:10377000ACC2FF92EF928EEF90E19F938F931F93D5
:103780000F930E9462F2C8010E94ACC2B0CF9F9218
:10379000AF92BF92CF92DF92EF92FF920F931F935F
:1037A000CF93DF935B01E9014A3009F4B0C04531A2
:1037B00009F063C0DB011296ED91FC91F280C681A5
:1037C000D781139A88E290E00197F1F7EF2CE29409
:1037D00020EFE22230E1932E9F0C48E2C42ED12C40
:1037E0000E94A8C5C6010197F1F7BFE1BF1508F413
:1037F0007BC08F2D807780680E94A6198E2D0E9435
:10380000A619C6010197F1F70E9416C50E945FC56F
:10381000C6010197F1F70E94CDC4C6010197F1F7E7
:103820008E01005F1F4F8881807F0E94A6198991B9
:103830008295807F0E94A619C017D107A1F7C60103
:103840000197F1F7F394E0E1EE0EF910C9CF139868
:10385000D5011296CD91DC91CE010E946FCD8111E0
:103860003CC1DF91CF911F910F91FF90EF90DF90BE
:10387000CF90BF90AF909F900895FB01028113817C
:10388000423309F4E5C008F4E9C0463409F4D6C06F
:10389000473409F4D9C04B3329F589812B81D801EC
:1038A00012967C91129713963C91213009F42CC109
:1038B000233009F0F6C048EF480F582F91E0341735
:1038C00008F490E031E0541708F030E0492F432B22
:1038D00061E0571708F460E0462309F00AC193231A
:1038E00009F007C181E0BDCF80EE8F0D8068807F39
:1038F0000E94A6198F2D8295807F0E94A619C6016D
:103900000197F1F70E9416C50E9416C581CF0B9A48
:103910001398399A4198099A119A139A88E290E07B
:103920000197F1F788E790E0CEE9DFE0FE013197FB
:10393000F1F70197D9F70E94A8C508E210E0C80185
:103940000197F1F70E945FC50E9416C5C801019753
:10395000F1F70E945FC580E10E94A619C801019796
:10396000F1F7CE010197F1F7CE010197F1F7CE0102
:103970000197F1F7CE010197F1F7CE010197F1F729
:10398000CE010197F1F7CE010197F1F7CE01019732
:10399000F1F7CE010197F1F7CE010197F1F7CE01D2
:1039A0000197F1F7CE010197F1F7CE010197F1F7F9
:1039B000CE010197F1F72197F1F780E30E94A61954
:1039C00080EE0E94A619C8010197F1F7F12CD0E012
:1039D0008D2F807780680E94A6198F2D0E94A619CE
:1039E000C8010197F1F70E9416C50E945FC5C80182
:1039F0000197F1F70E94CDC4C8010197F1F7C0E229
:103A00000E945FC50E945FC5C8010197F1F7C150D0
:103A1000B9F70E94A8C5C8010197F1F7DF5F80E1FF
:103A2000F80ED032A9F60E945FC580EC0E94A6195C
:103A3000C8010197F1F7139881E013CFD8011596CB
:103A40008C91888381E00DCFF80181818883FACF42
:103A5000B901C8010E9459CD81E003CF443171F012
:103A6000473109F03FCF1882F8018281898385812F
:103A700081508A8383818B8381E0F3CED8011596B0
:103A80004C91159750E0440F551F70E060E016967A
:103A90008D919C910E94E6FBC8010E9485CD81E03A
:103AA000E0CE381708F41ECF871708F41BCFFA8032
:103AB000E12CD12C243070F41DC0BE01C8010E943D
:103AC00059CD898198819D0D98838E0D8983FF0C36
:103AD00009F408CFF7FEF6CFF0CF4D8150E0440F48
:103AE000551F70E060E08E819F810E94E6FB81E0BF
:103AF000B8CEFA8030E0F901E652FE4FD0802A526B
:103B00003E4FF901E080E6CF58E0580F482FD6CE5F
:103B1000DF92EF92FF920F931F93CF93DF93EC010D
:103B2000D62E1CAD0BAD7C0184E0E80EF11CE98DB6
:103B3000FA8DC7010995412F480F2D2D602FC70120
:103B40000E9414D09BAD890F8BAF81E090E0DF9194
:103B5000CF911F910F91FF90EF90DF9008954F92BA
:103B60005F926F927F92AF92BF92CF92DF92EF926D
:103B7000FF920F931F93CF93DF938C01EB01FC0116
:103B800047A050A461A472A4AFA0B8A4C9A4DAA4A9
:103B90009501A601C301B2010E94CBF287FF3EC08E
:103BA000A3019201C301B2010E9431F32B013C0138
:103BB000F80163A974A985A996A990589B01AC0145
:103BC0000E9477F9F80127A530A941A952A90E94BE
:103BD00031F39B01AC01C301B2010E9476F90E944E
:103BE00038FB7B018C019B01AC01B501C6010E9431
:103BF000CBF287FF02C0750186019701A801B501CC
:103C0000C6010E94CBF2882349F0C701D8018FA3D7
:103C100098A7A9A7BAA7888181608883DF91CF91EF
:103C20001F910F91FF90EF90DF90CF90BF90AF90DA
:103C30007F906F905F904F9008954F925F926F9238
:103C40007F928F929F92AF92BF92CF92DF92EF922C
:103C5000FF92CF93DF93CDB7DEB76A970FB6F89494
:103C6000DEBF0FBECDBF9A8F898F5B014A01DC0199
:103C7000D7966D917D918D919C91DA970E94D0F2AB
:103C80006B017C01F50120813181428153810E94C9
:103C900031F30E94E3F90E9473FA3B015C01D40105
:103CA0002D913D914D915C91C701B6010E9431F378
:103CB0000E94E3F90E9473FA6D827E82AF82B88619
:103CC0002D813E814F8158852837310541055105A9
:103CD00040F428E730E040E050E02D833E834F83FE
:103CE000588769837A838B839C8389819A81AB818E
:103CF000BC8188379105A105B10540F428E730E083
:103D000040E050E029833A834B835C83E98DFA8D50
:103D1000ED5BFF4F80819181A281B3818D879E876A
:103D2000AF87B88BBC01CD010E94D2F269877A8738
:103D30008B879C876D817E818F8198850E94D0F2D0
:103D4000698B7A8B8B8B9C8B20E030E0A901698595
:103D50007A858B859C850E94CBF2882309F432C139
:103D6000A7019601C701B6010E9431F34B015C0126
:103D700029893A894B895C89CA01B9010E9431F3CA
:103D80009B01AC01C501B4010E9476F94B015C01B5
:103D900029853A854B855C85CA01B9010E9477F96E
:103DA0009B01AC01C501B4010E94FAF90E94E3F93C
:103DB0000E946CFA2B013C016D857E858F85988968
:103DC00090958095709561957F4F8F4F9F4F0E9482
:103DD000D2F24B015C0169817A818B819C810E94C6
:103DE000D0F26D877E878F87988B20E030E0A90125
:103DF000C501B4010E94CBF2882309F4E7C02D85E8
:103E00003E854F855889CA01B9010E9431F36D8BF7
:103E10007E8B8F8B988FA7019601C701B6010E94F8
:103E200031F39B01AC016D897E898F89988D0E9449
:103E300076F96B017C01A5019401C501B4010E94D2
:103E400077F99B01AC01C701B6010E94FAF90E9403
:103E5000A2FAA98DBA8D52968D909D90AD90BC908E
:103E6000559775016401C418D508E608F7080E9443
:103E70006CFAC61AD70AE80AF90AF7FE67C020E00A
:103E800030E0A90169857A858B859C850E94CBF2FB
:103E9000882309F49FC0C501B4010E94D0F26B01D0
:103EA0007C0129853A854B855C85CA01B9010E9450
:103EB00077F99B01AC01C701B6010E9431F36B0198
:103EC0007C0129893A894B895C89CA01B9010E9420
:103ED00031F39B01AC01C701B6010E9476F96B0179
:103EE0007C012D853E854F855889CA01B9010E9404
:103EF00031F39B01AC01C701B6010E9477F96B0158
:103F00007C0120E030E040E850E469857A858B85CB
:103F10009C850E9431F39B01AC01C701B6010E9450
:103F2000FAF90E94E3F90E946CFA2B013C0177FE3A
:103F300003C0412C512C3201481459046A047B04FB
:103F400010F024013501C12CD12C76018FB7F894E3
:103F5000E98DFA8D908193FD1FC0DF01468A578A53
:103F6000608E718EC40CD51CE61CF71CC28ED38EDD
:103F7000E48EF58E2D813E814F81588523AF34AF7D
:103F800045AF56AFDF9629813A814B815C812D93F5
:103F90003D934D935C9313978FBF6A960FB6F89439
:103FA000DEBF0FBECDBFDF91CF91FF90EF90DF90CE
:103FB000CF90BF90AF909F908F907F906F905F90C9
:103FC0004F90089560E070E0CB01F0CE60E070E0CB
:103FD000CB013DCF60E070E0CB01A3CF8091EB0936
:103FE0008630D8F496E0899FF0011124E953F64F0A
:103FF00020914501309146013183208340915B0F30
:1040000050915C0F60915D0F70915E0F42835383FE
:10401000648375838F5F8093EB0908952091450138
:104020003091460128173907D9F0909346018093C3
:10403000450140935B0F50935C0F60935D0F70934D
:104040005E0F85509A4321F41092140F1092EB09E1
:1040500082E080935A0181E080930B0F10921A0F37
:10406000089521E02093140F6093110A7093120AAF
:104070008093130A9093140A40E050E0BA018091B3
:10408000160A9091170A0C940E2060E070E080E20E
:1040900091E40C94312060E070E080E89FE30C94A0
:1040A00031206DEC7CEC8CEC9DE30C94312040E0F5
:1040B00050E0BA0185E09AE30C940E20E091EB0900
:1040C000EE2389F0E150E093EB0986E0E89FF001F0
:1040D0001124E953F64F42815381648175818081B7
:1040E00091810C940E200C945720CF93DF938091F4
:1040F0001B0F882321F0DF91CF910C945E2010924A
:10410000190F80915B0F90915C0FA0915D0FB091A2
:104110005E0F81309048A105B10540F010925B0F11
:1041200010925C0F10925D0F10925E0FC0915B0FAA
:104130008091250A181604F5282F082E000C330B41
:10414000255031094C2F0C2E000C550B42175307EC
:104150009CF0CBEFC80F85300CF4C0E08C2F0C2EF8
:10416000000C990BAA0BBB0B80935B0F90935C0F19
:10417000A0935D0FB0935E0FC0930A0FD0E0C11102
:1041800012C080915A0121E041E06EEF77E1811188
:1041900014C0CF5FDF5FD53091F787E08093250AA9
:1041A000DF91CF910895C13061F480915A0120E0F0
:1041B00041E063EF77E1882361F38D2F0E94FAC815
:1041C000E8CFC23021F580915A0120E041E068EE4D
:1041D00077E18823F1F2F1CF80915A0120E041E0AC
:1041E0006FED77E18823A9F2E8CF80915A0120E0B2
:1041F00041E06DEC77E1882361F2DFCF80915A01D5
:1042000020E041E060EC77E1882319F2D6CFC3309B
:1042100019F3C43051F3C53089F3C63009F0B9CF72
:1042200080915A01882309F4B4CF20E041E06EEA7E
:1042300077E1C3CFCF93DF9380911B0F882321F0C9
:10424000DF91CF910C945E201092190F80915B0F3B
:1042500090915C0FA0915D0FB0915E0F81309048FE
:10426000A105B10540F010925B0F10925C0F109207
:104270005D0F10925E0FC0915B0F8091240A18169B
:1042800004F5282F082E000C330B255031094C2F34
:104290000C2E000C550B421753079CF0CBEFC80FA8
:1042A00085300CF4C0E08C2F0C2E000C990BAA0B5F
:1042B000BB0B80935B0F90935C0FA0935D0FB0934B
:1042C0005E0FC0930A0FD0E0C11112C080915A0155
:1042D00021E041E06DE977E1811114C0CF5FDF5F3C
:1042E000D53091F784E08093240ADF91CF9108952F
:1042F000C13061F480915A0120E041E060E977E14A
:10430000882361F38D2F0E94FAC8E8CFC23049F4A8
:1043100080915A0120E041E062E877E18823F1F2E0
:10432000F1CFC330D9F680915A018823B9F220E049
:1043300041E069E777E1E6CFCF93DF9380911B0FF0
:10434000882321F0DF91CF910C945E201092190FF9
:1043500080915B0F90915C0FA0915D0FB0915E0F0B
:1043600081309048A105B10540F010925B0F10928A
:104370005C0F10925D0F10925E0FC0915B0F8091E9
:10438000230A181604F5282F082E000C330B25508D
:1043900031094C2F0C2E000C550B421753079CF083
:1043A000CBEFC80F85300CF4C0E08C2F0C2E000C26
:1043B000990BAA0BBB0B80935B0F90935C0FA093A0
:1043C0005D0FB0935E0FC0930A0FD0E0C11112C011
:1043D00080915A0121E040E06AE677E1811114C042
:1043E000CF5FDF5FD53091F786E08093230ADF91BE
:1043F000CF910895C13061F480915A0120E040E0EE
:104400006EE577E1882361F38D2F0E94FAC8E8CF2B
:10441000C230D9F480915A0120E040E060E577E1B4
:104420008823F1F2F1CF80915A0121E040E060E46D
:1044300077E18823A9F2E8CF80915A0120E040E09B
:1044400064E377E1882361F2DFCFC33061F3C430E6
:1044500099F3C53029F680915A01882309F220E0AA
:1044600040E066E277E1D0CF2F923F924F925F9289
:104470006F927F928F929F92AF92BF92CF92DF9274
:10448000EF92FF920F931F93CF93DF931092190F28
:1044900080915B0F90915C0FA0915D0FB0915E0FCA
:1044A00081309048A105B10540F010925B0F109249
:1044B0005C0F10925D0F10925E0FC0915B0F8091A8
:1044C0001C0A1816DCF4282F082E000C330B215080
:1044D00031094C2F0C2E000C550B4217530774F06A
:1044E000CFEFC80F8C2F90E0B0E0A0E080935B0F7F
:1044F00090935C0FA0935D0FB0935E0F10920B0F23
:1045000080910A0FC81714F4C0930A0F80910A0F04
:10451000082E000C990B04962C2F0C2E000C330B3C
:104520008217930724F48CEF8C0F80930A0FD0919D
:104530000A0F4D2E65E0562E5D0E73E0D72EE7E292
:104540008E2EE5E19E2E86E0B82EBD1ACC24C394B3
:1045500085E0A82EAD1A84E0782E7D1A3D2C3D1AF8
:1045600082E0682E6D1A2C2C2D1AD11134C0809146
:104570001B0F811115C080915A01882351F0642DC1
:10458000619581E0C11180E024E04DE755E10E9492
:10459000C0D9DF5F5D12E9CF87E080931C0A08C0B5
:1045A000C111E9CF0E945E2080910B0F882319F37F
:1045B000DF91CF911F910F91FF90EF90DF90CF90FF
:1045C000BF90AF909F908F907F906F905F904F9033
:1045D0003F902F900895D130E1F580911B0F81110C
:1045E00022C080915A018823A1F2DF9287EE8F9337
:1045F0001F92CF9282E099E09F938F938FE695E18F
:104600009F938F932F9281E0C13009F080E08F93C8
:104610000E945ED88DB79EB70A960FB6F8949EBFDB
:104620000FBE8DBFB6CFC130E1F6E12C10ECF12EFC
:1046300009E714E420E030E040E85FE362E079E07D
:1046400086E795E10E9427E080910B0F882349F2CD
:10465000AFCFD23009F008C180911B0F811123C068
:1046600080915A01882309F494CFDF9287EE8F93CB
:104670001F92CF9286E099E09F938F9381E695E118
:104680009F938F936F9281E0C23009F080E08F9307
:104690000E945ED88DB79EB70A960FB6F8949EBF5B
:1046A0000FBE8DBF76CFC230D9F6E12C10ECF12EC3
:1046B00009E714E420E030E040E85FE366E079E0F9
:1046C00088E695E10E9427E080910B0F882341F254
:1046D0006FCF80911B0F811123C080915A018823D5
:1046E00009F457CFDF9287EE8F931F92CF928AE023
:1046F00099E09F938F9383E595E19F938F933F92EA
:1047000081E0C33009F080E08F930E945ED88DB7BE
:104710009EB70A960FB6F8949EBF0FBE8DBF39CFD5
:10472000C330D9F6E12C10ECF12E09E714E420E0B7
:1047300030E040E85FE36AE079E08AE595E10E94D5
:1047400027E080910B0F882341F232CF80911B0F1D
:10475000811123C080915A01882309F41ACFDF9276
:1047600087EE8F931F92CF928EE099E09F938F9365
:1047700085E495E19F938F937F9281E0C43009F0A7
:1047800080E08F930E945ED88DB79EB70A960FB6D1
:10479000F8949EBF0FBE8DBFFCCEC430D9F6E12C7D
:1047A00010ECF12E09E714E420E030E040E85FE38C
:1047B0006EE079E08CE495E10E9427E080910B0F98
:1047C000882341F2F5CE80911B0F811123C0809187
:1047D0005A01882309F4DDCEDF9287EE8F931F9272
:1047E0001F928EEF98E09F938F938BE395E19F93B9
:1047F0008F93AF9281E0C53009F080E08F930E94E3
:104800005ED88DB79EB70A960FB6F8949EBF0FBEBE
:104810008DBFBFCEC530D9F6E12C10ECF12E09E7E3
:1048200014E420E030E0A9016EEF78E080E495E147
:104830000E9427E080910B0F882349F2B9CEC63041
:1048400019F5E12C10ECF12E09E714E420E030E03A
:10485000A9016AEF78E081E395E10E9427E0809169
:104860000B0F882389F0A4CED33009F432CFD43093
:1048700009F46CCFD53009F4A6CFD63009F089CE33
:1048800080911B0F8111DBCF80915A01882309F49D
:1048900080CEDF9287EE8F931F921F928AEF98E06F
:1048A0009F938F939F928F92BF9281E0C63009F0C1
:1048B00080E08F930E945ED88DB79EB70A960FB6A0
:1048C000F8949EBF0FBE8DBF64CE3F924F925F9211
:1048D0006F927F928F929F92AF92BF92CF92DF9210
:1048E000EF92FF920F931F93CF93DF931092190FC4
:1048F00080915B0F90915C0FA0915D0FB0915E0F66
:1049000081309048A105B10540F010925B0F1092E4
:104910005C0F10925D0F10925E0FC0915B0F809143
:104920001A0A1816DCF4282F082E000C330B21501D
:1049300031094C2F0C2E000C550B4217530774F005
:10494000CFEFC80F8C2F90E0B0E0A0E080935B0F1A
:1049500090935C0FA0935D0FB0935E0F10920B0FBE
:1049600080910A0FC81714F4C0930A0F80910A0FA0
:10497000082E000C990B04962C2F0C2E000C330BD8
:104980008217930724F48CEF8C0F80930A0FD09139
:104990000A0F5D2E85E0682E6D0E05E00D1B11E0FF
:1049A00094E0792E472C4D1A20EBE22E24E1F22ED2
:1049B00083E0982E9D1A34ECC32E34E1D32E82E08E
:1049C000882E8D1A4CECA42E44E1B42E312E3D1AC3
:1049D000D1112EC080911B0F811110C080915A01FE
:1049E000882309F44EC0652D619581E0C11180E0F6
:1049F00024E04AED54E10E94C0D943C0C111EECF7A
:104A00000E945E2080910B0F882341F3DF91CF91AC
:104A10001F910F91FF90EF90DF90CF90BF90AF90DC
:104A20009F908F907F906F905F904F903F900895F0
:104A3000D13009F049C080911B0F811129C08091AC
:104A40005A018823F1F088EC9AE19F938F931F938A
:104A50007F921F921F928BEC95E19F938F93BF9251
:104A6000AF923F9281E0C13009F080E08F930E94C5
:104A700047D88DB79EB70C960FB6F8949EBF0FBE61
:104A80008DBFDF5F6D12A4CF86E080931A0ABECF80
:104A9000C130A9F6C093190F1092150F1092160F7E
:104AA0001092170F1092180F28EC3AE144E051E0F1
:104AB0006BEC75E183ED94E10E943BC680910B0F96
:104AC000882309F4BCCFA2CFD23009F0ABC08091CB
:104AD0001B0F811124C080915A01882391F28EE12D
:104AE00090E49F938F931F928EE68F931F921F9255
:104AF0008EE69FE09F938F93DF92CF928F9281E01B
:104B0000C23009F080E08F930E9447D88DB79EB7DE
:104B10000C960FB6F8949EBF0FBE8DBFB2CFC230B9
:104B2000D1F61093190F1092150F1092160F1092C4
:104B3000170F1092180F2EE130E44EE650E06EE6AB
:104B40007FE088EC94E10E943BC680910B0F8823A4
:104B500011F25CCF80911B0F811121C080915A010D
:104B6000882309F48ECF1F928FEF8F931F921F928D
:104B700080E79FE09F938F93FF92EF929F9281E057
:104B8000C33009F080E08F930E9447D88DB79EB75D
:104B90000A960FB6F8949EBF0FBE8DBF72CFC3307A
:104BA000E9F61093190F1092150F1092160F10922C
:104BB000170F1092180F2FEF30E050E040E060E741
:104BC0007FE08AEB94E10E9492E080910B0F8823B2
:104BD00029F21CCF80911B0F81110EC080915A01C8
:104BE000882309F44ECF81E0C43009F080E023E04F
:104BF0004FE954E1642DFFCEC43081F78AEF97E688
:104C00000E942EDF80910B0F882341F3FFCEC53029
:104C1000A9F487EF97E60E942EDF80910B0F88237F
:104C200069F0F4CED33009F495CFD43099F2D53071
:104C300009F027CF80911B0F8111E9CF80915A0194
:104C4000882309F41ECF81E0C53009F080E023E01D
:104C50004EE854E1602FCFCE4F925F926F927F92D9
:104C60008F929F92AF92BF92CF92DF92EF92FF927C
:104C70000F931F93CF93DF931092190F80915B0FC7
:104C800090915C0FA0915D0FB0915E0F81309048C4
:104C9000A105B10540F010925B0F10925C0F1092CD
:104CA0005D0F10925E0FC0915B0F80910B0A18167A
:104CB000DCF4282F082E000C330B215031094C2F27
:104CC0000C2E000C550B4217530774F0CFEFC80F92
:104CD0008C2F90E0B0E0A0E080935B0F90935C0F8E
:104CE000A0935D0FB0935E0F10920B0F80910A0F8F
:104CF000C81714F4C0930A0F80910A0F082E000CF5
:104D0000990B04962C2F0C2E000C330B8217930753
:104D100024F48CEF8C0F80930A0FD0910A0F85E05A
:104D2000582E5D0E9CE7E92E91E1F92E14E01D1B33
:104D300027E9C22E21E1D22E03E00D1B35EBA32E75
:104D400031E1B32E82E0782E7D1A40ED842E41E1D0
:104D5000942E81E0682E6D1A4D2E4194D11131C0F0
:104D600080911B0F811114C080915A01882349F052
:104D700081E0C11180E024E04DED51E1642D0E94FD
:104D8000C0D9DF5F5D12EACF85E080930B0A08C0CF
:104D9000C111EACF0E945E2080910B0F882321F37E
:104DA000DF91CF911F910F91FF90EF90DF90CF9007
:104DB000BF90AF909F908F907F906F905F904F903B
:104DC0000895D130F1F480911B0F81110DC08091B5
:104DD0005A018823B1F281E0C13009F080E020E27D
:104DE00042EC51E1662DCBCFC13089F7909242144D
:104DF000809241140E945A8B80910B0F882339F3C3
:104E0000CFCFD23009F04BC080911B0F81110EC063
:104E100080915A01882309F4B4CF81E0C23009F0AF
:104E200080E020E243EA51E1672DA9CFC23081F74B
:104E3000B0924214A09241140E945A8B80910B0FA1
:104E4000882331F3ADCF80911B0F81110EC080916B
:104E50005A01882309F495CF81E0C33009F080E03E
:104E600020E248E851E1602F8ACFC33081F7D09229
:104E70004214C09241140E945A8B80910B0F8823D8
:104E800031F38ECFC430A1F4F0924214E092411479
:104E90000E945A8B80910B0F882351F081CFD33021
:104EA00091F2D43009F06DCF80911B0F8111EACFC0
:104EB00080915A01882309F464CF81E0C43009F05D
:104EC00080E020E24FE651E1612F59CFCF92DF928F
:104ED000EF92FF920F931F93CF93DF931092190FCE
:104EE00080915B0F90915C0FA0915D0FB0915E0F70
:104EF00081309048A105B10540F010925B0F1092EF
:104F00005C0F10925D0F10925E0FC0915B0F80914D
:104F1000180A1816DCF4282F082E000C330B215029
:104F200031094C2F0C2E000C550B4217530774F00F
:104F3000CFEFC80F8C2F90E0B0E0A0E080935B0F24
:104F400090935C0FA0935D0FB0935E0F10920B0FC8
:104F500080910A0FC81714F4C0930A0F80910A0FAA
:104F6000082E000C990B04962C2F0C2E000C330BE2
:104F70008217930724F48CEF8C0F80930A0FD09143
:104F80000A0F85E0D82EDD0E14E01D1B03E00D1B7B
:104F900082E0F82EFD1A81E0E82EED1ACD2EC194A4
:104FA000D11129C080911B0F811114C080915A0129
:104FB000882349F081E0C11180E024E04EE254E111
:104FC0006C2D0E94C0D9DF5FDD12EACF85E08093AF
:104FD000180A08C0C111EACF0E945E2080910B0F11
:104FE000882321F3DF91CF911F910F91FF90EF90D4
:104FF000DF90CF900895D130E1F480911B0F8111A3
:105000000DC080915A018823F1F281E0C13009F08E
:1050100080E023E047E254E16E2DD3CFC13089F721
:1050200085E19AE20E942EDF80910B0F882349F3DD
:10503000D9CFD23009F045C080911B0F81110EC02D
:1050400080915A01882309F4BECF81E0C23009F073
:1050500080E023E040E254E16F2DB3CFC23081F70E
:105060008BE19AE20E942EDF80910B0F882341F39F
:10507000B9CF80911B0F81110EC080915A018823F6
:1050800009F4A1CF81E0C33009F080E023E049E1D9
:1050900054E1602F96CFC33081F781E29AE20E94FB
:1050A0002EDF80910B0F882341F39CCFC43091F405
:1050B00087E29AE20E942EDF80910B0F882351F045
:1050C00091CFD330B1F2D43009F07DCF80911B0F56
:1050D0008111ECCF80915A01882309F474CF81E0CB
:1050E000C43009F080E023E040E154E1612F69CF52
:1050F000AF92BF92CF92DF92EF92FF920F931F93E6
:10510000CF93DF938C017093170A6093160A109265
:10511000190F80915B0F90915C0FA0915D0FB09182
:105120005E0F81309048A105B10540F010925B0FF1
:1051300010925C0F10925D0F10925E0FC0915B0F8A
:105140008091150A1816DCF4282F082E000C330B5A
:10515000215031094C2F0C2E000C550B42175307D0
:1051600074F0CFEFC80F8C2F90E0B0E0A0E08093F8
:105170005B0F90935C0FA0935D0FB0935E0F109246
:105180000B0F80910A0FC81714F4C0930A0F809177
:105190000A0F082E000C990B04962C2F0C2E000CD5
:1051A000330B8217930724F48CEF8C0F80930A0F34
:1051B000D0910A0F85E0B82EBD0E81E094E0E92E73
:1051C000ED1A93E0D92EDD1A92E0C92ECD1AA82E41
:1051D000AD1AFD2EF1940130110591F10230110547
:1051E00009F454C00115110509F074C0D11196C01D
:1051F0008823B1F01C16A4F080915B0F90915C0F96
:10520000A0915D0FB0915E0F0196A11DB11D80931D
:105210005B0F90935C0FA0935D0FB0935E0FCF5F19
:1052200080915A0121E041E069E074E181112AC0D6
:10523000DF5F80E0DB11CFCF85E08093150A8CC063
:10524000D1116CC08823B1F01C16A4F080915B0FC3
:1052500090915C0FA0915D0FB0915E0F0196A11D22
:10526000B11D80935B0F90935C0FA0935D0FB09383
:105270005E0FCF5F80915A0121E041E062E074E16E
:105280008823B1F28F2D0E94FAC8D2CFD11146C027
:105290008823B1F01C16A4F080915B0F90915C0FF5
:1052A000A0915D0FB0915E0F0196A11DB11D80937D
:1052B0005B0F90935C0FA0935D0FB0935E0FCF5F79
:1052C00080915A0121E041E06BEF73E1882309F4FA
:1052D000AFCFD8CFD11122C08823B1F01C16A4F0D3
:1052E00080915B0F90915C0FA0915D0FB0915E0F6C
:1052F0000196A11DB11D80935B0F90935C0FA0934D
:105300005D0FB0935E0FCF5F80915A01882309F43F
:105310008FCF21E041E062EF73E1B4CFD13039F5B6
:1053200080911B0F811110C080915A01882309F4CC
:105330007FCF81E0C13009F080E024E048EE53E106
:105340006A2D0E94C0D974CFC13071F70E945E20CF
:1053500080910B0F882341F3DF91CF911F910F9123
:10536000FF90EF90DF90CF90BF90AF900895D23034
:10537000E9F480911B0F81110EC080915A0188239E
:1053800009F456CF81E0C23009F080E023E04EED11
:1053900053E16C2DD6CFC23081F785E490E20E94B4
:1053A0002EDF80910B0F882341F3D6CFD330E9F461
:1053B00080911B0F81110EC080915A01882309F43E
:1053C00037CF81E0C33009F080E023E045ED53E1C1
:1053D0006D2DB7CFC33081F78BE490E20E942EDFB2
:1053E00080910B0F882341F3B7CFD43009F020CF41
:1053F00080911B0F81110EC080915A01882309F4FE
:1054000017CF81E0C43009F080E023E04AEC53E19B
:105410006E2D97CFC43081F781E590E20E942EDF98
:1054200080910B0F882341F397CF6BE770E390E0F7
:1054300080E00C94782865E770E381E090E00C94BC
:1054400078286FE670E382E090E00C9478286BE1B6
:105450007FE283E090E00C947828DF92EF92FF9255
:105460000F931F93CF93DF931092190F80915B0FCF
:1054700090915C0FA0915D0FB0915E0F81309048CC
:10548000A105B10540F010925B0F10925C0F1092D5
:105490005D0F10925E0FC0915B0F80910E0A18167F
:1054A000DCF4282F082E000C330B215031094C2F2F
:1054B0000C2E000C550B4217530774F0CFEFC80F9A
:1054C0008C2F90E0B0E0A0E080935B0F90935C0F96
:1054D000A0935D0FB0935E0F10920B0F80910A0F97
:1054E000C81714F4C0930A0F80910A0F082E000CFD
:1054F000990B04962C2F0C2E000C330B821793075C
:1055000024F48CEF8C0F80930A0FD0910A0F85E062
:10551000E82EED0E13E01D1B02E00D1B81E0F82EBE
:10552000FD1ADD2ED194D11128C080911B0F81115D
:1055300014C080915A01882349F081E0C11180E0B4
:1055400024E048E053E16D2D0E94C0D9DF5FED12E9
:10555000EACF84E080930E0A08C0C111EACF0E940E
:105560005E2080910B0F882321F3DF91CF911F9153
:105570000F91FF90EF90DF900895D13031F5809139
:105580001B0F81110DC080915A018823F9F281E02F
:10559000C13009F080E020E24CEF52E16F2DD4CF12
:1055A000C13089F74091F6085091F7086091EE08F4
:1055B0007091EF088091F2089091F3080E941ADA36
:1055C00080910B0F8823F9F2D0CFD230C1F58091B2
:1055D0001B0F81110EC080915A01882309F4B6CFA8
:1055E00081E0C23009F080E020E24CEE52E1602F11
:1055F000ABCFC23081F74091F6085091F7086FEFBA
:105600007FEF8091F2089091F3080E941ADA80915E
:105610000B0F882301F3A9CFC330C1F44091F608E2
:105620005091F7086091EE087091EF0890E080E0EB
:105630000E941ADA80910B0F882341F096CFD33065
:1056400009F084CF80911B0F8111E6CF80915A0120
:10565000882309F47BCF81E0C33009F080E020E2A9
:105660004CED52E1612F70CFDF92EF92FF920F93DA
:105670001F93CF93DF931092190F80915B0F90913E
:105680005C0FA0915D0FB0915E0F81309048A10535
:10569000B10540F010925B0F10925C0F10925D0FFD
:1056A00010925E0FC0915B0F80910F0A1816DCF408
:1056B000282F082E000C330B215031094C2F0C2EB3
:1056C000000C550B4217530774F0CFEFC80F8C2F07
:1056D00090E0B0E0A0E080935B0F90935C0FA0930C
:1056E0005D0FB0935E0F10920B0F80910A0FC817D9
:1056F00014F4C0930A0F80910A0F082E000C990B26
:1057000004962C2F0C2E000C330B8217930724F4D5
:105710008CEF8C0F80930A0FD0910A0F85E0E82E52
:10572000ED0E13E01D1B02E00D1B81E0F82EFD1AAB
:10573000DD2ED194D11128C080911B0F811114C08E
:1057400080915A01882349F081E0C11180E024E072
:105750004CE353E16D2D0E94C0D9DF5FED12EACF1B
:1057600084E080930F0A08C0C111EACF0E945E2036
:1057700080910B0F882321F3DF91CF911F910F911F
:10578000FF90EF90DF900895D13031F580911B0F9D
:1057900081110DC080915A018823F9F281E0C13056
:1057A00009F080E020E240E353E16F2DD4CFC13017
:1057B00089F74091F8085091F9086091F0087091CC
:1057C000F1088091F4089091F5080E941ADA80910E
:1057D0000B0F8823F9F2D0CFD230C1F580911B0F87
:1057E00081110EC080915A01882309F4B6CF81E05F
:1057F000C23009F080E020E240E253E1602FABCFFD
:10580000C23081F74091F8085091F9086FEF7FEFAF
:105810008091F4089091F5080E941ADA80910B0F9C
:10582000882301F3A9CFC330C1F44091F808509107
:10583000F9086091F0087091F10890E080E00E9412
:105840001ADA80910B0F882341F096CFD33009F0FC
:1058500084CF80911B0F8111E6CF80915A0188235C
:1058600009F47BCF81E0C33009F080E020E240E121
:1058700053E1612F70CF2F923F924F925F926F92C0
:105880007F928F929F92AF92BF92CF92DF92EF92D0
:10589000FF920F931F93CF93DF931092190F809174
:1058A0005B0F90915C0FA0915D0FB0915E0F813006
:1058B0009048A105B10540F010925B0F10925C0F6B
:1058C00010925D0F10925E0FC0915B0F80910D0AD8
:1058D0001816DCF4282F082E000C330B2150310948
:1058E0004C2F0C2E000C550B4217530774F0CFEFC2
:1058F000C80F8C2F90E0B0E0A0E080935B0F9093F6
:105900005C0FA0935D0FB0935E0F10920B0F809110
:105910000A0FC81714F4C0930A0F80910A0F082EBB
:10592000000C990B04962C2F0C2E000C330B8217B5
:10593000930724F48CEF8C0F80930A0FD0910A0FF9
:105940005D2E85E0682E6D0E03E097E9E92E92E169
:10595000F92E85E0982E9D1A11E021EAC22E22E14F
:10596000D22E34E0732E472C4D1A45EBA42E42E183
:10597000B42E302E3D1A82E0882E8D1A212E2D1A3B
:10598000D11134C080911B0F811115C080915A0133
:10599000882351F0652D619581E0C11180E024E0FC
:1059A00047ED52E10E94C0D9DF5F6D12E9CF86E07A
:1059B00080930D0A08C0C111E9CF0E945E2080913A
:1059C0000B0F882319F3DF91CF911F910F91FF9057
:1059D000EF90DF90CF90BF90AF909F908F907F908F
:1059E0006F905F904F903F902F900895D130C1F508
:1059F00080911B0F811123C080915A018823A1F24D
:105A00000F9387EE8F931F928AE08F9384E291E049
:105A10009F938F938BEC92E19F938F932F9281E0D2
:105A2000C13009F080E08F930E9447D88DB79EB7B0
:105A30000A960FB6F8949EBF0FBE8DBFB5CFC1308A
:105A4000D9F627EE33E04AE050E064E271E081ED00
:105A500092E10E9492E080910B0F882369F2B3CF0C
:105A6000D23009F0DBC080911B0F811126C08091DC
:105A70005A01882309F498CF88EC9AE19F938F9379
:105A80001F937F921F921F928BEC95E19F938F93B0
:105A90008DEB92E19F938F938F9281E0C23009F05A
:105AA00080E08F930E9447D88DB79EB70C960FB6B3
:105AB000F8949EBF0FBE8DBF77CFC230C1F6109352
:105AC000190F1092150F1092160F1092170F1092B7
:105AD000180F28EC3AE144E051E06BEC75E184ECFE
